:020000040800F2
:100000009816002001010008090100080B010008F2
:100010000D0100080F010008110100080000000098
:1000200000000000000000000000000013010008B4
:100030001501000800000000170100081901000860
:100040001B0100081B0100081B0100081B01000820
:100050001B0100081B0100081B0100081B01000810
:100060001B0100081B0100081B0100081B01000800
:100070001B0100081B0100081B0100081B010008F0
:100080001B0100081B0100081B0100081B010008E0
:10009000AD3200081B0100081B0100081B0100080D
:1000A0001B0100081B0100081B0100081B010008C0
:1000B0001B010008512A0008F12A00081B01000852
:1000C0001B0100081B0100081B0100081B010008A0
:1000D0001B010008692D0008892D00081B0100087C
:1000E0001B0100081B0100083F300008DFF80CD09E
:1000F00000F0B8FA00480047D541000898160020E3
:100100000648804706480047FEE7FEE7FEE7FEE7B1
:10011000FEE7FEE7FEE7FEE7FEE7FEE7F12900085F
:10012000ED00000830B505462A460B4612F8010BD3
:1001300013F8014B08B1A042F8D01CB1002802D03E
:100140006D1CF1E7284630BD421C10F8011B002948
:10015000FBD1801A70472DE9FE4F804681EA0300EB
:10016000C00F0C46009021F0004123F00045B8EB91
:100170000200A94105D24046214690461C460B4646
:10018000024623F00040104347D0270DC7F30A0072
:10019000C3F30A510290401A019040286BDAC3F36E
:1001A000130040F4801B0098924620B10023D2EB4C
:1001B000030A63EB0B0B01985946C0F1400250460D
:1001C00000F098F906460D4650465946019A00F04F
:1001D000B0F910EB08006141002487EA115284EA6B
:1001E000E7731A4340D0009A62B3019A012A4FEA9A
:1001F000075215DC001B61EB02014FF0004202EADE
:100200000752CDE90042001C41F5801132462B46D1
:1002100000F0AEF903B0BDE8F08F40462146F9E7A3
:10022000001B61EB0201001C41F5801300185B41CB
:100230002018A2F5001747EB030140EAD570B61964
:100240006D4111E06D084FEA360645EAC0754FEA88
:100250000752001B61EB0201001C41F580114908A7
:100260004FEA30000019514132462B4603B0BDE839
:10027000F04F00F070B90098012240000023D0EB4D
:10028000020263EBE073009821464FEAE074B8EB9A
:10029000000061EB0401E9E783F000435BE781F0D4
:1002A000004158E72DE9FE4F81EA030404F00044C1
:1002B00021F0004100944FF0000B23F0004350EA7E
:1002C00001045ED052EA03045BD0C3F30A54C1F3C5
:1002D0000A552C44A4F2F3340194A0FB0254C1F358
:1002E000130141F48011C3F3130343F4801301FBA2
:1002F000024400FB034E840A970A44EA815447EA09
:100300008357A4FB076802958D0A05FB07854FEA12
:10031000932C04FB0C542705029D4FEA065847EA2C
:100320001637B5EB08056EEB070C870E920E47EA01
:10033000811742EA8312A7FB0201B6EB0B0164EBC3
:1003400000042B0D43EA0C335E1844EB1C50DA46D4
:100350005146E7FB0201C5F313044FEA0B3343EAAE
:1003600014534FEA0432019C43EA0603A4F10C043F
:100370000294009CCDE900B400F0FAF803B0BDE8A7
:10038000F08F00200146F9E72DE9F04D81EA0304E2
:1003900004F0004B21F0004514464FF0000A23F012
:1003A000004150EA050220D054EA01021DD0C5F3F5
:1003B0000A570246C5F31303C1F31300C1F30A56EB
:1003C00040F4801543F48013A7EB0608101BD646B3
:1003D00008F2FD3873EB050002D308F1010801E0D3
:1003E00092185B41B8F1000F03DA00200146BDE826
:1003F000F08D00204FF48011064684460EE0171B56
:1004000073EB050705D3121B63EB050306434CEAA8
:10041000010C49084FEA300092185B4150EA01078D
:10042000EDD152EA030012D082EA040083EA05010A
:10043000084305D0101BAB4106D20122002306E081
:1004400000224FF0004302E06FF0010253101AEB5C
:1004500006004CEB085110EB0A0041EB0B01BDE824
:10046000F04D00F078B830B50B4601460020202250
:10047000012409E021FA02F59D4205D303FA02F5B1
:10048000491B04FA02F52844151EA2F10102F1DC11
:1004900030BD2DE9F05F0546002092469B46884618
:1004A0000646814640241BE02846414647462246F0
:1004B00000F02FF853465A46C01A914110D3114606
:1004C0001846224600F016F82D1A67EB01084F4631
:1004D00022460120002100F00DF817EB00094E41E3
:1004E000201EA4F10104DFDC484631462A4643467B
:1004F000BDE8F09F202A04DB203A00FA02F1002038
:1005000070479140C2F1200320FA03F31943904051
:100510007047202A04DB203A21FA02F000217047BC
:1005200021FA02F3D040C2F120029140084319465B
:100530007047202A06DBCB17203A41FA02F043EA43
:10054000E07306E041FA02F3D040C2F1200291408C
:1005500008431946704710B5002B08DA401C41F1DA
:10056000000192185B411A4301D120F0010010BD37
:100570002DE9F04D92469B4611B1B1FA81F202E0AD
:10058000B0FA80F220329046FFF7B4FF04460F46DF
:1005900040EA0A0041EA0B0153465A46084313D089
:1005A000114653EA010019D0C8F140025046FFF746
:1005B000B0FF05460E46504659464246FFF79AFFA1
:1005C000084305D0012004E020463946BDE8F08DFF
:1005D0000020054346EAE0762C4337430A9863053A
:1005E000E40AA0EB08000022FD0A44EA47540A305E
:1005F00002D500200146E9E7010510196941DDE94E
:10060000084500196941BDE8F04DA4E7C1F30A525D
:10061000C1F3130140F2FF3341F480119A4202DA30
:1006200000200146704740F233439A42A2F233421F
:1006300002DC5242FFF76DBFFFF75CBF30B5002907
:1006400004DB4FF00044404264EB0101002B04DB6B
:100650004FF00044524264EB0303994208BF9042BA
:1006600030BD0000064C074D06E0E06840F0010395
:1006700094E8070098471034AC42F6D3FFF73AFDF0
:10068000704B0008904B000870B58C1810F8015B97
:1006900015F0070301D110F8013B2A1106D110F81B
:1006A000012B03E010F8016B01F8016B5B1EF9D11F
:1006B0002B0705D40023521E0DD401F8013BFAE7A5
:1006C00010F8013BCB1A921C03E013F8015B01F810
:1006D000015B521EF9D5A142D8D3002070BD21B1D3
:1006E000826842F00102826003E0826822F0010227
:1006F0008260704710B504461248844208D1012137
:10070000401501F06FFB0021601501F06BFB17E055
:100710000D48844208D10121001501F063FB00213E
:10072000201501F05FFB0BE00848844208D101214D
:10073000C80301F057FB00214FF4004001F052FBC9
:1007400010BD00000024014000280140003C014091
:10075000014600208A6802F004020AB1012000E08C
:1007600000207047014600208A6802F008020AB1A2
:10077000012000E00020704730B502460020002331
:1007800050680F4C20400D790C6844EA0524204342
:10079000506090680B4C2040D1E902542C434D79B5
:1007A00044EA450420439060D06A20F470000C7C39
:1007B000641EE4B2234340EA0350D06230BD00001F
:1007C000FFFEF0FFFDF7F1FF00B587B001214FF408
:1007D000017001F0F7FA0121042001F0F3FA002082
:1007E0008DF81B000220ADF8180003208DF81A00C8
:1007F00006A91C4800F032FD02211A4800F00DFE47
:100800004FF4004001F0C2FA1748FFF773FF0020D1
:100810008DF8090004904FF46020039000200190AF
:1008200001208DF8140000208DF8080001A90E4861
:10083000FFF7A2FF01210C48FFF751FF0A4800F023
:1008400015F800BF0848FFF78DFF0028FAD10648C9
:1008500000F011F800BF0448FFF77AFF0028FAD132
:1008600007B000BD0008014000240140816841F04C
:10087000080181607047816841F004018160704720
:1008800010B50121462000F008F81021462000F0A4
:1008900004F8B42000F00EFC10BD70B505460C46FF
:1008A00000F09AFE284600F061FE00F005FE00B15F
:1008B00007E0204600F05AFE00F0FEFD00B100E027
:1008C00000BF00F0A9FE70BD0146CAB20B1243EA98
:1008D0000220704708B50020009022E19748008868
:1008E00000F00F00964908700846007800287CD177
:1008F00094480068944908800846008800F0300059
:10090000924908809048008800F440508E49088041
:100910008C4909684BF6BF7201EA020080F400506E
:1009200080F0200040F4004141F08001854A1160D0
:100930008248008800F0100090BB1046006848F61E
:100940000F7108401146086000F086FE7D49096875
:100950004BF6BF7201EA02007B49098801F480511D
:1009600009B180F480507849098801F4005109B137
:1009700080F400507549098801F0100109B180F038
:1009800010007249098801F0200109B180F02000AF
:1009900081B241F4004141F080016A4A116008BD12
:1009A000FFE76848006880B20090BDF8000000F4DE
:1009B0000060B0B363480068C0F30E0048F68F7162
:1009C00008406049086001F0E3FC5E4909684BF6A5
:1009D000BF7201EA02005C49098801F4805109B143
:1009E00080F480505849098800E056E001F4005135
:1009F00009B180F400505549098801F0100109B18E
:100A000080F010005149098801F0200109B180F0FF
:100A1000200081B241F4004141F08001494A116057
:100A2000BDE7FFE7BDF8000000F40040002878D0E3
:100A300044480068C0F30E0048F68F7108404149F1
:100A4000086001F023F93F4909684BF6BF7201EADB
:100A500002003D49098801F4805109B180F48050B9
:100A60003949098801F4005109B180F4005037492F
:100A7000098801F0100109B180F01000334909889C
:100A800001F0200109B180F0200081B241F4004161
:100A900041F080012B4A116081E7294800782C49F8
:100AA00001EB8000D0F8000C80B20090BDF800008F
:100AB00000F40040C0B12248007801EB8000D0F87B
:100AC000000CC0F30E0048F68F7108401C490978ED
:100AD0001F4A02EB8101C1F8000C19490978491E2F
:100AE0001C4A52F821008047BDF8000000F0800049
:100AF000B8B113480078164901EB8000D0F8000C1B
:100B000048F60F7108400E490978114A02EB81013D
:100B1000C1F8000C0A490978491E0F4A52F8210011
:100B2000804708484430006880B20449088000F4D7
:100B3000004000287FF4D2AE00BF30E7F804002068
:100B4000E0050020005C0040F4050020F6050020D0
:100B50000050004020050020040500200B4A02EB55
:100B60008001D1F8001C01F4804171B102EB8001D9
:100B7000D1F8001C48F68F7211404CF280021143EC
:100B8000024B03EB8002C2F8001C7047005000408B
:100B90000B4A02EB8001D1F8001C01F0400171B159
:100BA00002EB8001D1F8001C48F68F72114048F228
:100BB000C0021143024B03EB8002C2F8001C7047D5
:100BC00000500040084A02EB8001D1F8001C48F6B2
:100BD0008F62114048F280021143034B03EB800205
:100BE000C2F8001C704700000050004010B50024FF
:100BF00004E0601CC4B2012003F0B4FA0D480068A0
:100C000008B1502CF5DB502C01DB012010BD002475
:100C100004E0601CC4B2012003F0A4FA0548006897
:100C200008B9642CF5DB642C01DB0120EEE7002021
:100C3000ECE700002481214208B50121082001F0E1
:100C4000C1F84FF40070ADF8000014208DF80300D7
:100C500003208DF802006946064800F0FFFA4FF4C1
:100C60000071044800F0D9FB00F006F8FFF7BEFF62
:100C700008BD0000000C014010B5002006490860C6
:100C8000142003F049FA01200449C1F8A4011E20F0
:100C900003F068FA10BD0000A481214200802142C7
:100CA0002DE9F0472848006800F110052E882648F5
:100CB0000068077AD6B9042F18D124480078012893
:100CC0000FD100212248006880B2801C214A42F8DE
:100CD000101030202049088000BF00201B490870F8
:100CE00003E0072710201C49088027E0AC88A642B3
:100CF00001D8042000E002200746B44200D934465F
:100D0000A0B2A96888478046002000F0ABFB81466E
:100D1000A2B24946404602F0CDFBA1B2002001F04C
:100D20005FFA2888001B288068882044688030206B
:100D30000949088000020949088000BF0249096882
:100D40000F72BDE8F0870000E4050020DE050020FA
:100D5000505C004000600040F6050020F4050020D3
:100D60002DE9F0412848006800F110042688A068A9
:100D7000C0B1BEB1A588B54200D93546A8B2A168B8
:100D8000884707462088401B208060882844608070
:100D9000002000F045FB8046AAB24146384600F0EC
:100DA0009DFF00BF208850B14FF440501749088084
:100DB0000021084601F014FA3020154908802088E7
:100DC000A188884204DB03200F490968087218E0F3
:100DD0002088002804DD05200B490968087210E00E
:100DE000208870B90620084909680872002109485E
:100DF000006880B2801C084A42F810103020044974
:100E00000880BDE8F0810000E4050020F405002022
:100E1000F6050020505C0040006000402DE9F84FCE
:100E20009B48006845780027BA46062D1BD1984894
:100E30000068007800F07F00002813D19449096809
:100E40008878012803D193490968CF690AE002280C
:100E500003D1904909680F6A04E0032802D18D4943
:100E600009684F6A94E0002D64D189480068408881
:100E700000285FD186480068C08802285AD184487B
:100E800000680079002855D181480068007800F09A
:100E90007F0028B97E480068808808B97E4F77E0D7
:100EA0007B480068007800F07F00012810D1784965
:100EB00009684879774909688A69002190470028BC
:100EC00066D173480068807A002861D0724F5FE075
:100ED0006F480068007800F07F00022858D16C4805
:100EE0000068407900F00F0669480068407900F01A
:100EF000700967480068407900F0800038B16749A0
:100F000001EB8600D0F8000C00F0300806E06349E1
:100F100001EB8600D0F8000C00F4405860480078DF
:100F2000B04235D9B9F1000F32D1B8F1000F2FD04E
:100F3000594F2DE0082D07D155480068007800F082
:100F40007F0028BB574F23E00A2D21D1504800686D
:100F5000007800F07F0001281AD14D480068807A9F
:100F6000B0B14B480068408890B9494800680079A2
:100F700070B947480068C088012809D14449096808
:100F80004879444909688A690021904700B9464F69
:100F900057B13F480068A0F812A03D48006887613B
:100FA0000020B84700240FE0394A12685078394AC7
:100FB0001268116988470446032C05D10920344979
:100FC00009680872BDE8F88F31480068008A4FF65A
:100FD000FF71884204D109202D4909680872F1E7A0
:100FE000022C03D02A480068008A20B9082028492A
:100FF00009680872E6E726480068007800F080007B
:10100000E0B323480068C088009021480068008A47
:101010000099884204D91E4900980968088223E093
:101020001B480068008A1A490968C98888421BDA87
:1010300017480068008A1749096891F82C108842FF
:1010400003DA0020194908700EE011480068008A90
:101050001049096891F82C1090FBF1F201FB120085
:1010600010B90120114908700A48006890F82C1046
:10107000074800688182FFF713FE07E0FFE70320BF
:1010800003490968087200030949088000BF99E70D
:10109000E4050020E805002031260008005000404B
:1010A00048050020B525000805260008DE050020BB
:1010B000F4050020014601EBC10222F060424FF02E
:1010C000E0235A6100229A611A46126942F0010235
:1010D0001A6100BF4FF0E022106900F001021AB15E
:1010E00000F48032002AF5D04FF0E022126922F09D
:1010F00001024FF0E0231A6100229A61704700005C
:1011000070B52248B0F802042049B1F800148842B2
:1011100000D170BD1D48B0F802041C49B1F800149C
:10112000884208DA1948B0F800041849B1F80214E6
:10113000401A84B205E01548B0F80204C0F580609A
:1011400084B2402C00DD40241048B0F80254B0F8BE
:10115000020420440D49A1F802040846B0F8020434
:10116000B0F5806F02DB0020A1F80204074948199E
:101170002246C02102F09EF92146012001F030F8FC
:10118000012001F05BF800BFC3E70000180A00204F
:1011900010B50649032002F0CBF884B2E1B203484F
:1011A00002F0DEF8032000F0F1FF10BD1C12002059
:1011B00001490860704700001404014000212349E0
:1011C0008279002A3AD00A46126803689A430B468D
:1011D0001A600A1D126803689A430B1D1A6002798F
:1011E00011440A6803681A430A60184A08321268F0
:1011F00003689A43154B08331A601A1D1268036876
:101200009A43124B0C331A604279102A0ED11A1FDE
:10121000126803681A430D4B08331A601A1D1268CE
:1012200003681A43094B0C331A600DE007494279F1
:1012300011440A6803681A430A6005E00279114400
:101240000A6803689A430A6070470000000401407E
:101250000320014908607047D00500202DE9F041C6
:10126000024600250026002000230024002791F8D4
:1012700003C00CF00F0591F803C00CF0100CBCF18A
:10128000000F03D091F802C04CEA050591F800C0A8
:10129000BCF1000F31D0146800202BE04FF0010C9E
:1012A0000CFA00F3B1F800C00CEA03069E4220D10C
:1012B00083004FF00F0C0CFA03F7BC4305FA03FC54
:1012C0004CEA040491F803C0BCF1280F06D14FF09A
:1012D000010C0CFA00FCC2F814C00AE091F803C03B
:1012E000BCF1480F05D14FF0010C0CFA00FCC2F81C
:1012F00010C0401C0828D1D31460B1F800C0BCF164
:10130000FF0F34DD546800202EE000F1080C4FF090
:10131000010808FA0CF3B1F800C00CEA03069E427B
:1013200021D183004FF00F0C0CFA03F7BC4305FAF0
:1013300003FC4CEA040491F803C0BCF1280F05D16A
:1013400000F1080C08FA0CF8C2F8148091F803C0F8
:10135000BCF1480F07D100F1080C4FF0010808FA62
:101360000CF8C2F81080401C0828CED35460BDE8A9
:10137000F0810000F0B50A4600230024002100257A
:1013800000F00046B6F1004F02D11D4EF16901E0B8
:101390001B4E7168C0F3034583B200F44016B6F5E6
:1013A000401F08D121F07061154E766826F07066F6
:1013B000134F7E6012E000F48016B6F5801F06D150
:1013C000032606FA05F4A14341F0706106E0460DDC
:1013D000360103FA06F6B14341F0706122B1460DC1
:1013E000360103FA06F6314300F00046B6F1004F2D
:1013F00002D1034EF16101E0014E7160F0BD0000C9
:10140000000001400246002093680B400BB1012010
:1014100000E00020704741617047016170470000A3
:1014200001460548006880B200EBC100001D034A78
:1014300032F8100080B27047505C004000600040FD
:1014400001460648006880B200EBC100801D044AD6
:1014500032F81000C0F3090070470000505C0040F3
:101460000060004001460548006880B200EBC10002
:10147000034A32F8100080B270470000505C004010
:101480000060004070B50A480468001D0568001D32
:101490000668344454B108220649204600F014F985
:1014A000042204491031284600F00EF970BD0000F6
:1014B000E8F7FF1FDA04002010B5002400F0A2FDB9
:1014C0000520FFF7F7FD4FF480610E48FFF7A5FFF9
:1014D0000520FFF7EFFD07E0601CC4B2FA2C03DB28
:1014E00000F09AF8012010BD4FF400610548FFF7A5
:1014F00089FF0028F0D14FF480610248FFF78BFF8D
:101500000020F0E7000C014008B50121082000F0A0
:1015100059FC0121084600F055FC01211148FFF754
:1015200029FF4FF40060ADF8000010208DF8030093
:1015300003208DF8020069460B48FFF78FFE4FF439
:101540008060ADF8000069460748FFF787FE4FF45A
:1015500080610548FFF761FF4FF400610248FFF723
:101560005CFF08BD00023000000C014070B504466D
:1015700000F05AFD4FF480611648FFF74CFF00253C
:1015800024E004F0800028B14FF400611148FFF717
:1015900044FF04E04FF400610E48FFF73CFF600693
:1015A000040E0520FFF786FD4FF480610948FFF720
:1015B00034FF0520FFF77EFD4FF480610548FFF7FB
:1015C0002AFF0520FFF776FD681CC5B2082DD8DB81
:1015D00070BD0000000C014010B500F025FD4FF477
:1015E00000610C48FFF719FF4FF480610948FFF7CD
:1015F00014FF0520FFF75EFD4FF400610548FFF77B
:101600000AFF0520FFF756FD4FF480610148FFF700
:1016100002FF10BD000C014010B500F005FD4FF4B5
:1016200080610C48FFF7F7FE4FF400610948FFF7AF
:10163000F2FE4FF480610748FFF7EFFE0520FFF749
:1016400039FD4FF400610348FFF7E7FE0520FFF77F
:1016500031FD10BD000C014010B518480068047A37
:10166000022C01D0042C05D1FFF71AFB13480068A7
:10167000047A1CE0062C19D110480068407805282F
:101680000ED10E480068007800F07F0040B90B4989
:101690000968C87800F0FAFC09490968086A8047B7
:1016A0000849096888688047082400E0082403493D
:1016B00009680C7200F026FB10BD0000E405002054
:1016C000F0050020E805002030B50B46002100BFE2
:1016D00016E00A24B4EB107F05D9302404EB107413
:1016E00003F8114005E0412404EB10740A3C03F8B0
:1016F0001140000100254C00641C1D554C1CE1B23A
:101700009142E6DB30BD000008B50121042000F065
:1017100059FB0121102000F055FB1020ADF800000E
:1017200003208DF8020010208DF8030069460A4856
:10173000FFF794FD10210848FFF76FFE4FF40050AB
:10174000ADF8000069460548FFF788FD4FF40051E9
:101750000248FFF762FE08BD00080140001001408A
:101760000548817A19B10521044A116002E001217E
:10177000024A1160704700007C120020D005002052
:101780007047000070B5002100230F22C47804B315
:10179000154C246804F4E064C4F5E064210AC1F146
:1017A0000403CA40447804FA03F1847814402143C6
:1017B00009010E4C0678A155047804F01F05012498
:1017C000AC4005786D11AD0005F1E025C5F800418C
:1017D00009E0047804F01F050124AC40044D0678AC
:1017E000761145F8264070BD0CED00E000E400E005
:1017F00080E100E070B5022647480068447846481A
:101800000068007800F07F00002844D1092C03D143
:1018100000F08EFF06465FE0052C14D13E480068BC
:10182000C0787F280BDC3C480068807838B93A489B
:101830000068808818B938480068807A08B108259F
:1018400065E0002648E0032C0ED133480068C078DC
:10185000012807D130480068808818B900F08CFF53
:10186000064639E0022637E0012C35D12A480068C7
:10187000C07801280DD128480068808848B92648DA
:101880000068407A00F0200018B100F0DDFD064647
:1018900022E0022620E020480068007800F07F0067
:1018A000012805D10B2C17D100F0E2FF064613E00A
:1018B00019480068007800F07F0002280BD1012C45
:1018C00003D100F0C1FD064606E0032C04D100F070
:1018D00067FF064600E002264EB1E0B20F4A1268EA
:1018E000516988470646032E01D109250FE00EB144
:1018F00008250CE0062500210948006880B2801CFC
:10190000084A42F8101030200749088000BF0249F9
:1019100009680D7270BD0000E4050020E805002094
:10192000505C004000600040F605002070B50024C7
:1019300018E004F1B000002100F09BF900210846F6
:1019400000F097F90021102000F093F9002505E040
:101950000121002000F08DF9681CC5B2842DF7DB51
:10196000601CC4B2082CE4DB70BD10B500218D20D2
:1019700000F07FF90021142000F07BF90021AF2056
:1019800000F077F910BD000010B540210748FFF7BF
:1019900044FD80210548FFF740FD80210348FFF703
:1019A0003AFD40210148FFF736FD10BD000C014013
:1019B00010B540210548FFF730FD80210348FFF7AF
:1019C0002AFD80210148FFF728FD10BD000C0140D1
:1019D00010B540210348FFF720FD40210148FFF7E3
:1019E0001AFD10BD000C014008B50121082000F0CF
:1019F000E9F9C020ADF8000010208DF803000320A5
:101A00008DF8020069463E48FFF728FCC0213C489B
:101A1000FFF703FD4FF4487002F07EFB0021AE207B
:101A200000F027F90021084600F023F900211020DA
:101A300000F01FF90021402000F01BF90021B02028
:101A400000F017F90021812000F013F90021FF2098
:101A500000F00FF90021A12000F00BF90021A620D1
:101A600000F007F90021A82000F003F900213F2031
:101A700000F0FFF80021C82000F0FBF80021D3207F
:101A800000F0F7F80021084600F0F3F80021D52017
:101A900000F0EFF80021802000F0EBF80021D820C2
:101AA00000F0E7F80021052000F0E3F80021D9203C
:101AB00000F0DFF80021F12000F0DBF80021DA204F
:101AC00000F0D7F80021122000F0D3F80021DB202D
:101AD00000F0CFF80021302000F0CBF800218D205D
:101AE00000F0C7F80021142000F0C3F80021AF2057
:101AF00000F0BFF8FFF739FFFFF718FF08BD00003F
:101B0000000C014070B504460D4605F1B0000021FF
:101B100000F0AFF8102141EA1410002100F0A9F8FC
:101B200004F00F00002100F0A4F870BD2DE9F04191
:101B300080460E461546002731464046FFF7E2FF35
:101B400000240AE0124A02EB8511085D012100F031
:101B500090F8781CC7B2601CC4B2102CF2DB701C69
:101B6000C1B24046FFF7CEFF00240CE06900491CDB
:101B7000074A02EB4111085D012100F07AF8781C58
:101B8000C7B2601CC4B2102CF0DBBDE8F0810000CD
:101B9000150000202DE9F04707460E46904699466D
:101BA00000250024A8F12000C5B27F2F02DD002708
:101BB000B01CC6B2B9F1100F24D131463846FFF738
:101BC000A1FF002408E004EB0511194A505C012133
:101BD00000F04FF8601CC4B2082CF4DB701CC1B2DA
:101BE0003846FFF78FFF002409E004EB05110831A8
:101BF0000F4A505C012100F03CF8601CC4B2082C74
:101C0000F3DB12E031463846FFF77CFF00240AE0A0
:101C100005EB4501074A02EB4101085D012100F097
:101C200028F8601CC4B2062CF2DBBDE8F087000087
:101C3000CC440008A44200082DE9F04104460F46B8
:101C40001546984600260FE0AA5D434639462046D1
:101C5000FFF7A0FF04F10800C4B2782C02DD0024D5
:101C6000B81CC7B2701CC6B2A85D0028ECD1BDE894
:101C7000F08170B504460D461DB1E0B201F0B6FD2D
:101C800002E0E0B201F09CFD70BD000010B511480B
:101C90000068047A022C01D0042C01D1082412E03F
:101CA000032C01D0052C05D1FFF75AF8094800682C
:101CB000047A08E0072C05D107490968C8688047FD
:101CC000082400E00824034909680C7200F01AF89F
:101CD00010BD0000E4050020E8050020F0B5561C0A
:101CE0007510074E06EB41042B4605E034F8047BE3
:101CF00020F8017B401C5B1E002BF7D1F0BD0000DB
:101D00000060004010B50D4890F82C10002000F045
:101D1000F7F90B480068007A082805D14002094904
:101D2000088010200849088005480068007A0928C2
:101D300001D1012010BD0020FCE700004C0500206F
:101D4000E4050020F4050020F605002010B5012070
:101D500001F07BF901240B48046000200A49088047
:101D600008460088074908600020091D08604FF4F4
:101D7000E0500549088008460088024908600020B4
:101D800010BD0000405C0040EE0500200146002030
:101D9000034A506820F440400843506070470000F8
:101DA0000010024029B1064AD2690243044BDA61AD
:101DB00004E0034AD2698243014BDA6170470000B4
:101DC0000010024029B1064A92690243044B9A610D
:101DD00004E0034A92698243014B9A617047000014
:101DE0000010024029B1064AD2680243044BDA606F
:101DF00004E0034AD2688243014BDA607047000076
:101E00000010024030B500210022002400232D4D97
:101E10006D6805F00C0121B1042905D0082923D1F2
:101E200005E0294D056022E0274D05601FE0254DA6
:101E30006D6805F47012234D6D6805F48034022539
:101E400005EB92421CB9214D554305600BE01D4D39
:101E50006D6805F400351DB11C4D5543056002E069
:101E6000194D5543056002E0174D056000BF00BFE6
:101E7000144D6D6805F0F0010909154D6B5C05689E
:101E8000DD4045600F4D6D6805F4E061090A104DB5
:101E90006B5C4568DD4085600A4D6D6805F46051F6
:101EA000C90A0B4D6B5C4568DD40C560054D6D682A
:101EB00005F44041890B074D6B5CC568B5FBF3F534
:101EC000056130BD0010024000127A0000093D009B
:101ED0000000002010000020014908607047000049
:101EE000D800424208B501210420FFF76BFF4FF4F0
:101EF0000060ADF8000003208DF8020010208DF87E
:101F0000030069460148FFF7A9F908BD0008014030
:101F100070B50546072D01D02E4805702D48007874
:101F200008284ED2DFE800F004111A202B384E4F5B
:101F30002948006828B900F053F8062025490870A0
:101F400002E005202349087041E000F049F8042030
:101F50002049087001202049086038E002201D490E
:101F600048700320087032E01A484078401E194932
:101F700048700846407808B90420087027E01748E0
:101F8000006884B244F0100414480460052011492C
:101F900008700A2048701AE00E484078401E0D492B
:101FA00048700846407858B90C48006884B224F05C
:101FB00010040A48046006200870002006490860E2
:101FC00005E000BF00BF06200249087000BF00BF47
:101FD00070BD0000D5050020D8050020405C004001
:101FE00010B50748006884B224F004040448046073
:101FF000FFF7B6FB4FF43F400149086010BD0000F9
:10200000405C004008B54FF40060ADF800000420CB
:102010008DF8030003208DF8020069460148FFF7A0
:102020001DF908BD000C014008B54FF40060ADF883
:10203000000010208DF8030003208DF8020069468F
:102040000148FFF70BF908BD000C014010B5094825
:10205000006805280CD1084801680068401C064A41
:102060001060052904D1002011460860FFF748F8E8
:1020700010BD0000D0050020F40400204FF6F871D8
:102080000140014A11607047505C004030B5014684
:102090000F4B1A78002014E003060E4C04EB935308
:1020A000D3F8003C48F68F74234048F28004234361
:1020B000C4B223430406074D05EB9454C4F8003C16
:1020C000401C9042E8D341F08003034C236030BDB4
:1020D00048050020005000404C5C004010B54A10FC
:1020E0005300054A126892B202EBC002121D034C63
:1020F00044F8123010BD0000505C00400060004009
:1021000010B502460F48006880B200EBC200801D87
:102110000D4C04EB40033E290BDD481101F01F0478
:102120000CB9441EA0B24FF4004444EA80241C6061
:1021300007E0481001F001040CB1441CA0B2840275
:102140001C6010BD505C00400060004030B50E4C7B
:1021500004EB8003D3F8003C4BF68F7403EA0402CF
:1021600001F480530BB182F4805201F400530BB19F
:1021700082F4005242F4004343F08003024D05EB29
:102180008004C4F8003C30BD0050004010B50B4B3B
:1021900003EB8002D2F8002C4BF68F7302EA0301A6
:1021A00081F4805181F4005141F4004242F08002F8
:1021B000024C04EB8003C3F8002C10BD005000401B
:1021C00010B54A105200044B1B689BB203EBC003CE
:1021D000024C44F8132010BD505C004000600040E9
:1021E000044A126892B202EBC002921C024B43F8FE
:1021F00012107047505C00400060004030B50E4C3B
:1022000004EB8003D3F8003C48F6BF7403EA0402F1
:1022100001F010030BB182F0100201F020030BB1AA
:1022200082F0200242F4004343F08003024D05EBAC
:102230008004C4F8003C30BD0050004010B50B4B8A
:1022400003EB8002D2F8002C48F6BF7302EA0301C8
:1022500081F0100181F0200141F4004242F080023F
:10226000024C04EB8003C3F8002C10BD005000406A
:1022700010B5074B03EB8002D2F8002C48F68F1301
:102280001A400A43024C04EB8003C3F8002C10BD33
:102290000050004010B500F001F810BD0CB5002052
:1022A000019000903348006840F480303149086064
:1022B00000BF3048006800F4003000900198401CD6
:1022C0000190009818B90198B0F5A06FF1D1294894
:1022D000006800F4003010B10120009001E00020FF
:1022E00000900098012843D12348006840F0100076
:1022F000214908600846006820F00300086008468D
:10230000006840F0020008601A48406819494860B7
:102310000846406848600846406840F4806048606D
:102320000846406820F47C1048600846406840F445
:10233000E81048600846006840F08070086000BF00
:102340000C48006800F000700028F9D00948406887
:1023500020F00300074948600846406840F002004A
:10236000486000BF0348406800F00C000828F9D11D
:102370000CBD0000001002400020024010B50020FB
:10238000FFF7AAFD0121C805FFF70CFD10BD0000F5
:1023900038B501242948006880B2001D284931F869
:1023A000100080B201EB4000009026480068007ADF
:1023B000092832D0009800782249096808700098EE
:1023C000401C0090009800781E49096848700098E9
:1023D000401C0090009800EB44000090009931F8F8
:1023E000020B0091FEF770FA1649096848800098C0
:1023F00000EB44000090009931F8020B0091FEF7C9
:1024000063FA104909688880009800EB4400009046
:10241000009800880B490968C880012009490968AB
:10242000087208480068C08810B9FFF7E3F901E0B6
:10243000FEF7F4FCFFF766FC38BD0000505C00407E
:1024400000600040E40500202DE9F0475448006892
:10245000007800F07F08B8F1000F0AD150480068FA
:10246000407A00F0DF004E49096848720020BDE85C
:10247000F087B8F1020F7CD149480068408818B94C
:1024800047480068007908B10220F0E7DFF81491AE
:1024900043480068477927F080052C46404800688B
:1024A000407900F0800038B13F4901EB8400D0F85A
:1024B000000C00F0300606E03B4901EB8400D0F848
:1024C000000C00F4405699F80000A84204D91EB14F
:1024D00033480068807A08B90220C8E707F0800016
:1024E00080B1314901EB8400D0F8000C00F03000DD
:1024F00010284BD1E0B2FEF74BFBE0B23021FFF7E2
:102500007DFE43E0284901EB8400D0F8000C00F484
:102510004050B0F5805F39D1E4B9244A92F82C10CC
:10252000E0B2FFF7EDFD204A02EB8401D1F8001C78
:102530004BF68F7201EA020080F4805080F4005064
:1025400040F4004141F08001174B03EB8402C2F8D4
:10255000001C1BE0E0B2FEF701FB134A02EB840112
:10256000D1F8001C4BF68F7201EA020080F4805013
:1025700000E011E080F4005040F4004141F080019F
:10258000094B03EB8402C2F8001C00BF084909682C
:102590004869804700206AE700BF022067E7000023
:1025A000E405002048050020005000404C050020B4
:1025B000F005002010B504462CB901200649096831
:1025C0000882002010BD0549096808688047024854
:1025D00000680A30F6E70000E4050020F00500205E
:1025E00010B5024606480068438A32B98888C01A86
:1025F000034C24682082002010BD08681844FBE7C3
:10260000E405002010B504462CB9012006490968EC
:102610000882002010BD0549096888688047024883
:1026200000680C30F6E70000E4050020F00500200B
:1026300010B504462CB902203949096808820020E7
:1026400010BD00203749088035480068007800F048
:102650007F0018BB32490968487A00F0200131B187
:102660003049097841F002012E4A117005E02D49E8
:10267000097801F0FD012B4A117000F0400131B1E1
:102680002849097841F00101264A117005E02549E1
:10269000097801F0FE01234A11703AE020480068F1
:1026A000007800F07F00012801D11E48C8E71C48CF
:1026B0000068007800F07F00022828D1184A1268CC
:1026C000517901F00F0001F080027AB1164B03EB53
:1026D0008002D2F8002C02F03002102A16D1114AE2
:1026E000127842F001020F4B1A700FE00E4B03EB11
:1026F0008002D2F8002C02F44052B2F5805F05D17E
:10270000084A127842F00102064B1A7001E00020DC
:1027100096E70649096808698047024890E7000083
:10272000E4050020DC05002000500040F0050020FA
:1027300010B50E480068C0780D494978884213DC0E
:102740000A480068807878B908480068808858B9D5
:1027500006480068C0780549096888720549096813
:1027600048688047002010BD0220FCE7E4050020F7
:1027700048050020F005002010B507480068407AA1
:1027800040F0200004490968487204490968C86992
:102790008047002010BD0000E4050020F005002067
:1027A0002DE9F0412E480068467926F080073C4626
:1027B0002B480068407900F0800038B1294901EBCE
:1027C0008400D0F8000C00F0300506E0254901EB4C
:1027D0008400D0F8000C00F4405523480078A04253
:1027E00008D91F480068408820B91DB11C480068FE
:1027F000807A10B90220BDE8F08106F08000A0B117
:10280000184A02EB8401D1F8001C48F6BF7201EAB5
:10281000020080F0100040F4004141F08001114BB3
:1028200003EB8402C2F8001C14E00E4A02EB8401A0
:10283000D1F8001C4BF68F7201EA020080F4805040
:1028400040F4004141F08001064B03EB8402C2F8E2
:10285000001C00BF05490968886980470020CAE755
:10286000E40500200050004048050020F00500204D
:1028700010B5174B1B68D978154B1B685879154B49
:102880001B689A699047044611480068807AE8B14D
:102890003CB90F480068007918B90D480068807885
:1028A00008B1022010BD8CB90B490968C86880477F
:1028B00007480068407906490968C87204480068FA
:1028C000C0780349096808730020EBE70220E9E7B4
:1028D000E4050020E8050020F005002008B50121EE
:1028E0000820FFF76FFA10208DF8030003208DF801
:1028F00002000820ADF8000069461548FEF7AEFC5E
:102900001020ADF8000069461148FEF7A7FC202012
:10291000ADF8000069460E48FEF7A0FC4FF4805069
:10292000ADF8000069460A48FEF798FC08210848FF
:10293000FEF771FD10210648FEF76DFD20210448C9
:10294000FEF769FD4FF480510148FEF764FD08BDB4
:10295000000C014038B50025002000902148006897
:1029600084B200BF09E0204901EB8500D0F8000CDB
:1029700080B21E4941F825006D1C082DF3D344F4A4
:1029800080641848046044F00104046024F00104E9
:10299000046000BF1348001D006800F48060002838
:1029A000F8D04FF6FF300F49091D0860002509E0F7
:1029B0000E4850F8250080B20B4A02EB8501C1F8A1
:1029C000000C6D1C082DF3D344F008040548046086
:1029D000006884B244F0040402480460FEF738FC46
:1029E00038BD0000405C0040005000405C120020F8
:1029F00010B51348006840F001001149086008460E
:102A00004068104908400E494860084600680E4971
:102A100008400B4908600846006820F480200860E0
:102A20000846406820F4FE0048604FF41F008860AC
:102A3000FFF730FC4FF000600449086010BD000053
:102A4000001002400000FFF8FFFFF6FE08ED00E076
:102A500010B50121064800F0F9F840B10121044801
:102A600000F0E3F803480078401C0249087010BDEC
:102A700000040040140000207FB505460C460121EB
:102A80000220FFF78FF901211648FEF773FC0121A0
:102A90001548FEF76FFCADF80850ADF80440002073
:102AA000ADF80600ADF80A0001A9104800F0F2F8F0
:102AB000012211460D4800F0DAF81D208DF80000C3
:102AC00000208DF8010003208DF8020001208DF810
:102AD00003006846FEF756FE0121044800F0A8F8FE
:102AE0007FBD00000001300000081A000004004013
:102AF00010B50121194800F0A9F870B30121174859
:102B000000F093F81648006801281AD11448D0F84C
:102B10000C04401C1249C1F80C040846D0F80C04FF
:102B2000D1F8101488420CDD01200D4948600020C6
:102B300008600C310BA000F06FFE00200849C1F8BE
:102B40000C040748D0F81404012806D10448D0F832
:102B50001804401C0249C1F8180410BD00080040C8
:102B6000FC05002054494D345F49525148616E6460
:102B70006C65722025730D0A000000007FB50546C4
:102B80000C4601210420FFF70DF901210846FFF74B
:102B900019F9ADF80850ADF804400020ADF8060072
:102BA00001A9194800F076F80121174800F02EF825
:102BB0000021154800F064F80021134800F0C8F81F
:102BC0000021114800F0B8F801210F4800F03CF84E
:102BD00001210D4800F026F8012211460A4800F0B4
:102BE00046F81E208DF8000002208DF801008DF8B7
:102BF000020001208DF803006846FEF7C3FD0121A5
:102C0000014800F015F87FBD0008004021B102889E
:102C100042F08002028004E002884FF67F731A407F
:102C200002807047CA4302827047CA4302827047DB
:102C300021B1028842F00102028004E002884FF6CE
:102C4000FE731A40028070478182704730B5024699
:102C5000002000230024158A05EA0103958905EA6E
:102C6000010413B10CB1012000E0002030BD1AB105
:102C700083890B43838102E083898B43838170477F
:102C800002884FF6F7731A40028002880A430280D6
:102C900070470000002202881D4B98420ED01D4B49
:102CA00098420BD0B0F1804F08D01B4B984205D012
:102CB0001A4B984202D01A4B984204D14FF68F73A8
:102CC0001A404B881A43174B984207D0164B98422C
:102CD00004D04FF6FF431A40CB881A4302808B88FA
:102CE00083850B8803850A4B98420BD0094B984289
:102CF00008D00E4B984205D00D4B984202D00D4B98
:102D0000984201D10B7A0386012383827047000029
:102D1000002C014000340140000400400008004045
:102D2000000C004000100040001400400040014032
:102D3000004401400048014021B1028842F00202F3
:102D4000028004E002884FF6FD731A40028070474B
:102D500021B1028842F00402028004E002884FF6AA
:102D6000FB731A400280704710B540F225510548A8
:102D700000F0A1F8012804D140F22551014800F0EB
:102D800063F810BD0038014010B540F225512348CA
:102D900000F091F800283FD040F225511F4800F084
:102DA00053F800201E49C1F80C04C1F81804C1F8FA
:102DB00014040120086000204860184800F036F92B
:102DC000C4B2174881688068401C154A906002F1BF
:102DD0000C00445413A1FDF7A5F928B901201049AE
:102DE0000860002048600CE010A10D480C30FDF791
:102DF00099F930B901200A49486000200860C1F8FB
:102E00000C0407488068B0F5806F05DD0020044998
:102E1000886007A001F028FA10BD000000440040BF
:102E2000FC0500205354415254000000454E44001C
:102E30004552524F525F574F52444E554D204953C1
:102E40002046554C4C0D0A0010B50022002340F6D8
:102E50006A14A14200D100BF0A1201249440A3B217
:102E6000DC43048010BD21B1828942F4005282818A
:102E700004E082894DF6FF731A408281704700009A
:102E800000200449A1F80204A1F8000402490880C6
:102E900001207047180A0020D604002002460020B6
:102EA000B1F5007F00D100BF13880B400BB10120AA
:102EB00000E00020704770B5024600240023002582
:102EC000002040F66A16B14200D100BFC1F342159E
:102ED00001F01F03012606FA03F3012D02D19689A2
:102EE000334006E0022D02D1168A334001E0968A73
:102EF00033400C12012606FA04F41688344013B14C
:102F00000CB1012000E0002070BDF0B503460024A4
:102F100000260025002040F66A17B94200D100BF04
:102F20001846C1F3421401F01F06012707FA06F5FF
:102F3000012C01D10C3004E0022C01D1103000E052
:102F400014301AB107682F43076002E00768AF43E7
:102F50000760F0BD2DE9F04786B005460E46002417
:102F6000A24600BFA1460027B08900B100BF2F468E
:102F70002C8A4CF6FF700440F08804432C82AC8904
:102F80004EF6F3100440B088318908437189084334
:102F90000443AC81AC8A4FF6FF400440B08904433F
:102FA000AC8201A8FEF72EFF1F48874202D1DDF850
:102FB00010A001E0DDF80CA0A88900F4004040B1A9
:102FC0000AEBCA0000EB0A1031684900B0FBF1F8C7
:102FD00007E00AEBCA0000EB0A1031688900B0FB79
:102FE000F1F86420B8FBF0F004012009642101FB32
:102FF0001089A88900F4004040B1322000EBC900DC
:10300000B0FBF1F000F00700044308E0322000EBD1
:1030100009106421B0FBF1F000F00F0004432C8193
:1030200006B0BDE8F08700000038014001468888FE
:10303000C0F308007047C1F308028280704710B5E2
:103040004FF48020FEF7B4F810BD704710B5084863
:1030500008490860022009680872074807490860A3
:10306000074808490860054909680868804710BD95
:103070007C120020E40500204C050020E80500201B
:103080007C050020F00500200EB54FF48020FEF7EF
:103090008FF84FF48020009008208DF80500012063
:1030A0008DF806006846FEF789F814208DF80800B0
:1030B00001208DF8090000208DF80A0001208DF80C
:1030C0000B0002A8FEF75EFB2A208DF80800002006
:1030D0008DF8090002A8FEF755FB0EBD10B588B0AB
:1030E000002469480068694908800846008800F49F
:1030F000007067490988084050B14FF6FF50624997
:10310000086064480078401C62490870FEF79EFF22
:103110005E48008800F400405D490988084008B115
:10312000FDF7D8FB5948008800F4806058490988A9
:10313000084030B14FF6FF3053490860564948689F
:1031400080475248008800F40050514909880840DF
:1031500018B14DF6FF704C4908604C48008800F4E7
:1031600080504B490988084030B14EF6FF704649FF
:1031700008600020FEF7CCFE4448008800F40060A0
:1031800043490988084060B14448007810B1FFF70E
:10319000E1FB02E00220FEF7BBFE4FF2FF703A496E
:1031A00008603A48008800F480703949098808406E
:1031B000002866D04FF6FF6033490860081D00689C
:1031C00000F40040002856D035480068401C3449BF
:1031D000086008460068032850D92B48001F006883
:1031E00000F00800002849D12748001F006880B27D
:1031F0002C490860002408E02B4901EB8400D0F83A
:10320000000C80B24DF82400641C082CF4D325482F
:10321000006840F00100234908600846006880B259
:103220001949091F08601F48006820F001001D4966
:1032300008600846006880B21349091F086000BF93
:103240001148006800F480600028F9D04FF6FF3084
:103250000D490860002408E05DF8240080B2124A9D
:1032600002EB8401C1F8000C641C082CF4D300208C
:103270000B49086002E00020094908600720FEF7BA
:1032800047FE08B010BD0000445C0040F804002078
:10329000EE050020FA0400204C050020D405002093
:1032A000FC040020000500200050004010B5FFF78E
:1032B00015FF10BD10B5044601210420FEF782FD64
:1032C0003CB10F48006880B220F002000C49086051
:1032D00014E00B48006880B240F002000849086022
:1032E0000848006820F47F20064908600846006806
:1032F00040F44C30086000200349086010BD000015
:10330000405C004004080140B00121420020064911
:1033100008604FF43F40054908800846008802498C
:10332000091F086000207047445C0040EE05002043
:103330002DE9F04104460E46002504F07F00FEF71B
:103340007FF8054604F07F00FEF76AF807462A4634
:1033500039463046FEF7C2FC2846BDE8F081000041
:1033600030B503460A46002134E0585C1B4C2488E3
:1033700004F4004464BB194C248804F4804464B110
:103380000A2803D00024154D2C8021E0134C2488FA
:1033900044F40044114D2C801AE00D2806D10F4C46
:1033A000248844F480440D4D2C8011E00B4C24887B
:1033B000C4F30D040A4D2855084C2488641C074D9D
:1033C0002C802C462488B4F5007F01DB00242C805F
:1033D0004C1CE1B29142C8DB30BD0000D604002095
:1033E0001C1000200A49B1F80014094A5054114633
:1033F000B1F80014491CA2F800141146B1F80014E9
:10340000B1F5806F02D10021A2F8001470470000CE
:10341000180A002010B586B00446012144F20400C9
:10342000FEF7D0FC4FF40070ADF8140001208DF8C9
:10343000160018208DF8170005A91C48FDF70EFF8F
:103440004FF48060ADF8140004208DF8170005A932
:103450001648FDF703FF01940020ADF80800ADF811
:103460000A00ADF80C00ADF810000C20ADF80E000D
:1034700001A90F48FFF76EFD012240F225510C48CB
:10348000FFF743FD25208DF8000002208DF8010094
:103490008DF8020001208DF803006846FEF772F9EE
:1034A00001210348FFF7DFFC06B010BD0008014012
:1034B00000380140F0B5144604F1010C4FEA6C07E6
:1034C000DFF824C00CEB41033D460AE00678401CBF
:1034D00090F800C046EA0C2223F8022B9B1C401CEB
:1034E0006D1E002DF2D1F0BD0060004070B50446A5
:1034F0000025212C08D112480068007800F07F00D8
:1035000021280ED10F4D0CE0202C0AD10C48006868
:10351000007800F07F00212800D10B4D20200B49BE
:1035200008700DB9022070BD054800688561002152
:103530000348006841820020A8470020F3E700000C
:10354000E405002079350008093700083C05002013
:1035500010B5044602492046FFF742F810BD0000AE
:10356000A805002010B5044602492046FFF738F8A8
:1035700010BD0000A0050020014629B90820034A1B
:1035800012681082002070470148FCE7E405002023
:103590004005002070B5054606480068C478042C34
:1035A00001DD002070BD044800EBC4012846FFF790
:1035B00017F8F7E7E4050020B005002002460029CF
:1035C00001DD02207047012A01DD0220FAE7002018
:1035D000F8E70000014608480068007800F07F0026
:1035E000212807D1022901D100207047222901D1C9
:1035F0000020FAE70220F8E7E405002010B50020DB
:103600003449096888723448C07932490968487277
:10361000002030490968C872FEF730FD4FF4007190
:103620000020FEF725FE10210020FEF7E7FD4021D7
:103630000020FEF753FD80210020FEF7C1FD002091
:10364000FDF7C0FA254890F82C100020FEF758FD31
:103650000020FEF79BFD00210120FEF709FEC0219E
:103660000120FEF7ADFD20210120FEF7C7FD00215E
:103670000120FEF76BFD4FF4C0610220FEF7F8FD5C
:103680004FF480710220FEF79BFD00210220FEF71F
:103690005DFD20210220FEF7B1FD00210320FEF791
:1036A000E7FD4FF488710320FEF718FD4021032049
:1036B000FEF726FD4FF440510320FEF747FD0021A1
:1036C0000320FEF79BFD0020FEF7E0FC01200449EB
:1036D000086010BDE4050020CE4A00084C0500201B
:1036E000D00500200348817A11B10521024A1160FA
:1036F000704700007C120020D00500200420014902
:1037000008607047D0050020014629B90820034A07
:1037100012681082002070470148FCE7E405002091
:103720004005002010B505480078202804D1FFF797
:10373000A7FB00200149087010BD00003C050020D7
:103740007047000010B5FDF79DFE0020054909688F
:103750008872FEF7FBFAFFF7D9FD002002490860E6
:1037600010BD0000E4050020D00500202DE9F04147
:1037700005462C4640211148FDF74DFE002619E074
:10378000274607F08007802F04D180210B48FDF7E2
:1037900044FE03E080210948FDF73DFE6006040E6B
:1037A00040210648FDF739FE40210448FDF733FE6D
:1037B000701CC6B2082EE3DBBDE8F081000C0140AE
:1037C00010B50446FEF7E0F87820FFF7CFFFFEF7CC
:1037D000FFF80020FFF7CAFFFEF7FAF82046FFF7D0
:1037E000C5FFFEF7F5F8FEF7E3F810BD10B5044687
:1037F000FEF7CAF87820FFF7B9FFFEF7E9F8402096
:10380000FFF7B4FFFEF7E4F82046FFF7AFFFFEF73F
:10381000DFF8FEF7CDF810BD0FB4054B10B503A9C6
:10382000044A029800F0DCF810BC5DF814FB0000BC
:10383000B1410008F805002037B514460846064B8C
:103840006A46214600F0CCF804466946002000F0A4
:103850005EFC20463EBD00000F41000802E008C8A3
:10386000121F08C1002AFAD170477047002001E0FA
:1038700001C1121F002AFBD1704700002DE9FF5F34
:10388000DDE90220010DDDF838B0024318D044F61E
:103890001050A1F2FF3141430D140F98012820D0A0
:1038A000A5EB0B00401C5FEA000A4FF00004474EF6
:1038B000DFF81C91A046504616D5CAF1000728E053
:1038C0000F98012443A2012808D0002100980F9BE3
:1038D000C0E90021C0E90243BDE8FF9F6FEA0B0188
:1038E000F4E7CBF10000DEE7074612E0F80707D067
:1038F0002246334640464946FCF7D4FC804689467A
:103900002246334610461946FCF7CCFC04460E46C8
:103910007F10002FEAD1DDE90201BAF1000F424623
:103920004B4602DAFCF7BEFC01E0FCF72DFD044635
:103930000E460022284BFCF781FE03D84FF0FF30E3
:10394000014607E00022254B20463146FCF703FCE8
:10395000FCF75CFE102409E0002C0ADB0A2200239D
:10396000FCF797FD019B30321A55641E50EA0102A4
:10397000F2D1641C019AC4F1110314440F9A012A74
:1039800003D0012208430DD10AE0084304D00020EF
:103990004FF0110B0F9080E7A3EB0B056D1E0DE0B0
:1039A0005B4504DD4FF0000205F1010504E003DA98
:1039B0004FF00002A5F10105002AECD000980F9904
:1039C000C0E90231C0E9004586E70000000024405C
:1039D0000000F03F300000000000F0430000E03F36
:1039E0002DE9FF4F95B09B468946064600250FE21C
:1039F000252877D100242746F84A0121059400E0C4
:103A0000044316F8013F203B01FA03F01042F7D1BE
:103A100030782A2811D06FF02F033078A0F13002CF
:103A2000092A16D8059A44F0020402EB820203EB3D
:103A300042021044761C0590EFE759F8042B0592DA
:103A4000002A03DA504244F40054059044F0020482
:103A5000761C30782E2816D116F8010F44F0040495
:103A60002A280DD06FF02F023078A0F13003092BF7
:103A700009D807EB870302EB4303C718761CF3E76B
:103A800059F8047B761C30786C280FD006DC4C2863
:103A900017D068280DD06A2814D104E0742810D0FB
:103AA0007A280FD10DE044F400140AE044F48014A5
:103AB00001E044F440147278824202D104F580148B
:103AC000761C761C307866280BD013DC582877D00B
:103AD00009DC002875D04528F6D04628F4D04728C0
:103AE0001AD19DE118E0632835D0642879D0652883
:103AF00012D195E1702873D008DC6728F1D06928CD
:103B00006FD06E280DD06F2806D1B5E073282CD069
:103B1000752875D0782874D05A46179990476D1C2F
:103B200075E1C4F30250022809D003280DD0D9F85A
:103B3000001004280DD00D6009F1040967E1D9F8DF
:103B40000010EA17C1E90052F6E7D9F800100D801D
:103B5000F2E70D70F0E719F8041B8DF80010002053
:103B60008DF80100EA46012003E059F804AB4FF05C
:103B7000FF3061074FF0000102D40DE008F10101B0
:103B80008846B9420FDA8045F8DB1AF80810002998
:103B9000F4D108E008F1010188468142FADB1AF805
:103BA00008100029F6D105985B46A0EB08072146CE
:103BB0003846179A00F094FA284400EB080507E00D
:103BC0004DE029E10DE01AF8010B5A46179990478C
:103BD000B8F10108F7D25B4621463846179A13E13F
:103BE00042E00A220092C4F302524FF0000A022A75
:103BF00008D059F804CB032A4FEAEC710AD00DE043
:103C000029E02AE009F1070121F00702F2E802C1E8
:103C1000914609E00FFA8CFC4FEAEC71042A03D1BB
:103C20004FFA8CFC4FEAEC71002907DA0A460021B2
:103C3000DCF1000C61EB02012D2202E0220504D52B
:103C40002B228DF80420012203E0E20701D020227C
:103C5000F7E7904659E00A2102E010220DE010211A
:103C60004FF0000A00910BE010224FF0000A44F0E0
:103C700004040827009203E008224FF0000A009293
:103C8000C4F30252022A05D059F804CB0021032ABA
:103C900008D009E009F1070121F00702F2E802C1AA
:103CA000914605E01FFA8CFC042A01D10CF0FF0CB0
:103CB0004FF00008220728D5702806D0009B83F01B
:103CC000100353EA0A0305D00EE040228DF80420C9
:103CD000012208E05CEA010206D030228DF80420BF
:103CE0008DF8050002229046009B83F0080353EAFA
:103CF0000A030AD15CEA010201D1620705D530222C
:103D00008DF804204FF001087F1E582804D034A0FD
:103D100003900EA802900DE036A0F9E753466046E6
:103D2000009AFCF7B6FB84460398825C0298401E1A
:103D3000029002705CEA0100F0D1029806A9081A0C
:103D400000F1200A600702D524F4803400E0012746
:103D5000574502DDA7EB0A0000E0002000EB0A0156
:103D6000009005984144401A0590E00306D45B4654
:103D70002146179A059800F0B3F90544002706E09C
:103D800001A85A46C05D179990476D1C7F1C474596
:103D9000F6DBE0030CD55B462146179A059800F048
:103DA0009FF9054404E030205A46179990476D1C4E
:103DB0000099481E00900029F5DC08E0029802995D
:103DC0005A460078491C0291179990476D1CBAF128
:103DD0000001AAF1010AF1DC65E1000009280100F7
:103DE0003031323334353637383961626364656671
:103DF0000000000030313233343536373839414233
:103E0000434445460000000000F058F90544761C84
:103E1000307800287FF4ECAD19B02846BDE8F08F6B
:103E2000620700D4062709F1070222F0070CFCE81C
:103E30000223E14603F000485FEA080C02D00FF2CB
:103E4000702C0DE05FEA045C02D50FF2682C07E0ED
:103E50005FEAC47C02D00FF2602C01E0AFF2700C7C
:103E60004FF0FF3823F00043CDF850C065280CD048
:103E700006DC452809D046281DD047283DD13DE025
:103E8000662818D067287ED138E00021112F01DB89
:103E9000112000E0781CCDE9000106A90EA8FFF76B
:103EA000EDFCDDE90F010E9A03910021009207F16C
:103EB000010A04914DE04FF000400097CDE9011058
:103EC00006A90EA8FFF7DAFCDDE90F0203920E9BAC
:103ED00011990022DDF80CA00093049211B9791C0D
:103EE00000EB010AB7EB0A0004D4C0F1FF3007F180
:103EF000010A0490AAEB0700019044E0012F00DAC8
:103F000001270021112F01DD112000E03846CDE905
:103F1000000106A90EA8FFF7B1FCDDE90F010E9A1A
:103F20000391002104910092BA4621070CD4039911
:103F3000514500DA8A46BAF1010F05DD009AAAF16F
:103F40000101515C302908D0B84202DA10F1040FA7
:103F500006DA0121CDE9011015E0AAF10101E9E736
:103F6000002805DC049901440491AAEB000102E059
:103F7000411C514500DD8A460499401A401C0190BD
:103F80004FF000400290200704D40198504501DB17
:103F9000CDF8048000208DF84F0002980DF14F07F6
:103FA000B0F1004F25D02B200E9002984FF0020860
:103FB00000280CDA404202902D200E9007E00A21E2
:103FC0000298FCF750FA3031029007F8011DB8F161
:103FD0000001A8F10108F2DC02980028EFD1791E57
:103FE0000E980870307800F0200040F0450007F887
:103FF000020D12A8C01B00F107081498007800B148
:10400000012000EB0A01019801EBE07105984144A1
:10401000401A401E0590E00306D45B462146179ADD
:10402000059800F05DF805441498007818B15A46D8
:10403000179990476D1CE00324D55B462146179ADB
:10404000059800F04DF805441CE00498002807DBB3
:10405000DDE90301884203DD0098405C179901E027
:10406000179930205A469047049805F10105401CE5
:1040700004900198401E019004D12E205A461799B1
:1040800090476D1CBAF10001AAF1010ADDDC05E0E0
:1040900017F8010B5A46179990476D1CB8F10001AB
:1040A000A8F10108F4DC5B462146179A0598ABE6B7
:1040B0002D0000002B000000200000002DE9F04141
:1040C000044600251E461746880404D405E03946F8
:1040D0002020B0476D1C641EF9D52846BDE8F0814C
:1040E0002DE9F041044600251E469046C80301D53F
:1040F000302700E02027880404D505E041463846F3
:10410000B0476D1C641EF9D52846BDE8F0810A68E9
:10411000531C0B60107070470146114A4A43D20885
:104120004FF0E0235A6100229A611A46126942F068
:1041300001021A6100BF4FF0E022106900F0010295
:104140001AB100F48032002AF5D04FF0E022126953
:1041500022F001024FF0E0231A6100229A617047B9
:1041600040190100014601EBC10222F060424FF00C
:10417000E0235A6100229A611A46126942F0010254
:104180001A6100BF4FF0E022106900F001021AB17D
:1041900000F48032002AF5D04FF0E022126922F0BC
:1041A00001024FF0E0231A6100229A61704700007B
:1041B00070B504460D4600BF80210548FEF76EFE2F
:1041C0000028F9D0A1B20248FEF735FF204670BDA5
:1041D000003801404FF4E15141F28830FEF74CFCC9
:1041E00041F61F416320FEF7C9FC4FF4E130FFF7B1
:1041F00011F9FDF789FAFCF71FFDFDF785F9FCF7CA
:104200003FFBFCF7E1FAFEF769FBFDF76BFE4FF4AD
:10421000E160FFF781FF0020FFF74CF84FF42F70AB
:10422000FFF77AFF0120FFF745F8FEF7A7F8FEF742
:104230002BFFFEF70BFFFDF7D7FB032307A201219E
:104240000A20FDF7F9FC022205210A20FDF76EFC89
:1042500002E003A000F008F8FBE700006A796D00B7
:104260003131310D0A0D0A000FB438B505A80090A0
:104270000B48009A0499FFF7DFFA002000900848E5
:10428000FBF762FF85B2002405E00549085DFFF7F2
:10429000A9F8601C84B2AC42F7DB38BC5DF814FBB3
:1042A0001C0E00200000000000000000002F000095
:1042B00000000700070000147F147F1400242A7FE9
:1042C0002A12006264081323003649552250000068
:1042D0000503000000001C224100000041221C00D8
:1042E0000014083E08140008083E0808000000A05A
:1042F0006000000808080808000060600000002056
:1043000010080402003E5149453E0000427F400033
:10431000004261514946002141454B3100181412B9
:104320007F10002745454539003C4A494930000186
:104330007109050300364949493600064949291ED5
:104340000000363600000000563600000008142237
:104350004100001414141414000041221408000237
:104360000151090600324959513E007C1211127C5C
:10437000007F49494936003E41414122007F414189
:10438000221C007F49494941007F09090901003E7B
:104390004149497A007F0808087F0000417F4100B9
:1043A000002040413F01007F08142241007F40402F
:1043B0004040007F020C027F007F0408107F003E17
:1043C0004141413E007F09090906003E4151215EFD
:1043D000007F091929460046494949310001017FFA
:1043E0000101003F4040403F001F2040201F003F90
:1043F0004038403F00631408146300070870080742
:1044000000615149454300007F41410000552A5554
:104410002A55000041417F000004020102040040CF
:1044200040404040000001020400002054545478F1
:10443000007F484444380038444444200038444411
:10444000487F00385454541800087E0901020018AF
:10445000A4A4A47C007F080404780000447D4000EC
:10446000004080847D00007F102844000000417FD0
:104470004000007C04180478007C080404780038AC
:104480004444443800FC242424180018242418FC34
:10449000007C0804040800485454542000043F449D
:1044A0004020003C4040207C001C2040201C003C60
:1044B0004030403C004428102844001CA0A0A07CB0
:1044C000004464544C4414141414141400000000E8
:1044D000000000000000000000000000000000F8E4
:1044E00000000000000000333000000000100C0647
:1044F000100C0600000000000000000040C07840E2
:10450000C0784000043F04043F040400007088FCAD
:1045100008300000001820FF211E0000F008F00005
:10452000E018000000211C031E211E0000F0088876
:10453000700000001E2123241927211010160E00E0
:10454000000000000000000000000000000000E08B
:1045500018040200000000071820400000020418A0
:10456000E00000000040201807000000404080F0FC
:10457000804040000202010F01020200000000F032
:10458000000000000101011F010101000000000006
:104590000000000080B0700000000000000000007B
:1045A0000000000000010101010101010000000004
:1045B000000000000030300000000000000000009B
:1045C00080601804006018060100000000E0100878
:1045D0000810E000000F102020100F00001010F84D
:1045E000000000000020203F20200000007008088C
:1045F000088870000030282422213000003008880C
:10460000884830000018202020110E000000C02033
:1046100010F8000000070424243F240000F8088854
:10462000880808000019212020110E0000E01088E1
:1046300088180000000F112020110E000038080813
:10464000C83808000000003F000000000070880823
:1046500008887000001C222121221C0000E01008A4
:104660000810E0000000312222110F00000000C0FD
:10467000C00000000000003030000000000000809A
:10468000000000000000806000000000000080408A
:1046900020100800000102040810200040404040A3
:1046A00040404000040404040404040000081020F6
:1046B000408000000020100804020100007048083B
:1046C0000808F0000000003036010000C030C828A3
:1046D000E810E0000718272423140B000000C0385E
:1046E000E0000000203C23020227382008F88888D8
:1046F00088700000203F202020110E00C0300808E4
:1047000008083800071820202010080008F80808BA
:104710000810E000203F202020100F0008F88888B3
:10472000E8081000203F20202320180008F888887F
:10473000E8081000203F200003000000C0300808F7
:104740000838000007182020221E020008F8080080
:104750000008F808203F210101213F20000808F847
:10476000080800000020203F20200000000008086A
:10477000F8080800C08080807F00000008F888C02A
:1047800028180800203F20012638200008F80800DB
:1047900000000000203F20202020300008F8F80012
:1047A000F8F80800203F003F003F200008F830C024
:1047B0000008F808203F200007183F00E010080814
:1047C0000810E0000F10202020100F0008F8080843
:1047D0000808F000203F210101010000E010080856
:1047E0000810E0000F18242438504F0008F888887B
:1047F00088887000203F2000030C3020007088085B
:10480000080838000038202121221C00180808F868
:10481000080818000000203F2000000008F80800E9
:104820000008F808001F202020201F0008788800BA
:1048300000C83808000007380E010000F80800F82A
:104840000008F800033C0700073C030008186880D4
:104850008068180820302C03032C30200838C8004A
:10486000C83808000000203F200000001008080899
:10487000C83808002038262120201800000000FE3B
:10488000020202000000007F40404000000C30C0E7
:1048900000000000000000010638C0000002020213
:1048A000FE000000004040407F00000000000402C5
:1048B00002020400000000000000000000000000F0
:1048C00000000000808080808080808000020204E0
:1048D00000000000000000000000000000008080D8
:1048E000808000000019242222223F2008F8008046
:1048F00080000000003F112020110E000000008009
:1049000080800000000E1120202011000000008097
:104910008088F800000E112020103F2000008080C9
:1049200080800000001F222222221300008080F0DD
:10493000888888180020203F202000000000808008
:1049400080808000006B94949493600008F800804D
:1049500080800000203F210000203F2000809898A8
:10496000000000000020203F202000000000008008
:104970009898000000C08080807F000008F8000048
:1049800080808000203F24022D302000000808F89D
:10499000000000000020203F202000008080808058
:1049A00080808000203F20003F20003F80800080EA
:1049B00080800000203F210000203F2000008080F8
:1049C00080800000001F202020201F0080800080A9
:1049D0008000000080FFA12020110E000000008058
:1049E00080808000000E112020A0FF808080800049
:1049F0008080800020203F21200001000000808076
:104A0000808080000033242424241900008080E06A
:104A1000808000000000001F202000008080000037
:104A200000808000001F202020103F208080800018
:104A30000080808000010E30080601008080008028
:104A4000008080800F300C030C300F00008080004D
:104A5000808080000020312E0E3120008080800078
:104A60000080808080818E70180601000080808028
:104A7000808080000021302C2221300000000000C6
:104A8000807C020200000000003F40400000000067
:104A9000FF00000000000000FF0000000002027C98
:104AA000800000000040403F0000000000060101BF
:104AB00002020404000000000000000012010002D5
:104AC0000200004083044057000201020301090272
:104AD0004300020100C0320904000001020201008B
:104AE000052400100105240100010424020205240C
:104AF000060001070582030800FF09040100020AFD
:104B00000000000705030240000007058102400085
:104B100000040309042603530054004D0069006398
:104B20000072006F0065006C006500630074007225
:104B3000006F006E0069006300730032035300547D
:104B4000004D0033003200200056006900720074EE
:104B500000750061006C00200043004F004D0020F4
:104B60000050006F00720074002000200000000060
:104B7000904B000800000020FC050000880600089B
:104B8000544D0008FC0500209C1000006C38000803
:104B9000412D010203040410090607080902040656
:104BA00008001011404454545556D47C5456555462
:104BB0005444400010110282829A565322222252FB
:104BC0004E42820202180D040444445F444444C42B
:104BD000C45F0401011328083048444241414001A8
:104BE0000214701AFE5D1C2222E20402153E000D22
:104BF00013FF4121110101030D112141F116060A94
:104C0000FE0AC612E012F05AF8504D7DBBC7EF0104
:104C1000053EC7BB7DFE300D080CFEFE0C08206073
:104C2000FEFE60208F7848FE82BABA0309135EAA9E
:104C30000101017E6CFEFF0301CBFFFF0F39BBECCE
:104C4000C0C0C0271918F92701392975990B6CFFC5
:104C5000FF0C01491A0C22E1E1E12701396C0F1F19
:104C60001801FB1F0F0F092E270136168C42221246
:104C70000C26FC020202FC3304FE16205844FE40BF
:104C80002A10015912491E4912A92A0123300A2467
:104C9000A42E24E4242EA424C00AF84A4C48F84840
:104CA0004C4AF82A01013907490D5915991F9918DD
:104CB000091412712BC020A1AB20C00A11300A12B6
:104CC0000A07027F02070A121E0B0A0A0A7F040261
:104CD000560B980A1F2040404050205F800A311434
:104CE0001A03531254124D12330221321301110CC4
:104CF0001C088117040A1191245133C20112081AA9
:104D000004071345371408FD351B0825081A41040C
:104D100013ED341B08D5101ABD041A65041A51048A
:104D20001A950441324029440B18E536741AFD1CCB
:104D300013BC4A3308121ACE08324313114B3308FE
:104D4000041A150832261A3B0829E213D8046B20EE
:044D50001AD001274D
:04000005080000ED02
:00000001FF
