:020000040800F2
:100000001804002001010008090100080B01000884
:100010000D0100080F010008110100080000000098
:1000200000000000000000000000000013010008B4
:100030001501000800000000170100081901000860
:100040001B0100081B0100081B0100081B01000820
:100050001B0100081B0100081B0100081B01000810
:100060001B0100081B0100081B0100081B01000800
:100070001B0100081B0100081B0100081B010008F0
:100080001B0100081B0100081B0100081B010008E0
:100090001B0100081B0100081B0100081B010008D0
:1000A0001B0100081B0100081B0100081B010008C0
:1000B0001B010008A90B00081B0100081B01000818
:1000C0001B0100081B0100081B0100081B010008A0
:1000D0001B010008290D00081B0100081B01000876
:1000E0001B0100081B0100081B010008DFF80CD0F1
:1000F00000F018F8004800474B10000818040020D2
:100100000648804706480047FEE7FEE7FEE7FEE7B1
:10011000FEE7FEE7FEE7FEE7FEE7FEE7490B000825
:10012000ED000008064C074D06E0E06840F00103D2
:1001300094E8070098471034AC42F6D3FFF7DAFF93
:1001400080100008A010000821B1826842F001026E
:10015000826003E0826822F0010282607047000042
:1001600010B504461248844208D10121401500F020
:1001700075FB0021601500F071FB17E00D4884420B
:1001800008D10121001500F069FB0021201500F0C5
:1001900065FB0BE00848844208D10121C80300F048
:1001A0005DFB00214FF4004000F058FB10BD000043
:1001B0000024014000280140003C0140014600208D
:1001C0008A6802F004020AB1012000E000207047B2
:1001D000014600208A6802F008020AB1012000E00E
:1001E0000020704730B502460020002350680F4CB5
:1001F00020400D790C6844EA052420435060906843
:100200000B4C2040D1E902542C434D7944EA45047B
:1002100020439060D06A20F470000C7C641EE4B22D
:10022000234340EA0350D06230BD0000FFFEF0FFE0
:10023000FDF7F1FF00B587B001214FF4017000F028
:10024000FDFA0121042000F0F9FA00208DF81B00CE
:100250000220ADF8180003208DF81A0006A91C48EA
:1002600000F0E7F802211A4800F0C1F94FF400400D
:1002700000F0C8FA1748FFF773FF00208DF8090057
:1002800004904FF4602003900020019001208DF82D
:10029000140000208DF8080001A90E48FFF7A2FF06
:1002A00001210C48FFF750FF0A4800F015F800BF85
:1002B0000848FFF78DFF0028FAD1064800F011F832
:1002C00000BF0448FFF77AFF0028FAD107B000BD4D
:1002D0000008014000240140816841F0080181606C
:1002E0007047816841F004018160704710B50121B9
:1002F000462000F008F81021462000F004F8B42051
:1003000000F072F810BD70B505460C4600F002FA18
:10031000284600F0C9F900F06DF900B107E0204669
:1003200000F0C2F900F066F900B100E000BF00F093
:1003300011FA70BD10B5002404E0601CC4B20120A5
:1003400000F05EFE0D48006808B1502CF5DB502C23
:1003500001DB012010BD002404E0601CC4B20120B8
:1003600000F04EFE0548006808B9642CF5DB642CEB
:1003700001DB0120EEE70020ECE7000024812142B0
:1003800008B50121082000F059FA4FF40070ADF8CB
:10039000000014208DF8030003208DF80200694648
:1003A000064800F046F84FF40071044800F01FF9C9
:1003B00000F006F8FFF7BEFF08BD0000000C01408A
:1003C00010B5002006490860142000F0F3FD01205C
:1003D0000449C1F8A4011E2000F012FE10BD000067
:1003E000A481214200802142014601EBC10222F09A
:1003F00060424FF0E0235A6100229A611A46126966
:1004000042F001021A6100BF4FF0E022106900F0D3
:1004100001021AB100F48032002AF5D04FF0E02238
:10042000126922F001024FF0E0231A6100229A6162
:1004300070472DE9F04102460025002600200023E8
:100440000024002791F803C00CF00F0591F803C0B9
:100450000CF0100CBCF1000F03D091F802C04CEA74
:10046000050591F800C0BCF1000F31D014680020E0
:100470002BE04FF0010C0CFA00F3B1F800C00CEACD
:1004800003069E4220D183004FF00F0C0CFA03F7B5
:10049000BC4305FA03FC4CEA040491F803C0BCF128
:1004A000280F06D14FF0010C0CFA00FCC2F814C062
:1004B0000AE091F803C0BCF1480F05D14FF0010CE0
:1004C0000CFA00FCC2F810C0401C0828D1D31460FC
:1004D000B1F800C0BCF1FF0F34DD546800202EE0FD
:1004E00000F1080C4FF0010808FA0CF3B1F800C055
:1004F0000CEA03069E4221D183004FF00F0C0CFA48
:1005000003F7BC4305FA03FC4CEA040491F803C06A
:10051000BCF1280F05D100F1080C08FA0CF8C2F85C
:10052000148091F803C0BCF1480F07D100F1080C0A
:100530004FF0010808FA0CF8C2F81080401C082897
:10054000CED35460BDE8F081F0B50A460023002404
:100550000021002500F00046B6F1004F02D11D4EEB
:10056000F16901E01B4E7168C0F3034583B200F4EA
:100570004016B6F5401F08D121F07061154E76681F
:1005800026F07066134F7E6012E000F48016B6F518
:10059000801F06D1032606FA05F4A14341F07061DD
:1005A00006E0460D360103FA06F6B14341F07061EC
:1005B00022B1460D360103FA06F6314300F000463B
:1005C000B6F1004F02D1034EF16101E0014E7160BE
:1005D000F0BD0000000001400246002093680B407F
:1005E0000BB1012000E000207047416170470161BC
:1005F0007047000010B5002400F0D4F90520FFF783
:10060000F3FE4FF480610E48FFF7F1FF0520FFF77E
:10061000EBFE07E0601CC4B2FA2C03DB00F09AF892
:10062000012010BD4FF400610548FFF7D5FF0028F9
:10063000F0D14FF480610248FFF7D7FF0020F0E7C8
:10064000000C014008B50121082000F0F7F8012155
:10065000084600F0F3F801211148FFF775FF4FF449
:100660000060ADF8000010208DF8030003208DF825
:10067000020069460B48FFF7DCFE4FF48060ADF8DE
:10068000000069460748FFF7D4FE4FF48061054833
:10069000FFF7ADFF4FF400610248FFF7A8FF08BD68
:1006A00000023000000C014070B5044600F08CF9E7
:1006B0004FF480611648FFF798FF002524E004F00E
:1006C000800028B14FF400611148FFF790FF04E06B
:1006D0004FF400610E48FFF788FF6006040E052006
:1006E000FFF782FE4FF480610948FFF780FF052085
:1006F000FFF77AFE4FF480610548FFF776FF05208B
:10070000FFF772FE681CC5B2082DD8DB70BD000073
:10071000000C014010B500F057F94FF400610C488F
:10072000FFF765FF4FF480610948FFF760FF052080
:10073000FFF75AFE4FF400610548FFF756FF05200A
:10074000FFF752FE4FF480610148FFF74EFF10BDE6
:10075000000C014010B500F037F94FF480610C48EF
:10076000FFF743FF4FF400610948FFF73EFF4FF4E6
:1007700080610748FFF73BFF0520FFF735FE4FF488
:1007800000610348FFF733FF0520FFF72DFE10BD82
:10079000000C014070B5002100230F22C47804B37F
:1007A000154C246804F4E064C4F5E064210AC1F146
:1007B0000403CA40447804FA03F1847814402143C6
:1007C00009010E4C0678A155047804F01F05012498
:1007D000AC4005786D11AD0005F1E025C5F800418C
:1007E00009E0047804F01F050124AC40044D0678AC
:1007F000761145F8264070BD0CED00E000E400E005
:1008000080E100E001460020034A506820F44040A7
:1008100008435060704700000010024029B1064AAA
:10082000D2690243044BDA6104E0034AD26982438D
:10083000014BDA61704700000010024029B1064AFE
:1008400092690243044B9A6104E0034A926982432D
:10085000014B9A61704700000010024029B1064A1E
:10086000D2680243044BDA6004E0034AD268824350
:10087000014BDA60704700000010024030B50021E3
:100880000022002400232D4D6D6805F00C0121B1DC
:10089000042905D0082923D105E0294D056022E06F
:1008A000274D05601FE0254D6D6805F47012234D3E
:1008B0006D6805F48034022505EB92421CB9214D88
:1008C000554305600BE01D4D6D6805F400351DB105
:1008D0001C4D5543056002E0194D5543056002E08B
:1008E000174D056000BF00BF144D6D6805F0F001A5
:1008F0000909154D6B5C0568DD4045600F4D6D685D
:1009000005F4E061090A104D6B5C4568DD408560C7
:100910000A4D6D6805F46051C90A0B4D6B5C456862
:10092000DD40C560054D6D6805F44041890B074DFC
:100930006B5CC568B5FBF3F5056130BD0010024086
:1009400000127A0000093D00000000201000002085
:1009500008B501210820FFF771FF8020ADF80000E5
:1009600003208DF8020010208DF80300694602482C
:10097000FFF75FFD08BD0000000C014010B58021AD
:100980000748FFF734FE4FF47A7000F013FB802124
:100990000348FFF72AFE4FF47A7000F00BFB10BDFE
:1009A000000C014008B54FF40060ADF800000420D1
:1009B0008DF8030003208DF8020069460148FFF717
:1009C00038FD08BD000C014008B54FF40060ADF8DB
:1009D000000010208DF8030003208DF80200694606
:1009E0000148FFF726FD08BD000C014010B500F0DE
:1009F00001F810BD0CB5002001900090334800684C
:100A000040F480303149086000BF3048006800F48D
:100A1000003000900198401C0190009818B901988E
:100A2000B0F5A06FF1D12948006800F4003010B192
:100A30000120009001E0002000900098012843D19F
:100A40002348006840F0100021490860084600680B
:100A500020F0030008600846006840F002000860CB
:100A60001A48406819494860084640684860084686
:100A7000406840F4806048600846406820F47C107C
:100A800048600846406840F4E8104860084600683E
:100A900040F08070086000BF0C48006800F00070F3
:100AA0000028F9D00948406820F003000749486051
:100AB0000846406840F00200486000BF03484068B4
:100AC00000F00C000828F9D10CBD00000010024015
:100AD0000020024008B501210820FFF7AFFE1020DA
:100AE0008DF8030003208DF802000820ADF8000007
:100AF00069461448FFF79DFC1020ADF800006946D8
:100B00001048FFF796FC2020ADF8000069460D481C
:100B1000FFF78FFC4020ADF8000069460948FFF759
:100B200088FC08210748FFF760FD10210548FFF702
:100B30005CFD20210348FFF758FD40210148FFF7E5
:100B400054FD08BD000C014010B51348006840F08A
:100B500001001149086008464068104908400E49E4
:100B60004860084600680E4908400B49086008467E
:100B7000006820F4802008600846406820F4FE00E9
:100B800048604FF41F008860FFF730FF4FF00060AF
:100B90000449086010BD0000001002400000FFF88A
:100BA000FFFFF6FE08ED00E010B50121064800F059
:100BB0004EF840B10121044800F03AF803480078AB
:100BC000401C0249087010BD0004004014000020C1
:100BD0007FB505460C4601210220FFF71FFEADF848
:100BE0000850ADF804400020ADF80600ADF80A004A
:100BF00001A90E4800F046F8012211460B4800F00A
:100C000037F81D208DF8000000208DF8010003202A
:100C10008DF8020001208DF803006846FFF7BAFD49
:100C20000121024800F007F87FBD000000040040E9
:100C3000CA430282704721B1028842F00102028059
:100C400004E002884FF6FE731A400280704730B508
:100C50000246002000230024158A05EA0103958935
:100C600005EA010413B10CB1012000E0002030BD01
:100C70001AB183890B43838102E083898B4383818B
:100C800070470000002202881D4B98420ED01D4B79
:100C900098420BD0B0F1804F08D01B4B984205D042
:100CA0001A4B984202D01A4B984204D14FF68F73D8
:100CB0001A404B881A43174B984207D0164B98425C
:100CC00004D04FF6FF431A40CB881A4302808B882A
:100CD00083850B8803850A4B98420BD0094B9842B9
:100CE00008D00E4B984205D00D4B984202D00D4BC8
:100CF000984201D10B7A038601238382704700005A
:100D0000002C014000340140000400400008004075
:100D1000000C004000100040001400400040014062
:100D2000004401400048014010B540F225510548FB
:100D300000F025F8012804D140F22551014800F0C7
:100D400003F810BD0038014010B50022002340F622
:100D50006A14A14200D100BF0A1201249440A3B238
:100D6000DC43048010BD21B1828942F400528281AB
:100D700004E082894DF6FF731A408281704770B596
:100D80000246002400230025002040F66A16B142E6
:100D900000D100BFC1F3421501F01F03012606FA7E
:100DA00003F3012D02D19689334006E0022D02D1D2
:100DB000168A334001E0968A33400C12012606FA67
:100DC00004F41688344013B10CB1012000E0002077
:100DD00070BDF0B50346002400260025002040F633
:100DE0006A17B94200D100BF1846C1F3421401F09E
:100DF0001F06012707FA06F5012C01D10C3004E08B
:100E0000022C01D1103000E014301AB107682F43D2
:100E1000076002E00768AF430760F0BD2DE9F047C7
:100E200086B005460E460024A24600BFA146002714
:100E3000B08900B100BF2F462C8A4CF6FF700440E9
:100E4000F08804432C82AC894EF6F3100440B0883D
:100E500031890843718908430443AC81AC8A4FF659
:100E6000FF400440B0890443AC8201A8FFF706FDAF
:100E70001F48874202D1DDF810A001E0DDF80CA088
:100E8000A88900F4004040B10AEBCA0000EB0A1048
:100E900031684900B0FBF1F807E00AEBCA0000EB4B
:100EA0000A1031688900B0FBF1F86420B8FBF0F05B
:100EB00004012009642101FB1089A88900F4004085
:100EC00040B1322000EBC900B0FBF1F000F00700A8
:100ED000044308E0322000EB09106421B0FBF1F07C
:100EE00000F00F0004432C8106B0BDE8F08700003D
:100EF0000038014010B586B00446012144F20400D8
:100F0000FFF79CFC4FF40070ADF8140001208DF841
:100F1000160018208DF8170005A91C48FFF789FA5C
:100F20004FF48060ADF8140004208DF8170005A977
:100F30001648FFF77EFA01940020ADF80800ADF8DE
:100F40000A00ADF80C00ADF810000C20ADF80E0052
:100F500001A90F48FFF762FF012240F225510C481A
:100F6000FFF737FF25208DF8000002208DF80100E3
:100F70008DF8020001208DF803006846FFF70AFC97
:100F800001210348FFF7EFFE06B010BD0008014045
:100F90000038014002E008C8121F08C1002AFAD137
:100FA00070477047002001E001C1121F002AFBD1E9
:100FB000704700000146114A4A43D2084FF0E0232F
:100FC0005A6100229A611A46126942F001021A61BE
:100FD00000BF4FF0E022106900F001021AB100F4E6
:100FE0008032002AF5D04FF0E022126922F001028F
:100FF0004FF0E0231A6100229A6170474019010006
:10100000014601EBC10222F060424FF0E0235A6139
:1010100000229A611A46126942F001021A6100BF69
:101020004FF0E022106900F001021AB100F48032A2
:10103000002AF5D04FF0E022126922F001024FF0B1
:10104000E0231A6100229A6170474FF4E15141F2A6
:101050008830FFF7BDFD4FF4E130FFF74BFFFFF79E
:101060008FF9FFF7EFFAFFF741F9FFF7E3F8FFF722
:1010700031FDFFF76DFC01E0FFF780FCFCE70000AD
:10108000A01000080000002018000000940F0008C5
:10109000B81000081800002000040000A40F000889
:1010A000000000000102030401020304060708090E
:0810B000020406080000000024
:04000005080000ED02
:00000001FF
