:020000040800F2
:100000001017002001010008191C000847170008FC
:10001000351B000851130008D7300008000000000D
:10002000000000000000000000000000212800087F
:10003000D51400080000000049260008E52A000841
:100040001B0100081B0100081B0100081B01000820
:100050001B0100081B0100081B0100081B01000810
:100060001B0100081B0100081B0100081B01000800
:100070001B0100081B0100081B0100081B010008F0
:100080001B0100081B0100081B0100081B010008E0
:100090001B0100081B0100081B0100081B010008D0
:1000A0001B0100081B0100081B0100081B010008C0
:1000B0001B0100081B010008492B00081B01000858
:1000C0001B0100081B0100081B0100081B010008A0
:1000D0001B010008552D0008752D00081B010008A4
:1000E0001B0100081B0100081B010008DFF80CD0F1
:1000F00000F05CFD004800470D3F0008101700208D
:100100000648804706480047FEE7FEE7FEE7FEE7B1
:10011000FEE7FEE7FEE7FEE7FEE7FEE7E92A000866
:10012000ED00000840EA01039B0703D009E008C97D
:10013000121F08C0042AFAD203E011F8013B00F8AC
:10014000013B521EF9D27047D2B201E000F8012BF8
:10015000491EFBD270470022F6E710B513460A4647
:1001600004461946FFF7F0FF204610BD30B505469E
:100170002A460B4612F8010B13F8014B08B1A042B6
:10018000F8D01CB1002802D06D1CF1E7284630BD24
:100190000FB400B58DB010A909900B9000914FF0ED
:1001A000FF300A9000200C90054806900548079003
:1001B0006A4609A80F9900F0E5FB0DB05DF814FB45
:1001C000A1090008BF0900082DE9FF5F1D464FF097
:1001D000FF3BD5E9014691465F464FF00008A9690B
:1001E0007F1C01988847296A824688470028F6D1F3
:1001F000BAF1FF3F0CD024F4C064002E19DD600674
:1002000014D5BAF12B0F09D0BAF12D0F0ED103E09E
:10021000584604B0BDE8F09F44F48064A9697F1C8F
:1002200001988847761E8246002E02DDBAF1300F13
:1002300003D0B9F1000F26D032E0A969761E44F44C
:1002400000747F1C019888478246002E05DDBAF1B4
:10025000780F06D0BAF1580F03D0B9F1000F10D0C3
:100260001EE0B9F1000F02D0B9F1100F18D1A96941
:10027000761E24F400747F1C019888478246102063
:1002800002E0082000E00A20814609E008FB090896
:10029000A969761E44F400747F1C01988847824641
:1002A000002E05DD4946504600F058FB0028EDDAE7
:1002B000E96901988847A00502D46FF00100A8E71A
:1002C000E00725D1600613D5600502D5C8F100000E
:1002D00000E0404629680A1D2A600968220501D508
:1002E000087015E0220701D5088011E008600FE0D2
:1002F0002868011D29600068210502D580F800806A
:1003000006E0210702D5A0F8008001E0C0F80080D7
:1003100038467EE7F0B480EA0102D40F4200B2EB27
:10032000410F02D20246084611464A0042D0C30D90
:10033000DDB2C1F3C752AD1A202D35DAC1F3160173
:1003400041F4000204B15242C5F1200602FA06F15E
:100350002A411044B3EBD05F23D0C4B1012DA0EBF0
:10036000C35009DCF0BC4FF0004202EAC352DBB2DA
:1003700000F5000000F03DBB400000F1807000EB94
:10038000C350A0F1807040EAD170490009E04908EB
:1003900041EAC071A0EBC35000F50000400800EB3B
:1003A000C350F0BC00F01CBB6142012202EB4101D2
:1003B000001BF6E7F0BC704781F00041AAE780F02F
:1003C0000040A7E780EA010210B502F000434000B8
:1003D00022D04A001FD0010E01EB1261C0F356007B
:1003E000C2F3560240F4000042F40002A0FB0220D7
:1003F00000047F39140400D0401C50EA124001D49C
:100400004000491EC2B20C0604EBD010401C40084C
:10041000802A02D003E0002010BD20F00100002956
:1004200000DA0020184310BD30B480EA010202F067
:10043000004530F0004221F0004013D090B1C30DD0
:10044000D40DC2F31601C0F31600E41A41F4000102
:1004500040F400027D34914201D3641C00E0490065
:10046000002C02DA30BC002070474FF4000000235B
:10047000914201D3891A034340084FEA4101F7D161
:1004800051B1914202D14FF0004105E002D24FF04C
:10049000010101E06FF0010103EBC450284430BCBE
:1004A00000F09EBA2DE9FE4F804681EA0300C00F9E
:1004B0000C46009021F0004123F00045B8EB02000B
:1004C000A94105D24046214690461C460B460246AD
:1004D00023F00040104347D0270DC7F30A00C3F3B1
:1004E0000A510290401A019040286BDAC3F31300BE
:1004F00040F4801B0098924620B10023D2EB030AFF
:1005000063EB0B0B01985946C0F14002504600F0D6
:10051000F4F906460D4650465946019A00F00CFA89
:1005200010EB08006141002487EA115284EAE77366
:100530001A4340D0009A62B3019A012A4FEA075247
:1005400015DC001B61EB02014FF0004202EA07528A
:10055000CDE90042001C41F5801132462B4600F0E7
:1005600083FA03B0BDE8F08F40462146F9E7001B4F
:1005700061EB0201001C41F5801300185B4120185B
:10058000A2F5001747EB030140EAD570B6196D419B
:1005900011E06D084FEA360645EAC0754FEA07528A
:1005A000001B61EB0201001C41F5801149084FEA74
:1005B00030000019514132462B4603B0BDE8F04FE0
:1005C00000F045BA0098012240000023D0EB02025F
:1005D00063EBE073009821464FEAE074B8EB00004B
:1005E00061EB0401E9E783F000435BE781F0004140
:1005F00058E72DE9FE4F81EA030404F0004421F09E
:10060000004100944FF0000B23F0004350EA010436
:100610005ED052EA03045BD0C3F30A54C1F30A5517
:100620002C44A4F2F3340194A0FB0254C1F313014F
:1006300041F48011C3F3130343F4801301FB02441C
:1006400000FB034E840A970A44EA815447EA835721
:10065000A4FB076802958D0A05FB07854FEA932CDA
:1006600004FB0C542705029D4FEA065847EA16374B
:10067000B5EB08056EEB070C870E920E47EA811763
:1006800042EA8312A7FB0201B6EB0B0164EB000404
:100690002B0D43EA0C335E1844EB1C50DA465146EE
:1006A000E7FB0201C5F313044FEA0B3343EA14538B
:1006B0004FEA0432019C43EA0603A4F10C040294BD
:1006C000009CCDE900B400F0CFF903B0BDE8F08F95
:1006D00000200146F9E72DE9F04D81EA030404F01A
:1006E000004B21F0004514464FF0000A23F0004172
:1006F00050EA050220D054EA01021DD0C5F30A5782
:100700000246C5F31303C1F31300C1F30A5640F4C4
:10071000801543F48013A7EB0608101BD64608F299
:10072000FD3873EB050002D308F1010801E09218CF
:100730005B41B8F1000F03DA00200146BDE8F08DFF
:1007400000204FF48011064684460EE0171B73EB21
:10075000050705D3121B63EB050306434CEA010CA6
:1007600049084FEA300092185B4150EA0107EDD189
:1007700052EA030012D082EA040083EA050108432A
:1007800005D0101BAB4106D20122002306E0002257
:100790004FF0004302E06FF0010253101AEB060025
:1007A0004CEB085110EB0A0041EB0B01BDE8F04D9A
:1007B00000F04DB9C10F80EAE0700844CA079623E3
:1007C000002100F016B996230022114600F011B95D
:1007D00070B5C1F30A5201F000450024C1F31301C2
:1007E00040F2FF3341F480119A4201DA002070BDDB
:1007F00040F233439A42A2F2334203DC524200F009
:100800008BF800E090402C43F1D0404270BD00F0E6
:10081000004230F000400AD0C10D01F56071C0F314
:10082000160042EA0151C2084007114370470020F8
:100830000146704701F0004330B421F0004150EA16
:10084000010206D00A0DA2F56072C1F31301002A5D
:1008500002DC30BC00207047440F44EAC104C100F0
:10086000E01830BC00EBC25000F0BAB830B50B460F
:10087000014600202022012409E021FA02F59D42D0
:1008800005D303FA02F5491B04FA02F52844151EA4
:10089000A2F10102F1DC30BD2DE9F05F0546002038
:1008A00092469B4688460646814640241BE02846E1
:1008B00041464746224600F02FF853465A46C01A92
:1008C000914110D311461846224600F016F82D1A11
:1008D00067EB01084F4622460120002100F00DF889
:1008E00017EB00094E41201EA4F10104DFDC48464D
:1008F00031462A464346BDE8F09F202A04DB203AD1
:1009000000FA02F1002070479140C2F1200320FA62
:1009100003F3194390407047202A04DB203A21FA60
:1009200002F00021704721FA02F3D040C2F1200208
:100930009140084319467047202A06DBCB17203A1E
:1009400041FA02F043EAE07306E041FA02F3D040D4
:10095000C2F1200291400843194670473A2800D25C
:10096000303820F02002412A01D3A2F1370088421A
:1009700001D34FF0FF3070470268114413780160D3
:1009800018467047D1600449516104491162002141
:100990001161114600F022B979090008D10B000855
:1009A000426842B1016811F8013B23B1521EC0E90F
:1009B0000012184670470121C160881E70474268C6
:1009C0005AB1C368016843B983688B4205D0491E98
:1009D000521CC0E90012002070474FF0FF307047F2
:1009E0000029A8BF7047401C490008BF20F0010043
:1009F000704710B4B0FA80FC00FA0CF050EA010421
:100A000004BF10BC704749B1CCF1200421FA04F4B2
:100A100011FA0CF118BF012121430843A3EB0C018B
:100A2000CB1D4FEA00614FEA102042BF002010BCEE
:100A3000704700EBC35010440029A4BF10BC70479E
:100A4000401C490008BF20F0010010BC704710B5E1
:100A5000002B08DA401C41F1000192185B411A4357
:100A600001D120F0010010BD2DE9F04D92469B46CA
:100A700011B1B1FA81F202E0B0FA80F22032904670
:100A8000FFF73BFF04460F4640EA0A0041EA0B012C
:100A900053465A46084313D0114653EA010019D071
:100AA000C8F140025046FFF737FF05460E46504654
:100AB00059464246FFF721FF084305D0012004E0D4
:100AC00020463946BDE8F08D0020054346EAE07631
:100AD0002C4337430A986305E40AA0EB0800002280
:100AE000FD0A44EA47540A3002D500200146E9E7EE
:100AF000010510196941DDE9084500196941BDE8A2
:100B0000F04DA4E770B521F0004303430CD0C1F3CE
:100B10000A550024D5EB040564EB0403D617AD1A7F
:100B2000B34102DB0020014670BD201841EB0251A9
:100B300070BD0EB5C10F80EAE0700844CA070021FD
:100B400040F233438DE80E000A460B46FFF78CFF58
:100B500003B000BDC1F30A52C1F3130140F2FF33E9
:100B600041F480119A4202DA00200146704740F2B7
:100B700033439A42A2F2334202DC5242FFF7CCBE28
:100B8000FFF7BBBE30B5002904DB4FF00044404204
:100B900064EB0101002B04DB4FF00044524264EB94
:100BA0000303994208BF904230BD0000064C074D38
:100BB00006E0E06840F0010394E80700984710342D
:100BC000AC42F6D3FFF796FAB06A0008D06A000884
:100BD000C0B24FF4F05100F0E7B900002DE9F34F37
:100BE0008BB04FF0000801F10C000C464FF0010BE8
:100BF00046460DF1080A019062690121019890476B
:100C000005002DD0252D2CD0216A8847C0B16269FE
:100C1000012101989047216A88470028F7D1411E99
:100C200062690198904700E0761CA1690B9888479B
:100C3000216A88470028F7D1E1690B988847DBE7EC
:100C4000A1690B9888470746A84201D1761CD3E7D3
:100C5000E1690B9888477F1C02D1B8F1000F6FD073
:100C600043E1002762693D463946019890472A28AA
:100C700004D162690121019890470125DFF8809233
:100C80006269012101989047A0F130010A290AD236
:100C90004F45E5DC07EB870100EB4107303FDFD430
:100CA00045F01005ECE7E90601D46FF000476C2829
:100CB0000AD04C2814D0682815D06A280DD0742882
:100CC0001CD07A281AD01DE0626901210198904752
:100CD0006C2802D045F0040514E045F002050DE053
:100CE00045F020050AE062690121019890476828D3
:100CF00002D045F0080505E045F400656269012170
:100D000001989047C4E9015765283DD019DC58285F
:100D100077D00CDC452837D004DC252826D04128A4
:100D200031D131E046282FD047282CD12CE05B2848
:100D30007DD0612828D0632879D0642823D157E05A
:100D4000CDE06F2845D008DC66281DD067281BD071
:100D5000692821D06E2816D127E0702842D0732848
:100D600065D0752844D078280DD14AE0A1690B9848
:100D70008847054625283FF469AFE1690B98884705
:100D80006D1C3FF46AAFB0E023466A466FF0010085
:100D90000B99AFF300809BE045F040006060A8072E
:100DA00023464FF0000233D43BE02068011D216050
:100DB0000068290501D506701EE7290701D50680C0
:100DC0001AE7A90703D5F117C0E9006114E7066027
:100DD00012E745F040006060A80723464FF0080284
:100DE00016D41EE040F60E0125EA0100606016E010
:100DF00045F040006060A80723464FF00A0207D480
:100E00000FE045F040006060A80708D52346102297
:100E10006FF001000B99AFF3008059E007E0234623
:100E200010226FF001000B99FFF7CEF950E04FF060
:100E300000094F464B46632802D05B2806D040E0AD
:100E4000E80601D40120A06001273AE0626901218F
:100E5000019890475E2805D14FF001096269494623
:100E600001989047216939B900210B46524642F852
:100E70002130491C0829FADBB0B3216969B9C117CF
:100E800000EBD1614B110AEB830221F01F01411AE3
:100E900001201368884003431360626901210198AF
:100EA00090475D28E8D1B9F1000F09D000205146E4
:100EB00051F82020D24341F82020401C0828F7DBBD
:100EC00002AB224600976FF001000B99AFF3008050
:100ED00000280CDA401C08D1BBF1000F05D04FF000
:100EE000FF300DB0BDE8F08FFFE74046F9E7E907B6
:100EF00001D108F1010806444FF0000B7CE6000028
:100F0000CCCCCC0C2DE9F04D00231A461B1A8A419B
:100F100003DB00200146BDE8F08DC1F30A52C1F3A6
:100F2000130141F480154FF0000BD10702D10018D6
:100F30006D41521E0027044640F2FF11384601EB76
:100F4000620A3E468046024600204FF48011FFF7B9
:100F5000E3FCC2197141BB1846EB0100B4EB030C72
:100F600075EB000C04D3E41A65EB000517460E463A
:100F7000241908F101006D4180463428E3DDF91998
:100F800046EB0600091BA84103D24FF0FF3213467F
:100F900001E0002213461BEB070046EB0A51BDE8B7
:100FA000F04DFFF754BD00007F2801D9002208E072
:100FB000064A02EB5002C007127800D1120902F073
:100FC0000F0201209040084070470000286A000886
:100FD00070B58D1810F8014B14F0030201D110F810
:100FE000012B231106D110F8013B03E010F8016B2F
:100FF00001F8016B521EF9D1ABB110F8012B04F0CE
:101000000C048A1A0C2C03D0A2EB84129B1C08E05F
:1010100010F8014BA2EB0422F8E712F8014B01F89B
:10102000014B5B1EF9D5A942D4D3002070BD21B17C
:10103000826842F00102826003E0826822F00102CD
:101040008260704710B504461248844208D10121DD
:10105000401501F027FB0021601501F023FB17E08C
:101060000D48844208D10121001501F01BFB00212D
:10107000201501F017FB0BE00848844208D101213C
:10108000C80301F00FFB00214FF4004001F00AFB00
:1010900010BD00000024014000280140003C014038
:1010A000014600208A6802F004020AB1012000E033
:1010B000002070470146C86C80B27047024600208D
:1010C00013680B400BB1012000E00020704701467F
:1010D00000208A6802F008020AB1012000E0002026
:1010E0007047000030B502460020002350680F4CC6
:1010F00020400D790C6844EA052420435060906834
:101100000B4C2040D1E902542C434D7944EA45046C
:1011100020439060D06A20F470000C7C641EE4B21E
:10112000234340EA0350D06230BD0000FFFEF0FFD1
:10113000FDF7F1FF00B587B001214FF4017001F018
:10114000A1FA0121042001F09DFA00208DF81B0076
:101150000220ADF8180003208DF81A0006A91C48DB
:1011600000F0DEF902211A4800F0B9FA4FF400400D
:1011700001F06CFA1748FFF765FF00208DF80900B1
:1011800004904FF4602003900020019001208DF81E
:10119000140000208DF8080001A90E48FFF7A2FFF7
:1011A00001210C48FFF743FF0A4800F071F800BF27
:1011B0000848FFF78CFF0028FAD1064800F078F8BD
:1011C00000BF0448FFF76CFF0028FAD107B000BD4C
:1011D0000008014000240140F0B504460D460020FF
:1011E0000021092D11DDE068A5F10A0606EB46078E
:1011F000072606FA07F18843A5F10A0606EB46061C
:1012000003FA06F10843E0600CE0206905EB4507AE
:10121000072606FA07F1884305EB450603FA06F1AF
:1012200008432061072A0FDA606B561E06EB86071B
:101230001F2606FA07F18843561E06EB860605FAB6
:1012400006F10843606322E00D2A0FDA206BD61FF7
:1012500006EB86071F2606FA07F18843D61F06EB22
:10126000860605FA06F10843206310E0E06AA2F161
:101270000D0606EB86071F2606FA07F18843A2F142
:101280000D0606EB860605FA06F10843E062F0BD9E
:10129000816841F008018160704721B1826842F4A1
:1012A000A002826003E0826822F4A002826070479C
:1012B000816841F004018160704710B5012146202A
:1012C00000F02FF81021462000F02BF8B42000F099
:1012D00002F910BD38B5044600200090002500F04A
:1012E00035FB44F0010000F0DBFA00F02FFA00B10A
:1012F0000AE0012000F084FA8DF80000002000F0E0
:101300007FFA8DF8010000BF00F040FB052000F0DF
:10131000E2F89DF800509DF8010040EA05252846B6
:1013200038BD70B505460C4600F010FB284600F0AD
:10133000B7FA00F00BFA00B107E0204600F0B0FA6F
:1013400000F004FA00B100E000BF00F01FFB70BD28
:1013500000BFFEE710B5002404E0601CC4B2012009
:1013600002F09CFD0D48006808B1502CF5DB502CB4
:1013700001DB012010BD002404E0601CC4B2012088
:1013800002F08CFD0548006808B9642CF5DB642C7C
:1013900001DB0120EEE70020ECE700002481214280
:1013A00008B50121082001F06DF94FF40070ADF887
:1013B000000014208DF8030003208DF80200694618
:1013C000064800F0ADF84FF40071044800F087F9CA
:1013D00000F06CF8FFF7BEFF08BD0000000C0140F4
:1013E00010B5002404E0601CC4B2012002F056FDD8
:1013F0000D48006808B1642CF5DB002404E0601C93
:10140000C4B2012002F04AFD0748006808B9642C04
:10141000F5DB282002F042FD0348006808B10120F6
:1014200010BD0020FCE700002481214270B500249B
:10143000002506E06006040EFFF7D2FF0443681C97
:10144000C5B2082DF6DB204670BD2DE9FC410546EE
:101450000F461646984600F029F8FFF77BFFF8B9CB
:10146000002405E0FFF7E2FF0DF80400601CC4B2A1
:10147000052CF7DB9DF800009DF8011008449DF84D
:10148000021008449DF8031008449DF80410884297
:1014900009D19DF8000030709DF80200287002E02C
:1014A0000120BDE8FC810020FBE7000010B5002012
:1014B00006490860142002F0CBFC01200449C1F861
:1014C000A4011E2002F0EAFC10BD0000A48121420C
:1014D000008021427047014601EBC10222F06042C8
:1014E0004FF0E0235A6100229A611A46126942F0D5
:1014F00001021A6100BF4FF0E022106900F0010202
:101500001AB100F48032002AF5D04FF0E0221269BF
:1015100022F001024FF0E0231A6100229A61704725
:101520002DE9F0410246002500260020002300247A
:10153000002791F803C00CF00F0591F803C00CF0E0
:10154000100CBCF1000F03D091F802C04CEA050565
:1015500091F800C0BCF1000F31D0146800202BE0DE
:101560004FF0010C0CFA00F3B1F800C00CEA0306CE
:101570009E4220D183004FF00F0C0CFA03F7BC43BE
:1015800005FA03FC4CEA040491F803C0BCF1280FEF
:1015900006D14FF0010C0CFA00FCC2F814C00AE0AE
:1015A00091F803C0BCF1480F05D14FF0010C0CFAC3
:1015B00000FCC2F810C0401C0828D1D31460B1F858
:1015C00000C0BCF1FF0F34DD546800202EE000F1B4
:1015D000080C4FF0010808FA0CF3B1F800C00CEA4F
:1015E00003069E4221D183004FF00F0C0CFA03F743
:1015F000BC4305FA03FC4CEA040491F803C0BCF1B7
:10160000280F05D100F1080C08FA0CF8C2F8148074
:1016100091F803C0BCF1480F07D100F1080C4FF05E
:10162000010808FA0CF8C2F81080401C0828CED334
:101630005460BDE8F0810000F0B50A4600230024A4
:101640000021002500F00046B6F1004F02D11D4EEA
:10165000F16901E01B4E7168C0F3034583B200F4E9
:101660004016B6F5401F08D121F07061154E76681E
:1016700026F07066134F7E6012E000F48016B6F517
:10168000801F06D1032606FA05F4A14341F07061DC
:1016900006E0460D360103FA06F6B14341F07061EB
:1016A00022B1460D360103FA06F6314300F000463A
:1016B000B6F1004F02D1034EF16101E0014E7160BD
:1016C000F0BD0000000001400246002093680B407E
:1016D0000BB1012000E000207047416170470161BB
:1016E0007047000010B5044607230122214609482F
:1016F000FFF772FD01210748FFF7CFFD00BF022170
:101700000448FFF7DBFC0028F9D00248FFF7D2FCC1
:1017100010BD0000002401402DE9F04107460C46B1
:101720000025002608E03846FFF7DCFF05440520C9
:1017300002F08EFB701CC6B2A642F4DBB5FBF4F0DF
:1017400080B2BDE8F08100BFFEE7000010B50024C4
:1017500001F042F80520FFF7BEFE4FF480610E480D
:10176000FFF7BDFF0520FFF7B6FE07E0601CC4B21F
:10177000FA2C03DB00F00AF9012010BD4FF40061E0
:101780000548FFF7A1FF0028F0D14FF4806102481F
:10179000FFF7A3FF0020F0E7000C014008B501218E
:1017A000082000F06FFF0121084600F06BFF0121C7
:1017B0001148FFF741FF4FF40060ADF80000102022
:1017C0008DF8030003208DF8020069460B48FFF7EF
:1017D000A7FE4FF48060ADF8000069460748FFF7A8
:1017E0009FFE4FF480610548FFF779FF4FF40061D9
:1017F0000248FFF774FF08BD00023000000C0140F2
:1018000070B50546002400F0E7FF00261BE04FF40A
:1018100080611248FFF761FF0520FFF75CFE4FF47F
:1018200080610E48FFF75BFF6006040E0520FFF79E
:1018300052FE4FF400610948FFF746FF08B1601CF3
:10184000C4B2701CC6B2082EE1DB15B100F008F876
:1018500001E000F05BF8204670BD0000000C014084
:1018600010B54FF480610D48FFF737FF00F0C6FF59
:101870004FF400610948FFF730FF0520FFF72BFE0A
:101880004FF480610548FFF72AFF0520FFF723FE8C
:101890004FF480610148FFF720FF10BD000C0140AC
:1018A00070B5044600F0AAFF4FF480611648FFF7B8
:1018B00014FF002524E004F0800028B14FF40061FB
:1018C0001148FFF70CFF04E04FF400610E48FFF7EA
:1018D00004FF6006040E0520FFF7FDFD4FF4806154
:1018E0000948FFF7FCFE0520FFF7F5FD4FF4806186
:1018F0000548FFF7F2FE0520FFF7EDFD681CC5B2B5
:10190000082DD8DB70BD0000000C014010B54FF46D
:1019100080610D48FFF7E1FE00F070FF4FF40061B9
:101920000948FFF7DCFE0520FFF7D5FD4FF4806185
:101930000548FFF7D4FE0520FFF7CDFD4FF4806189
:101940000148FFF7CAFE10BD000C014010B500F0C1
:1019500055FF4FF400610C48FFF7C1FE4FF4806162
:101960000948FFF7BCFE0520FFF7B5FD4FF4006105
:101970000548FFF7B2FE0520FFF7ADFD4FF480618B
:101980000148FFF7AAFE10BD000C014010B500F0A1
:1019900035FF4FF480610C48FFF79FFE4FF4006164
:1019A0000948FFF79AFE4FF480610748FFF797FE5A
:1019B0000520FFF790FD4FF400610348FFF78FFE0D
:1019C0000520FFF788FD10BD000C014008B501217E
:1019D000042000F057FE0121102000F053FE1020DB
:1019E000ADF8000003208DF8020010208DF80300F0
:1019F00069460A48FFF794FD10210848FFF76FFE7B
:101A00004FF40050ADF8000069460548FFF788FD27
:101A10004FF400510248FFF762FE08BD0008014084
:101A2000001001402DE9FF5F1E210120FFF774FE29
:101A300003900398FEF7C7FE06463249FEF7C2FC44
:101A400005464FF08B41FEF7EFFC04462046FEF7BB
:101A5000DEFE07462C4A2D4BFEF724FD05460022EC
:101A60002B4BFEF7C6FD8246FEF7B2FE0090FEF756
:101A7000A1FE28490190FEF7D7FC044621462148E3
:101A8000FEF79AFC06462146FEF7CEFC05462249A3
:101A9000FEF798FC029021480078062815DA00220B
:101AA0001F4B4FF080401F4902F0ACFA05460E462E
:101AB0000298FEF7ACFE07462A463346FEF70BFEB9
:101AC0008246FEF7B7FE1849086017480168029879
:101AD000FEF7AAFC0190FEF79AFE07464FF08042FF
:101AE000124B02F08FFA05464FF08042104BFEF782
:101AF00080FD8246FEF79EFE8146484604B0BDE862
:101B0000F09F0000333353407B14AE47E17A743FBB
:101B1000000059400000C8420000A04051080020C9
:101B2000B6DBDEBF24AEA03F280800208D9700C0A2
:101B3000332F834000BFFEE70146024801600020CA
:101B400070470000440800202DE9F047044616467F
:101B50001F46DDE9088914B1B8F1000F03D14FF039
:101B6000FF30BDE8F087184D06E02868A04202D19A
:101B70002068286003E02D6828680028F5D100BFA0
:101B800012480068804780197941C4E90201C4F80D
:101B90001080C4F814900C4D00BF286818B90020BC
:101BA00020602C600DE0D4E902302A68D2E90212EC
:101BB000591A904103D2286820602C6001E02D68FA
:101BC000EBE700BF0020CCE74008002044080020DD
:101BD00010B50F48046817E00E4800688047D4E944
:101BE0000232C01A914105D20A4800688047A168B4
:101BF000081A10BD064920680860206918B12046FF
:101C0000D4E9042190472468002CE5D10020F0E7B6
:101C100040080020440800207047000070B50021F3
:101C200000230F22C47804B3154C246804F4E06444
:101C3000C4F5E064210AC1F10403CA40447804FAFF
:101C400003F184781440214309010E4C0678A15514
:101C5000047804F01F050124AC4005786D11AD0037
:101C600005F1E025C5F8004109E0047804F01F05FE
:101C70000124AC40044D0678761145F8264070BD2D
:101C80000CED00E000E400E080E100E070B500242D
:101C90000CE0002506E00020074901EBC5010855CE
:101CA000681CC5B2802DF6DB601CC4B2082CF0DBCA
:101CB00000F012F970BD0000900E002010B504462F
:101CC0001CB90021A62000F07BFC012C03D10021CF
:101CD000A72000F075FC10BD10B504463CB90021EA
:101CE000C82000F06DFC0021A12000F069FC012C4F
:101CF00007D10021C02000F063FC0021A02000F0EB
:101D00005FFC10BDF0B514460B46CF1701EB5777BB
:101D1000C7F3C702CF1701EB5777FF10A1EBC70737
:101D2000FEB20123B340DDB24CB1134B03EBC00351
:101D30009B5C2B43104F07EBC007BB541AE00E4BC4
:101D400003EBC0039B5CDB430B4F07EBC007BB54AB
:101D5000094B03EBC0039B5C2B43074F07EBC0070A
:101D6000BB54054B03EBC0039B5CDB43024F07EB0B
:101D7000C007BB54F0BD0000900E002008B5012143
:101D80000D2000F07FFC01215048FFF755FC4FF477
:101D90001840ADF8000010208DF8030003208DF8E6
:101DA000020069464A48FFF7BBFB4FF41841484818
:101DB000FFF795FC4FF42040ADF8000010208DF89F
:101DC000030003208DF8020069464248FFF7A8FB94
:101DD0004FF420413F48FFF782FC4FF480513C48CC
:101DE000FFF77BFCC82002F033F84FF480513848ED
:101DF000FFF775FC0021AE2000F0E2FB002102207D
:101E000000F0DEFB0021102000F0DAFB0021402072
:101E100000F0D6FB0021B02000F0D2FB0021812091
:101E200000F0CEFB0021CF2000F0CAFB0021A12052
:101E300000F0C6FB0021A62000F0C2FB0021A82074
:101E400000F0BEFB00213F2000F0BAFB0021AD20D6
:101E500000F0B6FB00218B2000F0B2FB0021332004
:101E600000F0AEFB0021C82000F0AAFB0021D32027
:101E700000F0A6FB0021084600F0A2FB0021D520BF
:101E800000F09EFB0021802000F09AFB0021D92069
:101E900000F096FB00211F2000F092FB0021DA20C9
:101EA00000F08EFB0021122000F08AFB0021DB20D5
:101EB00000F086FB0021402000F082FBFFF7E6FEE9
:101EC0000021AF2000F07CFB08BD000000023000C4
:101ED00000080140000C014070B500241CE004F132
:101EE000B001C8B2002100F06BFB0021022000F01D
:101EF00067FB0021102000F063FB002508E0084983
:101F000001EBC501085D012100F05AFB681CC5B258
:101F1000802DF4DB601CC4B2082CE0DB70BD000037
:101F2000900E00202DE9FE4F0746884692461C463B
:101F30000197CDF80080082C02D14FF006091FE070
:101F40002046E31704EB5373DB1021464FEAE47C91
:101F500004EB5C7C4FEAEC0CA4EBCC0CBCF1000F66
:101F600002D04FF0010C01E04FF0000C6344224618
:101F700004EBD27C4FEA6C0C03FB0CF303F0FF097B
:101F8000AAF12000C6B200255EE0082C07D106EBBE
:101F900046002F4901EB400010F805B01DE00C2C65
:101FA00007D106EB46002B4901EB800010F805B085
:101FB00013E0102C05D1284800EB061010F805B0EE
:101FC0000BE0182C07D106EBC600244901EB80007A
:101FD00010F805B001E0BDE8FE8F002002901CE083
:101FE0000BF0010028B1414638460C9AFFF78AFEF3
:101FF00009E00C9808B9012000E0002002464146A3
:102000003846FFF77FFE4FEA6B0B08F1010000F046
:10201000FF080298401CC0B2029002980828DFDB3B
:10202000781CC7B2082C0BD004EBD4714A1001996C
:10203000791A8A4204D1019F00980830C0B20090FA
:10204000DDF80080681CC5B24D459EDB00BFC2E7CD
:10205000444B00086C4D0008E0510008D0570008C0
:102060002DE9FC4F0746884616461C46BB46CDF870
:1020700004802046E21704EB5272D2102146E31787
:1020800004EB5373DB10A4EBC3030BB1012300E09B
:1020900000231A44624392B20092002555E0102CAE
:1020A00005D12C4800EB461010F805A01BE0182CB9
:1020B00007D106EBC600284901EBC00010F805A0C7
:1020C00011E0202C05D1254800EBC61010F805A022
:1020D00009E0402C05D1224800EB462010F805A06D
:1020E00001E0BDE8FC8F4FF000091CE00AF00100A0
:1020F00028B1414638460B9AFFF704FE09E00B98D9
:1021000008B9012000E00020024641463846FFF7AA
:10211000F9FD4FEA6A0A08F1010000F0FF0809F131
:10212000010000F0FF09B9F1080FDFDB781CC7B22E
:10213000A7EB0B00A04204D15F4601980830C0B263
:102140000190DDF80480681C85B200988542A6DB0A
:1021500000BFC6E72C650008CC66000814670008BD
:10216000946700082DE9FF4F05460E4617461C46AA
:10217000DDF838904FF0000A0095B3462046E2178C
:1021800004EB5272D2102146E31704EB5373DB10B9
:10219000A4EBC3030BB1012300E000231A44D4B223
:1021A0004FF0000845E0002003903BE00D9810F848
:1021B0000A0002900AF101001FFA80FA0020019043
:1021C0001DE0029800F0010028B14A463146284639
:1021D000FFF798FD0AE0B9F1000F01D1012000E0FE
:1021E0000020024631462846FFF78CFD0298401039
:1021F0000290701CC6B20198401CC0B201900198B8
:102200000828DEDB681CC5B20098281AB84204D141
:10221000009D0BF1080000F0FF0B5E460398401C88
:10222000C0B203900398B842C0DB08F1010000F08F
:10223000FF08A045B7DBBDE8FF8F2DE9F841064652
:102240000F4614461D46DDF81C8013E0CDF80080D3
:1022500022782B4639463046FFF764FE082D02D11E
:10226000B01DC6B205E0284605EBD07106EB610152
:10227000CEB2641C2078202802DB20787E28E5DDA1
:10228000BDE8F8811CB5FFF727FE904800210160EA
:1022900041608160C1608E48016041608160C160C1
:1022A0008C48016041608160C1608B480160416081
:1022B0008160C1608948016041608160C160884877
:1022C000016041608160C160864801604160816059
:1022D000C1608548016041608160C16083480068D9
:1022E00020B1012859D0022856D1A3E0012080490D
:1022F00040238022CDE9001000210846FFF732FF7D
:102300004FF4FA6001F0A4FD0120082379A20A210C
:1023100000900020FFF791FF0120102303221421D9
:1023200000900020FFF79CFE0120102304221421BE
:1023300000900846FFF794FE012010230522142187
:1023400000902820FFF78CFE012010230622142184
:1023500000903C20FFF784FE012010230722142167
:1023600000905020FFF77CFE01201023082214214A
:1023700000906420FFF774FE012008235DA2642111
:1023800000900020FFF759FF012008235FA26E2173
:1023900000900020FFF751FF96E06248036862A1B9
:1023A00042684A4801F06AF85E48836861A1C268E1
:1023B000474801F063F85B48036961A142694548F9
:1023C00001F05CF85748836960A1C269424801F096
:1023D00055F80120082360A2002100900846FFF76D
:1023E0002CFF01200823394A0A2100900020FFF722
:1023F00024FF01200823364A142100900020FFF713
:102400001CFF01200823334A1E2100900020FFF703
:1024100014FF01200823304A282100900020FFF7F4
:102420000CFF0120082333A2322100900020FFF787
:1024300004FF49E03B484EA1026A284801F01EF81B
:1024400038484EA1426A264801F018F835484EA196
:10245000826A244801F012F83248036B4DA1C26A27
:10246000214801F00BF8012008234FA20021009021
:102470000846FFF7E2FE01200823184A0A210090CF
:102480000020FFF7DAFE01200823154A14210090EE
:102490000020FFF7D2FE01200823124A1E210090DF
:1024A0000020FFF7CAFE012008230F4A28210090D0
:1024B0000020FFF7C2FE012008230EA23221009067
:1024C0000020FFF7BAFE00BF00BF1CBD940900202A
:1024D000A4090020B4090020C4090020D409002068
:1024E000E4090020F4090020040A00201808002054
:1024F000180400202D2D2D2D2D2D2D2D2D2D2D2D84
:102500002D2D2D2D2D2D2D2D000000002A202A20CF
:102510002A202A202A202A202A202A206A207920DC
:102520006D0000005C08002054656D703A25642B36
:102530002564000048756D693A25642B2564000008
:10254000496E74653A25642B25640000536D6F6BEA
:102550003A25642B256400002D2D2D2D2D2D2D4188
:1025600055544F4F4E2D2D2D2D2D2D2D000000009B
:102570004169722D2D2D2D2D256400004375722D7E
:102580002D2D2D2D2564000057696E2D2D2D2D2DFF
:10259000256400004C4544312D2D2564204C4544D4
:1025A000322D2D25640000002D2D2D2D2D2D2D419A
:1025B00055544F4F46462D2D2D2D2D2D000000003A
:1025C00070B504460E462EB14FF400611C48FFF76B
:1025D00086F804E04FF400611948FFF77EF84FF4E5
:1025E00000411748FFF779F800251BE04FF4005130
:1025F0001448FFF772F804F0800028B14FF400414E
:102600001048FFF76CF804E04FF400410D48FFF765
:1026100064F84FF400510B48FFF761F86006040EB0
:10262000681CC5B2082DE1DB4FF400410448FFF7F8
:1026300056F84FF400610248FFF751F870BD0000F2
:1026400000080140000C01407047000001460020D6
:10265000034A506820F4404008435060704700002F
:102660000010024029B1064AD2690243044BDA61E4
:1026700004E0034AD2698243014BDA6170470000EB
:102680000010024029B1064A92690243044B9A6144
:1026900004E0034A92698243014B9A61704700004B
:1026A0000010024029B1064AD2680243044BDA60A6
:1026B00004E0034AD2688243014BDA6070470000AD
:1026C0000010024030B500210022002400232D4DCF
:1026D0006D6805F00C0121B1042905D0082923D12A
:1026E00005E0294D056022E0274D05601FE0254DDE
:1026F0006D6805F47012234D6D6805F48034022571
:1027000005EB92421CB9214D554305600BE01D4D70
:102710006D6805F400351DB11C4D5543056002E0A0
:10272000194D5543056002E0174D056000BF00BF1D
:10273000144D6D6805F0F0010909154D6B5C0568D5
:10274000DD4045600F4D6D6805F4E061090A104DEC
:102750006B5C4568DD4085600A4D6D6805F460512D
:10276000C90A0B4D6B5C4568DD40C560054D6D6861
:1027700005F44041890B074D6B5CC568B5FBF3F56B
:10278000056130BD0010024000127A0000093D00D2
:10279000000000201000002008B501210420FFF7F0
:1027A00071FFC020ADF8000003208DF8020010205A
:1027B0008DF8030069460548FEF7B2FE0020044983
:1027C00008600449C1F89C0108BD000000080140F0
:1027D000980121420000214208B54FF40060ADF895
:1027E000000004208DF8030003208DF802006946E4
:1027F0000148FEF795FE08BD000C014008B54FF4F6
:102800000060ADF8000010208DF8030003208DF863
:10281000020069460148FEF783FE08BD000C014036
:10282000704710B500F002F810BD00000CB5002094
:10283000019000903348006840F4803031490860CE
:1028400000BF3048006800F4003000900198401C40
:102850000190009818B90198B0F5A06FF1D12948FE
:10286000006800F4003010B10120009001E0002069
:1028700000900098012843D12348006840F01000E0
:10288000214908600846006820F0030008600846F7
:10289000006840F0020008601A4840681949486022
:1028A0000846406848600846406840F480604860D8
:1028B0000846406820F47C1048600846406840F4B0
:1028C000E81048600846006840F08070086000BF6B
:1028D0000C48006800F000700028F9D009484068F2
:1028E00020F00300074948600846406840F00200B5
:1028F000486000BF0348406800F00C000828F9D188
:102900000CBD0000001002400020024070B50446DB
:102910000D46082C55D2DFE804F0040E18222C36A0
:10292000404A41F230012B48FEF7D7FE08212948E2
:10293000FEF7D5FE46E04FF481512648FEF7CDFE66
:1029400018212448FEF7CBFE3CE041F22801214843
:10295000FEF7C3FE10211F48FEF7C1FE32E041F230
:1029600008011C48FEF7B9FE30211A48FEF7B7FEF1
:1029700028E041F218011748FEF7AFFE2021154864
:10298000FEF7ADFE1EE018211248FEF7A6FE4FF43A
:1029900081511048FEF7A3FE14E038210D48FEF7E0
:1029A0009CFE4FF480510B48FEF799FE0AE030215F
:1029B0000848FEF792FE41F208010648FEF78FFE36
:1029C00000E000BF00BF284601F042FA00F080F8A6
:1029D00070BD0000000C014008B501210820FFF780
:1029E00051FE10208DF8030003208DF8020008200E
:1029F000ADF8000069461548FEF792FD1020ADF8CD
:102A0000000069461148FEF78BFD2020ADF800005C
:102A100069460E48FEF784FD4FF48050ADF8000083
:102A200069460A48FEF77CFD08210848FEF755FE76
:102A300010210648FEF751FE20210448FEF74DFE06
:102A40004FF480510148FEF748FE08BD000C0140DC
:102A500070B505460C46164604EB8400C0EB842096
:102A60004FF6FF7202EA80013246284600F002F873
:102A700070BD00002DE9F04104460D4616460027C2
:102A80001FE0012C0BD111480078401C0F49087041
:102A90000846007807280DDD002008700AE00B4882
:102AA000007810B908200949087008480078401ECD
:102AB00006490870314605480078FFF727FF781C63
:102AC00087B2AF42DDDBBDE8F08100002C080020BA
:102AD00010B541F238010248FEF7FFFD10BD0000BD
:102AE000000C01407047000010B51348006840F02A
:102AF00001001149086008464068104908400E4925
:102B00004860084600680E4908400B4908600846BE
:102B1000006820F4802008600846406820F4FE0029
:102B200048604FF41F008860FFF77BFE4FF00060A5
:102B30000449086010BD0000001002400000FFF8CA
:102B4000FFFFF6FE08ED00E010B50121054800F09A
:102B500073F828B10121034800F05DF801F06EFF21
:102B600010BD0000000800407FB505460C4601215D
:102B70000420FFF777FD01210846FFF783FDADF83C
:102B80000850ADF804400020ADF8060001A919482E
:102B900000F076F80121174800F02EF800211548C2
:102BA00000F064F80021134800F0C8F80021114833
:102BB00000F0B8F801210F4800F03CF801210D4861
:102BC00000F026F8012211460A4800F046F81E20BF
:102BD0008DF8000002208DF801008DF80200012020
:102BE0008DF803006846FFF719F80121014800F04D
:102BF00015F87FBD0008004021B1028842F0800234
:102C0000028004E002884FF67F731A40028070470A
:102C1000CA4302827047CA430282704721B10288C8
:102C200042F00102028004E002884FF6FE731A406F
:102C3000028070478182704730B502460020002331
:102C40000024158A05EA0103958905EA010413B1F8
:102C50000CB1012000E0002030BD1AB183890B4384
:102C6000838102E083898B438381704702884FF61A
:102C7000F7731A40028002880A43028070470000FE
:102C8000002202881D4B98420ED01D4B98420BD05B
:102C9000B0F1804F08D01B4B984205D01A4B984298
:102CA00002D01A4B984204D14FF68F731A404B88CA
:102CB0001A43174B984207D0164B984204D04FF650
:102CC000FF431A40CB881A4302808B8883850B8888
:102CD00003850A4B98420BD0094B984208D00E4B03
:102CE000984205D00D4B984202D00D4B984201D12D
:102CF0000B7A03860123838270470000002C014079
:102D0000003401400004004000080040000C004076
:102D10000010004000140040004001400044014009
:102D20000048014021B1028842F00202028004E022
:102D300002884FF6FD731A400280704721B1028865
:102D400042F00402028004E002884FF6FB731A404E
:102D50000280704710B540F22551054800F0F7F8A1
:102D6000012804D140F22551014800F0C8F810BDF7
:102D70000038014010B540F22551264800F0E7F830
:102D800050B340F22551234800F0B9F80120224900
:102D90000870224908600020486008468068B0F545
:102DA000806F0DDC1B4800F08DF9C1B21B488268B2
:102DB0008068401C194B986003F10C00815428E096
:102DC00016488068B0F5806F23DD002013498860C5
:102DD00013A000F043FB1CE040F224410D4800F03A
:102DE000B6F8B0B140F224410A4800F088F809482A
:102DF00000F068F900200849087001200749486080
:102E000000200860C1F80C048860C1F81804C1F8FB
:102E1000140410BD0044004035080020140A0020AE
:102E20004552524F525F574F52444E554D204953D1
:102E30002046554C4C0D0A0010B586B004460121C1
:102E40000420FFF71FFC01214804FFF70BFC0420BE
:102E5000ADF8140003208DF8160018208DF8170027
:102E600005A92048FEF75CFB0820ADF814000420FB
:102E70008DF8170005A91B48FEF752FB01940020AE
:102E8000ADF80800ADF80A00ADF80C00ADF8100080
:102E90000C20ADF80E0001A9134800F0A7F801219D
:102EA000114800F03BF840210F4800F01FF80122C4
:102EB00040F225510C4800F074F8012210210A4814
:102EC00000F06FF826208DF8000002208DF8010038
:102ED0008DF8020001208DF803006846FEF79EFE83
:102EE00006B010BD000801400044004001F400722B
:102EF000B2F5007F00D100BFCA430280704710B511
:102F00000022002340F66A14A14200D100BF0A1239
:102F100001249440A3B2DC43048010BD21B1828916
:102F200042F40052828104E082894DF6FF731A4018
:102F30008281704702460020B1F5007F00D100BFBA
:102F400013880B400BB1012000E00020704770B5E2
:102F50000246002400230025002040F66A16B142F4
:102F600000D100BFC1F3421501F01F03012606FA8C
:102F700003F3012D02D19689334006E0022D02D1E0
:102F8000168A334001E0968A33400C12012606FA75
:102F900004F41688344013B10CB1012000E0002085
:102FA00070BDF0B50346002400260025002040F641
:102FB0006A17B94200D100BF1846C1F3421401F0AC
:102FC0001F06012707FA06F5012C01D10C3004E099
:102FD000022C01D1103000E014301AB107682F43E1
:102FE000076002E00768AF430760F0BD2DE9F047D6
:102FF00086B005460E460024A24600BFA146002723
:10300000B08900B100BF2F462C8A4CF6FF700440F7
:10301000F08804432C82AC894EF6F3100440B0884B
:1030200031890843718908430443AC81AC8A4FF667
:10303000FF400440B0890443AC8201A8FFF742FB83
:103040001F48874202D1DDF810A001E0DDF80CA096
:10305000A88900F4004040B10AEBCA0000EB0A1056
:1030600031684900B0FBF1F807E00AEBCA0000EB59
:103070000A1031688900B0FBF1F86420B8FBF0F069
:1030800004012009642101FB1089A88900F4004093
:1030900040B1322000EBC900B0FBF1F000F00700B6
:1030A000044308E0322000EB09106421B0FBF1F08A
:1030B00000F00F0004432C8106B0BDE8F08700004B
:1030C0000038014001468888C0F308007047C1F30A
:1030D00008028280704700BFFEE7000010B586B08E
:1030E0000446012144F20400FFF7CCFA4FF40070CB
:1030F000ADF8140001208DF8160018208DF8170087
:1031000005A91C48FEF70CFA4FF48060ADF81400D6
:1031100004208DF8170005A91648FEF701FA01945E
:103120000020ADF80800ADF80A00ADF80C00ADF8CD
:1031300010000C20ADF80E0001A90F48FFF756FF54
:10314000012240F225510C48FFF72BFF25208DF876
:10315000000002208DF801008DF8020001208DF89A
:1031600003006846FEF75AFD01210348FFF7D6FE2B
:1031700006B010BD000801400038014010B50446FB
:1031800012E000BF80210A48FFF7D4FE0028F9D0E2
:1031900021780748FFF79BFF00BF40210448FFF755
:1031A000C9FE0028F9D0641C20780028E9D110BDA0
:1031B00000440040F0B589B000200890079000243A
:1031C0000025FEF72FFC05464620FEF783F804464F
:1031D000002307AA194608A8FEF737F94749142023
:1031E00000F010F900284AD045A14448FCF7BEFF82
:1031F000B0B10020434908604348011DA0F1080216
:10320000031FCDE90232CDE904101038011D143B33
:10321000021FCDE900103DA13848FCF7B9FF2EE0B0
:1032200001203849086038481830011F0A1F131F51
:10323000CDE900210290083A3FA13048FCF7A8FFF1
:1032400031481838006A474908602F481838806AA2
:103250004549C1F89C012C481838406A012805D11D
:10326000012214211046FFF7F3FB08E02648183826
:10327000406A20B9012214210020FFF7E9FB20A1B8
:103280003A48FCF773FF10B101203949086039A1B1
:103290003648FCF76BFF10B102203549086028461C
:1032A000FDF7B5FA0094CDE902019DF81C309DF8B8
:1032B00020203149314800F0E1F8314800780128F8
:1032C00005D100202E4908702C4800F0C1F82D4887
:1032D0000078012810D129492BA000F0BFF8074938
:1032E00031A000F0BBF821480C38816835A000F00F
:1032F000B5F833A000F0B2F809B0F0BD9408002092
:103300004F4E00002408002074080020532D4F4E1B
:103310002D543A25642B25642D483A25642B2564C9
:103320002D493A25642B25642D533A25642B2564B9
:103330002D450D0A00000000532D4F46462D413A01
:1033400025642D433A25642D573A25642D4C454478
:10335000313A25642D4C4544323A25642D450D0AF9
:10336000000000009801214200002142200A0020B4
:10337000180800204F464600686A0008140900201B
:103380003408002035080020CFF2D6F7BBFAB7A2E8
:10339000CBCDB5C4D7D3BDDAB5E3D0C5CFA23A20E3
:1033A00025730D0A00000000B6C1C8A1B5BDD6F74F
:1033B000BBFAB7A2CBCDB5C4D0C5CFA23A257320F6
:1033C0000D0A0000B6C1C8A1B5BDD6F7BBFAB7A2B9
:1033D000CBCDB5C4D7D6BDDACAFDA3BA25640D0AD4
:1033E0000000000010B5012004490870044908706D
:1033F0004FF4E130FFF720FD10BD0000340800203D
:103400003508002070B504460D461048C0F8104439
:103410000068C0B90D484068012814D182020B49E8
:103420000C312846FCF77EFE4FF4806107480C30D3
:10343000FCF791FE0020054988600860C1F80C0483
:103440004860012070BD0020FCE70000140A002045
:1034500010B504462046FFF791FE10BD0FB4054B92
:1034600010B503A9044A029800F056F910BC5DF8A3
:1034700014FB0000E93E0008540800200FB4084B7C
:1034800010B504A902AA039800F046F9044602A95F
:10349000002000F0D8FC204610BC5DF814FB0000B2
:1034A000473E0008490050EAC12018BF04204A0DD9
:1034B00018BF40F0010040F2FF72B2EB515F08BF4D
:1034C00040F00200012808BF052070472DE9F041B7
:1034D0004F1E00EBC7010446D1E9000115461E4608
:1034E00037F006020DD02A463346FDF782F87F1EDC
:1034F00004EBC703D3E90023FCF7D4FF37F006023F
:10350000F1D1022F25D0042F13D0062F18BFBDE80C
:10351000F0812A463346FDF76CF8D4E90A23FCF71C
:10352000C1FF2A463346FDF764F8D4E90823FCF7C7
:10353000B9FF2A463346FDF75CF8D4E90623FCF7C9
:10354000B1FF2A463346FDF754F8D4E90423FCF7CB
:10355000A9FF2A463346FDF74CF8D4E90223FCF7CD
:10356000A1FF2A463346FDF744F8D4E90023BDE81D
:10357000F041FCF797BF0000024A00201107FDF759
:10358000C1BA000001FDFFFF02E008C8121F08C118
:10359000002AFAD170477047002001E001C1121FD4
:1035A000002AFBD170470000014908607047000005
:1035B000580800202DE9FF5FDDE90220010DDDF84C
:1035C00038B0024318D044F61050A1F2FF31414305
:1035D0000D140F98012820D0A5EB0B00401C5FEACA
:1035E000000A4FF00004474EDFF81C91A0465046F9
:1035F00016D5CAF1000728E00F98012443A201283C
:1036000008D0002100980F9BC0E90021C0E90243C7
:10361000BDE8FF9F6FEA0B01F4E7CBF10000DEE7A6
:10362000074612E0F80707D022463346404649468F
:10363000FCF7DFFF8046894622463346104619468E
:10364000FCF7D7FF04460E467F10002FEAD1DDE9D4
:103650000201BAF1000F42464B4602DAFCF7C9FFFD
:1036600001E0FDF738F804460E460022284BFDF72E
:1036700089FA03D84FF0FF30014607E00022254BBE
:1036800020463146FCF70EFFFDF764FA102409E0EE
:10369000002C0ADB0A220023FDF7FEF8019B3032E2
:1036A0001A55641E50EA0102F2D1641C019AC4F159
:1036B000110314440F9A012A03D0012208430DD1AB
:1036C0000AE0084304D000204FF0110B0F9080E770
:1036D000A3EB0B056D1E0DE05B4504DD4FF0000212
:1036E00005F1010504E003DA4FF00002A5F1010540
:1036F000002AECD000980F99C0E90231C0E90045DA
:1037000086E70000000024400000F03F3000000089
:103710000000F0430000E03F2DE9FF4F95B09B46CD
:103720008946064600250FE2252877D10024274642
:10373000F84A0121059400E0044316F8013F203BBC
:1037400001FA03F01042F7D130782A2811D06FF037
:103750002F033078A0F13002092A16D8059A44F0D8
:10376000020402EB820203EB42021044761C059035
:10377000EFE759F8042B0592002A03DA504244F48B
:103780000054059044F00204761C30782E2816D19F
:1037900016F8010F44F004042A280DD06FF02F0210
:1037A0003078A0F13003092B09D807EB870302EB2F
:1037B0004303C718761CF3E759F8047B761C30786E
:1037C0006C280FD006DC4C2817D068280DD06A284A
:1037D00014D104E0742810D07A280FD10DE044F4FD
:1037E00000140AE044F4801401E044F440147278B8
:1037F000824202D104F58014761C761C307866284B
:103800000BD013DC582877D009DC002875D0452868
:10381000F6D04628F4D047281AD19DE118E0632855
:1038200035D0642879D0652812D195E1702873D0FD
:1038300008DC6728F1D069286FD06E280DD06F287A
:1038400006D1B5E073282CD0752875D0782874D0AF
:103850005A46179990476D1C75E1C4F3025002282F
:1038600009D003280DD0D9F8001004280DD00D6020
:1038700009F1040967E1D9F80010EA17C1E900521B
:10388000F6E7D9F800100D80F2E70D70F0E719F8AF
:10389000041B8DF8001000208DF80100EA4601207D
:1038A00003E059F804AB4FF0FF3061074FF000011F
:1038B00002D40DE008F101018846B9420FDA8045D3
:1038C000F8DB1AF808100029F4D108E008F101012A
:1038D00088468142FADB1AF808100029F6D10598CB
:1038E0005B46A0EB080721463846179A00F094FA89
:1038F000284400EB080507E04DE029E10DE01AF847
:10390000010B5A4617999047B8F10108F7D25B4668
:1039100021463846179A13E142E00A220092C4F386
:1039200002524FF0000A022A08D059F804CB032AA9
:103930004FEAEC710AD00DE029E02AE009F1070115
:1039400021F00702F2E802C1914609E00FFA8CFC6F
:103950004FEAEC71042A03D14FFA8CFC4FEAEC7168
:10396000002907DA0A460021DCF1000C61EB0201B4
:103970002D2202E0220504D52B228DF804200122FD
:1039800003E0E20701D02022F7E7904659E00A2140
:1039900002E010220DE010214FF0000A00910BE030
:1039A00010224FF0000A44F004040827009203E0BC
:1039B00008224FF0000A0092C4F30252022A05D0F6
:1039C00059F804CB0021032A08D009E009F10701C6
:1039D00021F00702F2E802C1914605E01FFA8CFCD3
:1039E000042A01D10CF0FF0C4FF00008220728D563
:1039F000702806D0009B83F0100353EA0A0305D019
:103A00000EE040228DF80420012208E05CEA010269
:103A100006D030228DF804208DF805000222904651
:103A2000009B83F0080353EA0A030AD15CEA01020F
:103A300001D1620705D530228DF804204FF001082E
:103A40007F1E582804D034A003900EA802900DE0E9
:103A500036A0F9E753466046009AFCF71DFF8446FE
:103A60000398825C0298401E029002705CEA01009A
:103A7000F0D1029806A9081A00F1200A600702D5C1
:103A800024F4803400E00127574502DDA7EB0A004B
:103A900000E0002000EB0A01009005984144401A24
:103AA0000590E00306D45B462146179A059800F07E
:103AB000B3F90544002706E001A85A46C05D1799EE
:103AC00090476D1C7F1C4745F6DBE0030CD55B4639
:103AD0002146179A059800F09FF9054404E030202C
:103AE0005A46179990476D1C0099481E009000296E
:103AF000F5DC08E0029802995A460078491C0291C8
:103B0000179990476D1CBAF10001AAF1010AF1DC86
:103B100065E1000009280100303132333435363791
:103B20003839616263646566000000003031323309
:103B300034353637383941424344454600000000A9
:103B400000F058F90544761C307800287FF4ECAD7D
:103B500019B02846BDE8F08F620700D4062709F1A6
:103B6000070222F0070CFCE80223E14603F00048BC
:103B70005FEA080C02D00FF2702C0DE05FEA045CE3
:103B800002D50FF2682C07E05FEAC47C02D00FF286
:103B9000602C01E0AFF2700C4FF0FF3823F00043CF
:103BA000CDF850C065280CD006DC452809D0462841
:103BB0001DD047283DD13DE0662818D067287ED12A
:103BC00038E00021112F01DB112000E0781CCDE945
:103BD000000106A90EA8FFF7EDFCDDE90F010E9A22
:103BE00003910021009207F1010A04914DE04FF08A
:103BF00000400097CDE9011006A90EA8FFF7DAFCF6
:103C0000DDE90F0203920E9B11990022DDF80CA052
:103C10000093049211B9791C00EB010AB7EB0A007A
:103C200004D4C0F1FF3007F1010A0490AAEB0700A9
:103C3000019044E0012F00DA01270021112F01DD5E
:103C4000112000E03846CDE9000106A90EA8FFF7D3
:103C5000B1FCDDE90F010E9A03910021049100925D
:103C6000BA4621070CD40399514500DA8A46BAF1C5
:103C7000010F05DD009AAAF10101515C302908D03D
:103C8000B84202DA10F1040F06DA0121CDE9011081
:103C900015E0AAF10101E9E7002805DC04990144D7
:103CA0000491AAEB000102E0411C514500DD8A4667
:103CB0000499401A401C01904FF0004002902007E8
:103CC00004D40198504501DBCDF8048000208DF824
:103CD0004F0002980DF14F07B0F1004F25D02B2077
:103CE0000E9002984FF0020800280CDA4042029031
:103CF0002D200E9007E00A210298FCF7B7FD303125
:103D0000029007F8011DB8F10001A8F10108F2DCEA
:103D100002980028EFD1791E0E980870307800F0D4
:103D2000200040F0450007F8020D12A8C01B00F16A
:103D300007081498007800B1012000EB0A010198EF
:103D400001EBE07105984144401A401E0590E003E4
:103D500006D45B462146179A059800F05DF80544A5
:103D60001498007818B15A46179990476D1CE003D3
:103D700024D55B462146179A059800F04DF8054476
:103D80001CE00498002807DBDDE90301884203DD1D
:103D90000098405C179901E0179930205A469047E7
:103DA000049805F10105401C04900198401E019003
:103DB00004D12E205A46179990476D1CBAF1000184
:103DC000AAF1010ADDDC05E017F8010B5A46179944
:103DD00090476D1CB8F10001A8F10108F4DC5B46C6
:103DE0002146179A0598ABE62D0000002B00000035
:103DF000200000002DE9F041044600251E4617462C
:103E0000880404D405E039462020B0476D1C641EA8
:103E1000F9D52846BDE8F0812DE9F041044600259A
:103E20001E469046C80301D5302700E020278804AD
:103E300004D505E041463846B0476D1C641EF9D5EF
:103E40002846BDE8F0810A68531C0B60107070476B
:103E50000146114A4A43D2084FF0E0235A6100223A
:103E60009A611A46126942F001021A6100BF4FF0CE
:103E7000E022106900F001021AB100F48032002A39
:103E8000F5D04FF0E022126922F001024FF0E0235A
:103E90001A6100229A61704740190100014601EB46
:103EA000C10222F060424FF0E0235A6100229A6181
:103EB0001A46126942F001021A6100BF4FF0E02277
:103EC000106900F001021AB100F48032002AF5D026
:103ED0004FF0E022126922F001024FF0E0231A6154
:103EE00000229A617047000070B504460D4600BF7D
:103EF00080210548FFF71EF80028F9D0A1B202483A
:103F0000FFF7E5F8204670BD003801401CB500BF42
:103F100000BF4FF4E1510A20FEF726FE4FF4E130D6
:103F2000FFF7DCF8FDF752FDFDF73AFAFDF736FC36
:103F3000FDF7C3F9FDF7FEF8FEF74EFDFEF72CFC8A
:103F4000FDF71CFF0020FDF7B9FE0020FDF7C4FEC1
:103F5000FFF748FA1948FDF7EFFD19A01C490A229E
:103F60000023CDE900101B48FDF7EEFD1AA01D4906
:103F700014220023CDE900101B48FDF7E5FD1BA02E
:103F80001C494FF4FA720023CDE900101A48FDF7DE
:103F9000DBFD11E0FDF71CFEFFF70CF91748006888
:103FA00017490968884205D0154800681349086018
:103FB000FDF76CFEFEF766F9ECE70000314A0008F9
:103FC0005A69674265655F5265637669636500009B
:103FD000554A0008300E00205A69674265655F53F4
:103FE000656E6400D54A0008480E00204D515F32CE
:103FF000000000000D4B0008600E00201C0800208F
:10400000180800202DE9F04D16460F46054602001F
:1040100094B01C4621F0004123F0004014BF4FF043
:10402000010C4FF0000C0CEB470CFE4B0CEB0308A3
:104030004FEA630CE0452DD35FEA060818BF4FF046
:10404000010808EB44089844F74B984522D3F74BF6
:1040500050EA060C02D09F4205D14AB914B00020A4
:104060001946BDE8F08D002A08BF4FF0000C01D0C2
:104070004FF0010C0CEB470313F5001F0AD8002E7C
:1040800014BF4FF0010C4FF0000C0CEB440313F580
:10409000001F08D914B03246234628463946BDE8E9
:1040A000F04DFCF7FFB9DFF888B34FF0000A002F9E
:1040B000B8BF584523DADF4B9842A8BF4FF0020A39
:1040C0001DDADA4B83421ADCDB4B03EB2053142B53
:1040D00008DDC3F1340C26FA0CF303FA0CFCB445EA
:1040E0000DD108E05EB9C3F1140C20FA0CF303FA09
:1040F0000CFC844503D103F00103C3F1020A51EA29
:10410000020321D1002C1FDA002F18BFBAF1020FD1
:1041100002D0BAF1010F0BD00220FFF745FA14B01C
:104120000022BDE8F04D13461046C049FCF7D3BA53
:104130000220FFF739FA14B02A463B46BDE8F04D9D
:104140000020BA49FCF7C7BA33006DD1584525D1D4
:1041500007F1804010F5801001BF002A0020B3490C
:1041600014B008BFBDE8F08DB048884207DC002CD1
:10417000A1BF1846214614B0BDE8F08D07E0002C21
:10418000BFBF184684F0004114B0BDE8F08DAB49C4
:104190007944D1E9000114B0BDE8F08DDFF88CC29C
:1041A000604526D1002C1FDA19B1594513D1DAB96F
:1041B0000AE0002A40F0DA829D4A394614B0002015
:1041C00062F31E01BDE8F08D0020394614B060F3A3
:1041D0001E01BDE8F08D07DA14B03B46BDE8F04D96
:1041E00000206146FCF777BA14B010463946BDE8A6
:1041F000F08D594518DAB4F1804F0DD0A4F1005379
:10420000B3F1FF5310D13B1E0EDB14B01046BDE8D6
:10421000F04D194600F0E6BB3B4614B01046BDE831
:10422000F04D1946FCF7E5B927F00043A2BBE1B118
:10423000594538D1002F06DD002CA1BF002059467A
:1042400014B0BDE8F08D002F01DD002C1FDB002F26
:1042500016DA002C14DBBAF1010F4FF0000014BF86
:104260007349774914B0BDE8F08DBAF1020F18BF59
:10427000002F0CD0BAF1010F09D1002F07DA0CE0A2
:10428000002FB8BF002C0EDABAF1010F05D00020C4
:1042900014B00146BDE8F08D05E014B000204FF0E9
:1042A0000041BDE8F08D4FF0010C0CEBE7720D9270
:1042B00052EA0A020BD0634A90427DDD624B634AA8
:1042C000984216DD8A420EDB002C1CDB2CE001201C
:1042D000FFF76AF914B00022BDE8F04D134610460E
:1042E0001146FCF7F8B95148884202DC002C0ADC80
:1042F0001AE0914202DA002C16DA04E04B4B9942A4
:104300001EDD002C10DD0220FFF74EF940F20132D5
:1043100000204FF0E041FCF7F5FB454A14B061F393
:104320001E021146BDE8F08D0220FFF73DF9FFF7B0
:1043300023F93E4A14B061F31E021146BDE8F08D28
:10434000002228463946FCF74EF9054688466FF0AC
:104350000102FCF7D7FB4FF055323D4BFCF746F915
:104360002A464346FCF745F900223A4BFCF73EF952
:1043700007468B462A46434610461946FCF739F94C
:104380003A465B46FCF735F909910C904FF0C04274
:10439000314B28464146FCF72CF907468B462F4AFD
:1043A0002D4B09990C98FCF724F9CDE901102C4A02
:1043B0002C4B2846414600E019E0FCF71AF9DDE9EC
:1043C0000132FCF710F93A465B4605910890FCF77C
:1043D00069F8002588463A465B462846FCF703F90B
:1043E000059B089AFCF702F9024600F076B9002016
:1043F000B1F5801F07DA352228461946FCF782FB03
:1044000005466FF0340000EB2150A0F2FF30019020
:10441000C1F3130040F07F6141F040510291124915
:10442000884223E0FFFF1F00FFFF0F000000F03F66
:104430000000F07F0000404301FCFFFF8C280000DB
:104440000000F0FF0000E0410000F043FFFFEF3FFD
:104450005555D53F0000E03F4715F73FFE822B65DD
:1044600044DF5DF80BAE543E8E980300D8BF4FF08A
:10447000000B0EDDFE498142C8BF4FF0010B08DC86
:1044800001984FF0000B401C01900298A0F580109D
:104490000290F8480299784400EBCB000B91109001
:1044A000D0E900232846FCF79EF800901098079169
:1044B000D0E9002328460B99FBF7F4FF02460B4690
:1044C0000020ED49FCF707F905910B4602460890DC
:1044D00007990098FCF78DF80690E8488846002771
:1044E0007844029900680E904FF0005040EA610055
:1044F00000EB8B4000F5002110980291D0E90023D9
:104500000E98FCF770F82A460B9BFCF76FF83A46BA
:104510004346FCF76EF805460B9138464146029B30
:104520000E9AFCF766F8079B009AFCF75FF82A469C
:104530000B9BFCF758F8059B089AFCF75AF80B916F
:104540001090069A434610461946FCF752F8054665
:104550000246CB480B46009106217844FEF7B6FF91
:10456000009B2A460291089010461946FCF741F834
:10457000029B089AFCF73DF80546059143463846EC
:104580001946069AFBF78EFF0B9B109AFCF731F841
:104590002A46059BFBF786FF3A464346059108905D
:1045A00010461946FCF725F80022B64B00910C90F6
:1045B000FBF778FF059B089AFBF774FF0D463A4618
:1045C000B04B3846FCF70FF8009B0C9AFCF70BF841
:1045D000059B089AFCF70AF811913A460C902B4675
:1045E00010464146FCF705F8079100904346069AAD
:1045F00011990C98FBF7FDFF804603912B463A4634
:104600000B991098FBF7F5FF4246039BFBF74AFF17
:10461000059180460B46024607990098FBF742FF3A
:1046200000200F460546079B009AFBF7DCFF424639
:10463000059BFBF7DBFF804609914FF06042924BF0
:1046400028463946FBF7D5FF009102908F4A8E4BE2
:1046500040460999FBF7CDFF804603918C4A8D4B6C
:1046600028463946FBF7C5FF4246039BFBF71AFF76
:10467000894A7A4402EBCB03D3E90023FBF712FF0C
:10468000069003910198FCF754FA0746DDE902030E
:104690000591069A0099FBF705FF804A7A4402EBE0
:1046A000CB0BDBE90023FBF7FDFE3A46059BFBF74E
:1046B000F9FE002588463A462846059BFBF793FFFE
:1046C000DBE90023FBF78FFF009B029AFBF78BFFD0
:1046D000039B069AFBF78AFF0246002006900D987E
:1046E000654FAAF10103184301D16D4F06900020D8
:1046F0000B46009030462146FBF77BFF82468B46F7
:10470000234630461946009AFBF76DFF2A4643467A
:10471000FBF76FFF52465B46FBF7C4FE06468A4630
:104720002A46434621460098FBF763FF04460D46A0
:1047300032465346FBF7B6FE5A4A8B46914226DB79
:10474000ABEB020353EA000210D122462B46FBF7E3
:104750004AFF80460591544A544B30465146FBF778
:10476000A1FE4246059BFCF70DFA30D20220FEF76F
:104770001BFF40F2013200204FF0E041FCF7C2F98C
:104780000A46394614B062F31E01BDE8F08D484B6D
:104790002BF000429A421AD3464A0BEB020353EA2B
:1047A000000208D122462B46FBF71DFF3246534636
:1047B000FCF7E8F90BD80220FEF7F6FEFEF7DCFE68
:1047C0000A46394614B062F31E01BDE8F08D2BF0A5
:1047D00000403949394A01EB20514FF0000882422C
:1047E00023DA481C4FF4801121FA00F05844344A6F
:1047F000C0F30A517A44334BA1F2FF31CB4020EA97
:104800000303C0F3130040F4801CC1F114001268CC
:104810002CFA00F8BBF1000FB8BFC8F10008204621
:104820002946FBF7E0FE04460D4622462B4630465D
:104830005146FBF737FE4FF0000B5A46224B5846C5
:104840000591FBF7D6FE00900791204A204B584671
:104850000599FBF7CEFE0491029022462B4658465E
:104860000599FBF7C0FE32465346FBF7BFFE31E029
:104870007AB60B00FE2400000000F03F3C2500004B
:104880006A2400000000084009C7EE3FFD033ADC3F
:10489000F5015B14E02F3EBE422300000823000018
:1048A0000000F0BF00009040FE822B654715973C4A
:1048B00000CC904000346F3F01FCFFFF0000E03F60
:1048C00028220000FFFF0F00432EE63F396CA80CA2
:1048D000615C20BE3F4A404BFBF78BFE049B029A73
:1048E000FBF7E0FD06468A46079B009AFBF7DAFDD8
:1048F00004460D46079B009AFBF775FE3246534669
:10490000FBF774FE064622462B46099110461946CF
:10491000FBF76FFE8346024630488A460B46052168
:104920007844FEF7D3FD5A465346FBF762FE224613
:104930002B46FBF75BFE82468B46324620462946D5
:10494000099BFBF756FE3246099BFBF7ABFD059131
:10495000089000224FF0804350465946FBF743FE33
:104960000646009152465B4620462946FBF741FE2B
:104970003246009BFBF7AFFE059B089AFBF733FE20
:1049800022462B46FBF72FFE0022154BFBF72EFE8F
:104990000D46044601EB08510815002810DC42467C
:1049A00020462946FCF7AEF8FEF77CFD042808BF38
:1049B000FEF7E2FD424620462946FCF7A3F80446EE
:1049C00006980B4614B022463946BDE8F04DFBF779
:1049D00010BE0000EF39FAFE422EE63FD420000060
:1049E0000000F03F2DE9F04106460F46FCF78AFA39
:1049F00004000D4618BF0120284320F00040C0F1FC
:104A00007F6000F1E040C00F0ED0301C18BF0120C5
:104A1000384320F00040C0F17F6000F1E040C00F5B
:104A200004BF0120FEF7C0FD20462946BDE8F08105
:104A3000014903C970470000480800200448D0E934
:104A400000305A1C40F100000149C1E900207047C4
:104A5000480800207CB504460D4618480068012827
:104A600014D11648D0F80C04401C1449C1F80C04A9
:104A70000846D0F80C04D1F81014884206DD012055
:104A80000E49486000200860C1F80C040B48D0F8BB
:104A90001404012806D10948D0F81804401C07491D
:104AA000C1F8180406A0AFF253010A220023CDE991
:104AB00000100748FDF748F87CBD0000140A0020EC
:104AC0005A69674265655F52656376696365000090
:104AD000300E00207CB504460D46012006490870C2
:104AE00006A0AFF20F0114220023CDE90010064802
:104AF000FDF72AF87CBD0000340800205A6967429F
:104B000065655F53656E6400480E00207CB5044601
:104B10000D4608480078401C0649087006A0AFF210
:104B200013014FF4FA720023CDE900100448FDF799
:104B30000BF87CBD510800204D515F320000000091
:104B4000600E00200000000000000000002F0000A8
:104B500000000700070000147F147F1400242A7F40
:104B60002A120062640813230036495522500000BF
:104B70000503000000001C224100000041221C002F
:104B80000014083E08140008083E0808000000A0B1
:104B900060000008080808080000606000000020AD
:104BA00010080402003E5149453E0000427F40008B
:104BB000004261514946002141454B310018141211
:104BC0007F10002745454539003C4A4949300001DE
:104BD0007109050300364949493600064949291E2D
:104BE000000036360000000056360000000814228F
:104BF000410000141414141400004122140800028F
:104C00000151090600324959513E007C1211127CB3
:104C1000007F49494936003E41414122007F4141E0
:104C2000221C007F49494941007F09090901003ED2
:104C30004149497A007F0808087F0000417F410010
:104C4000002040413F01007F08142241007F404086
:104C50004040007F020C027F007F0408107F003E6E
:104C60004141413E007F09090906003E4151215E54
:104C7000007F091929460046494949310001017F51
:104C80000101003F4040403F001F2040201F003FE7
:104C90004038403F00631408146300070870080799
:104CA00000615149454300007F41410000552A55AC
:104CB0002A55000041417F00000402010204004027
:104CC0004040404000000102040000205454547849
:104CD000007F484444380038444444200038444469
:104CE000487F00385454541800087E090102001807
:104CF000A4A4A47C007F080404780000447D400044
:104D0000004080847D00007F102844000000417F27
:104D10004000007C04180478007C08040478003803
:104D20004444443800FC242424180018242418FC8B
:104D3000007C0804040800485454542000043F44F4
:104D40004020003C4040207C001C2040201C003CB7
:104D50004030403C004428102844001CA0A0A07C07
:104D6000004464544C44141414141414000000003F
:104D700000000000000000000000FC000000000037
:104D800002000000000C020C020000000000000005
:104D900090D0BCD0BC900003000300001824FE4457
:104DA0008C000302070201001824D8B04C800003D5
:104DB00000010201C038E438E000010202010202F1
:104DC000080600000000000000000000000000F8DD
:104DD0000402000000010204000204F800000004C4
:104DE000020100009060F8609000000001000000E7
:104DF0002020FC2020000000010000000000000036
:104E000000000806000000002020202020000000F4
:104E10000000000000000000000000020000000090
:104E20000080601C0200040300000000F804040479
:104E3000F8000102020201000008FC00000000026C
:104E40000302000018844424180003020202020036
:104E500008042424D80001020202010040B088FCAA
:104E600080000000000302003C242424C40001024E
:104E700002020100F824242CC000010202020100F9
:104E80000C04E41C0400000003000000D8242424C7
:104E9000D80001020202010038444444F800000333
:104EA00002020100000010000000000002000000EB
:104EB00000002000000000000600000000205088D4
:104EC0000402000000000102909090909000000009
:104ED00000000000000204885020000201000000D1
:104EE0001804C4241800000002000000F804E49430
:104EF000F80001020202020000E09CF080000203C0
:104F00000000030204FC2424D80002030202010072
:104F1000F80404040C0001020202010004FC040471
:104F2000F80002030202010004FC24740C000203D6
:104F30000202030004FC24740C00020302000000BF
:104F4000F0080444CC4000010202010004FC2020CF
:104F5000FC040203000003020404FC040400020237
:104F600003020200000404FC04040604040300001D
:104F700004FC24D00C0402030200030204FC04001D
:104F80000000020302020203FC3CC03CFC000300E0
:104F90000300030004FC30C4FC040203020003000D
:104FA000F8040404F80001020202010004FC2424B5
:104FB0001800020302000000F8848404F8000102D3
:104FC0000207050004FC24649800020302000302A7
:104FD000182424448C000302020201000C04FC0487
:104FE0000C0000020302000004FC0000FC040001AD
:104FF00002020100047C80E01C04000003000000A9
:105000001CE03CE01C00000300030000049C609CCA
:105010000400020300030200041CE01C0400000260
:10502000030200000C84641C04000203020203005B
:105030000000FE020200000007040400000E30C061
:105040000000000000010200000202FE0000000457
:10505000040700000004020400000000000000003B
:10506000000000000000080808080808000002000E
:1050700000000000000000000040A0A0C0000001EF
:105080000202030204FC2020C0000003020201000F
:1050900000C02020600000010202020000C02024A5
:1050A000FC0000010202030200C0A0A0C000000139
:1050B000020202000020F82424040002030202007D
:1050C0000040A0A0602000070A0A0A0404FC202077
:1050D000C0000203020003020020E40000000002FE
:1050E00003020000000020E4000008080807000098
:1050F00004FC80E020200203020003020404FC0000
:105100000000020203020200E020E020C0000300D1
:105110000300030020E02020C0000203020003027D
:1051200000C02020C00000010202010020E0202079
:10513000C000080F0A02010000C02020E0000001AA
:10514000020A0F0820E040202000020302000000B5
:105150000060A0A020000002020203000020F8204E
:10516000000000000102020020E00020E000000139
:105170000202030220E02080602000000301000002
:105180006080E08060000003000300002060806019
:10519000200002030003020020E0208060200808B5
:1051A000070100000020A0602000000203020200AE
:1051B000000020DE0200000000070400000000FFE5
:1051C00000000000000F00000002DE2000000004CC
:1051D00007000000020102040402000000000000B9
:1051E00000000000000000000000000000000000BF
:1051F000000000F800000000000000333000000054
:1052000000100C06100C060000000000000000005A
:1052100040C07840C0784000043F04043F040400CC
:10522000007088FC08300000001820FF211E0000DC
:10523000F008F000E018000000211C031E211E00F1
:1052400000F00888700000001E2123241927211077
:1052500010160E000000000000000000000000001A
:10526000000000E0180402000000000718204000C1
:1052700000020418E00000000040201807000000B1
:10528000404080F0804040000202010F0102020015
:10529000000000F0000000000101011F01010100F9
:1052A000000000000000000080B07000000000005E
:1052B00000000000000000000001010101010101E7
:1052C000000000000000000000303000000000007E
:1052D0000000000080601804006018060100000053
:1052E00000E010080810E000000F102020100F0050
:1052F000001010F8000000000020203F20200000D7
:10530000007008080888700000302824222130002E
:1053100000300888884830000018202020110E0036
:105320000000C02010F8000000070424243F2400DF
:1053300000F80888880808000019212020110E00B4
:1053400000E0108888180000000F112020110E00C6
:1053500000380808C83808000000003F00000000BE
:105360000070880808887000001C222121221C007F
:1053700000E010080810E0000000312222110F00A8
:10538000000000C0C000000000000030300000003D
:1053900000000080000000000000806000000000AD
:1053A00000008040201008000001020408102000C6
:1053B0004040404040404000040404040404040011
:1053C00000081020408000000020100804020100A6
:1053D000007048080808F0000000003036010000A6
:1053E000C030C828E810E0000718272423140B0059
:1053F0000000C038E0000000203C230202273820D3
:1054000008F8888888700000203F202020110E00B6
:10541000C0300808080838000718202020100800AD
:1054200008F808080810E000203F202020100F0096
:1054300008F88888E8081000203F20202320180062
:1054400008F88888E8081000203F200003000000CA
:10545000C03008080838000007182020221E02006B
:1054600008F808000008F808203F210101213F202A
:10547000000808F8080800000020203F2020000055
:1054800000000808F8080800C08080807F00000045
:1054900008F888C028180800203F2001263820007E
:1054A00008F8080000000000203F202020203000E5
:1054B00008F8F800F8F80800203F003F003F2000FF
:1054C00008F830C00008F808203F200007183F0007
:1054D000E01008080810E0000F10202020100F0036
:1054E00008F808080808F000203F21010101000029
:1054F000E01008080810E0000F18242438504F006E
:1055000008F8888888887000203F2000030C30202D
:1055100000708808080838000038202121221C006B
:10552000180808F8080818000000203F20000000B4
:1055300008F808000008F808001F202020201F009D
:105540000878880000C83808000007380E010000FD
:10555000F80800F80008F800033C0700073C0300C7
:10556000081868808068180820302C03032C30202D
:105570000838C800C83808000000203F200000009C
:1055800010080808C83808002038262120201800F4
:10559000000000FE020202000000007F40404000C8
:1055A000000C30C000000000000000010638C00000
:1055B00000020202FE000000004040407F000000A8
:1055C00000000402020204000000000000000000CD
:1055D00000000000000000008080808080808080CB
:1055E00000020204000000000000000000000000B3
:1055F00000008080808000000019242222223F20A9
:1056000008F8008080000000003F112020110E00EB
:105610000000008080800000000E1120202011007A
:10562000000000808088F800000E112020103F202C
:105630000000808080800000001F222222221300B0
:10564000008080F0888888180020203F20200000FB
:105650000000808080808000006B949494936000B0
:1056600008F8008080800000203F210000203F20BB
:1056700000809898000000000020203F20200000BB
:10568000000000809898000000C08080807F0000AB
:1056900008F8000080808000203F24022D30200088
:1056A000000808F8000000000020203F2020000033
:1056B0008080808080808000203F20003F20003F4D
:1056C0008080008080800000203F210000203F205B
:1056D0000000808080800000001F202020201F000C
:1056E000808000808000000080FFA12020110E003B
:1056F0000000008080808000000E112020A0FF802C
:10570000808080008080800020203F2120000100D8
:10571000000080808080800000332424242419002D
:10572000008080E0808000000000001F202000003A
:105730008080000000808000001F202020103F207B
:10574000808080000080808000010E30080601000B
:1057500080800080008080800F300C030C300F00B0
:1057600000808000808080000020312E0E312000DB
:10577000808080000080808080818E70180601000B
:1057800000808080808080000021302C2221300029
:1057900000000000807C020200000000003F40404A
:1057A00000000000FF00000000000000FF000000FB
:1057B0000002027C800000000040403F000000002A
:1057C00000060101020204040000000000000000C5
:1057D00000000000000000000000000000000000C9
:1057E00000000000000000000000000000000000B9
:1057F000000000000000000000F0F0F000000000D9
:105800000000000000017F01000000000000000017
:10581000001C1C1C0000000000008060301C8C601C
:10582000301C0C0000000000000000000000000020
:10583000000000000000000000000000000000E088
:105840000000000000E000000086E69F8686868655
:10585000E69F860000011F01010101011F010100F7
:10586000000080C06020F820E0C0000000000307B6
:105870000C18FF70E18100000000070F10107F106E
:105880000F0700008060206080000000E020000022
:105890000F3020309F70DC371030C0000000100E39
:1058A00003000718101807000000C02020E0C00007
:1058B0000000000080E01F38E88703C43C040000BB
:1058C000070F1810100B070D1010080000808C4CEB
:1058D0003800000000000000000000000000000090
:1058E00000000000000000000000000000000000B8
:1058F00000000000000080E030080400000000000C
:1059000000FEFF0100000000000000000000030F87
:105910001820400000040830E08000000000000073
:105920000000000001FFFE00000000000040201801
:105930000F03000000000000000000000000C00095
:1059400000000000004266663C18FF183C66664294
:105950000000000000000300000000000000000044
:105960000000800000000000001010101010FF1058
:1059700010101010000000000000030000000000E4
:105980000000000000000000000000000000000017
:10599000000000000000000000808C4C3800000077
:1059A00000000000000000000000000000000000F7
:1059B0000010101010101010101010000000000047
:1059C00000000000000000000000000000000000D7
:1059D00000000000000000000000000000000000C7
:1059E00000001C1C1C000000000000000000000063
:1059F00000000000E0380C000000000080701C0374
:105A0000000000000060380E0100000000000000EF
:105A1000000080C060202060C080000000FEFF0108
:105A20000000000001FFFE000001070E1810101812
:105A30000E0701000000808080C0E0000000000030
:105A40000000000000FFFF00000000000000101038
:105A5000101F1F1010100000008040202020206028
:105A6000C080000000030300804020381F070000B2
:105A7000001C1A1918181818181F00000080C020E0
:105A8000202060C080000000000303001010182FC9
:105A9000E780000000070F10101010180F0700001B
:105AA000000000000000C0E0F000000000C0B0886E
:105AB000868180FFFF808000000000000010101F22
:105AC0001F1010000000E060606060606060000017
:105AD00000003F1008080818F0E0000000070B1055
