:020000040800F2
:10000000C0110020C1010008310D00089D0A000840
:100010004D0C000821090008CD1500080000000063
:100020000000000000000000000000005F0D00085C
:100030007D090008000000005D0D0008610D00084A
:10004000DB010008DB010008DB010008DB01000820
:10005000DB010008DB010008DB010008DB01000810
:10006000DB010008DB010008DB010008DB01000800
:10007000DB010008DB010008DB010008DB010008F0
:10008000DB010008DB010008DB010008DB010008E0
:10009000DB010008DB010008DB010008DB010008D0
:1000A000DB010008DB010008DB010008DB010008C0
:1000B0003D0E0008DB010008DB010008DB01000841
:1000C000DB010008DB010008DB010008DB010008A0
:1000D000DB01000835140008DB010008DB01000823
:1000E000DB010008DB010008DB010008DB01000880
:1000F000DB010008DB010008DB010008DB01000870
:10010000DB010008DB010008DB010008DB0100085F
:10011000BD0E00085D0F0008DB010008DB010008D0
:10012000DB010008DB010008DB010008DB0100083F
:10013000DB010008DB010008DB010008DB0100082F
:10014000DB010008DB010008DB010008DB0100081F
:10015000DB010008DB010008DB0100088114000856
:10016000DB010008DB010008DB010008DB010008FF
:10017000DB010008DB010008DB01000800000000D3
:10018000DB010008DB010008AD110008DB010008FD
:10019000DB010008DB010008DB01000800000000B3
:1001A000DB010008DB010008DB010008DFF80CD0F0
:1001B00000F08EF900480047F1220008C01100202D
:1001C0000648804706480047FEE7FEE7FEE7FEE7F1
:1001D000FEE7FEE7FEE7FEE7FEE7FEE7690D000843
:1001E000AD01000840EA01039B0703D009E008C9FC
:1001F000121F08C0042AFAD203E011F8013B00F8EC
:10020000013B521EF9D27047D2B201E000F8012B37
:10021000491EFBD270470022F6E710B513460A4686
:1002200004461946FFF7F0FF204610BD30B50546DD
:100230002A460B4612F8010B13F8014B08B1A042F5
:10024000F8D01CB1002802D06D1CF1E7284630BD63
:10025000034611F8012B00F8012B002AF9D11846AA
:10026000704700000FB400B58DB010A909900B9035
:1002700000914FF0FF300A9000200C900548069046
:10028000054807906A4609A80F9900F0F3F80DB0E9
:100290005DF814FB91040008AF0400082DE9FF5F2E
:1002A0001D464FF0FF3BD5E9014691465F464FF0B2
:1002B0000008A9697F1C01988847296A82468847F7
:1002C0000028F6D1BAF1FF3F0CD024F4C064002E10
:1002D00019DD600614D5BAF12B0F09D0BAF12D0F34
:1002E0000ED103E0584604B0BDE8F09F44F48064AA
:1002F000A9697F1C01988847761E8246002E02DD80
:10030000BAF1300F03D0B9F1000F26D032E0A9695D
:10031000761E44F400747F1C019888478246002EA4
:1003200005DDBAF1780F06D0BAF1580F03D0B9F154
:10033000000F10D01EE0B9F1000F02D0B9F1100F7C
:1003400018D1A969761E24F400747F1C019888478F
:100350008246102002E0082000E00A20814609E0E1
:1003600008FB0908A969761E44F400747F1C0198F3
:1003700088478246002E05DD4946504600F065F864
:100380000028EDDAE96901988847A00502D46FF0EA
:100390000100A8E7E00725D1600613D5600502D566
:1003A000C8F1000000E0404629680A1D2A6009687B
:1003B000220501D5087015E0220701D5088011E05B
:1003C00008600FE02868011D29600068210502D53A
:1003D00080F8008006E0210702D5A0F8008001E047
:1003E000C0F8008038467EE72DE9F05F0546002022
:1003F00092469B4688460646814640241BE0284696
:1004000041464746224600F084F853465A46C01AF1
:10041000914110D311461846224600F06BF82D1A70
:1004200067EB01084F4622460120002100F062F8E8
:1004300017EB00094E41201EA4F10104DFDC484601
:1004400031462A464346BDE8F09F3A2800D230386C
:1004500020F02002412A01D3A2F13700884201D3C3
:100460004FF0FF30704700000268114413780160BC
:1004700018467047D1600449516104491162002156
:100480001161114600F05AB86904000833050008EC
:10049000426842B1016811F8013B23B1521EC0E924
:1004A0000012184670470121C160881E70474268DB
:1004B0005AB1C368016843B983688B4205D0491EAD
:1004C000521CC0E90012002070474FF0FF30704707
:1004D000064C074D06E0E06840F0010394E8070091
:1004E00098471034AC42F6D3FFF764FEF42E0008B0
:1004F000142F0008202A04DB203A00FA02F1002021
:1005000070479140C2F1200320FA03F31943904051
:100510007047202A04DB203A21FA02F000217047BC
:1005200021FA02F3D040C2F120029140084319465B
:100530007047C0B24FF4F05100F094B92DE9F34F79
:100540008BB04FF0000801F10C000C464FF0010B8E
:1005500046460DF1080A0190626901210198904711
:1005600005002DD0252D2CD0216A8847C0B16269A5
:10057000012101989047216A88470028F7D1411E40
:1005800062690198904700E0761CA1690B98884742
:10059000216A88470028F7D1E1690B988847DBE793
:1005A000A1690B9888470746A84201D1761CD3E77A
:1005B000E1690B9888477F1C02D1B8F1000F6FD01A
:1005C00043E1002762693D463946019890472A2851
:1005D00004D162690121019890470125DFF88092DA
:1005E0006269012101989047A0F130010A290AD2DD
:1005F0004F45E5DC07EB870100EB4107303FDFD4D7
:1006000045F01005ECE7E90601D46FF000476C28CF
:100610000AD04C2814D0682815D06A280DD0742828
:100620001CD07A281AD01DE06269012101989047F8
:100630006C2802D045F0040514E045F002050DE0F9
:1006400045F020050AE06269012101989047682879
:1006500002D045F0080505E045F400656269012116
:1006600001989047C4E9015765283DD019DC582806
:1006700077D00CDC452837D004DC252826D041284B
:1006800031D131E046282FD047282CD12CE05B28EF
:100690007DD0612828D0632879D0642823D157E001
:1006A000CDE06F2845D008DC66281DD067281BD018
:1006B000692821D06E2816D127E0702842D07328EF
:1006C00065D0752844D078280DD14AE0A1690B98EF
:1006D0008847054625283FF469AFE1690B988847AC
:1006E0006D1C3FF46AAFB0E023466A466FF001002C
:1006F0000B99AFF300809BE045F040006060A807D5
:1007000023464FF0000233D43BE02068011D2160F6
:100710000068290501D506701EE7290701D5068066
:100720001AE7A90703D5F117C0E9006114E70660CD
:1007300012E745F040006060A80723464FF008022A
:1007400016D41EE040F60E0125EA0100606016E0B6
:1007500045F040006060A80723464FF00A0207D426
:100760000FE045F040006060A80708D5234610223E
:100770006FF001000B99AFF3008059E007E02346CA
:1007800010226FF001000B99FFF788FD50E04FF049
:1007900000094F464B46632802D05B2806D040E054
:1007A000E80601D40120A06001273AE06269012136
:1007B000019890475E2805D14FF0010962694946CA
:1007C00001989047216939B900210B46524642F8F9
:1007D0002130491C0829FADBB0B3216969B9C11776
:1007E00000EBD1614B110AEB830221F01F01411A8A
:1007F0000120136888400343136062690121019856
:1008000090475D28E8D1B9F1000F09D0002051468A
:1008100051F82020D24341F82020401C0828F7DB63
:1008200002AB224600976FF001000B99AFF30080F6
:1008300000280CDA401C08D1BBF1000F05D04FF0A6
:10084000FF300DB0BDE8F08FFFE74046F9E7E9075C
:1008500001D108F1010806444FF0000B7CE60000CE
:10086000CCCCCC0C7F2801D9002208E0064A02EB50
:100870005002C007127800D1120902F00F020120C5
:100880009040084070470000B22E00080A200B4933
:1008900048601E2008601420C86041208860142031
:1008A0004861502008611420C8614FF47A70886153
:1008B0000020086248628862704700000802002039
:1008C00010B540F6024001F091FE4FF48073002213
:1008D0000121084801F0C3FC4FF48073022200217B
:1008E000044801F0E3FC4FF48070024928310860AD
:1008F00010BD00000008024010B504464FF480709F
:1009000006490860204601F0ADF94FF480700349B4
:1009100010310860204601F0A5F910BD180802400A
:1009200000BFFEE770B504460D462CB907A000F0E5
:1009300033FF0020286006E0012C04D109A000F05C
:100940002BFF01202860002070BD00004368616E0D
:1009500067655F6D6F6465204155544F4F4E0D0ABA
:10096000000000004368616E67655F6D6F6465201D
:100970004155544F4F46460D0A0000007047000095
:100980000FB410B586B0044624480068B0F5C87F9F
:100990003FDD2348006806283BD021480068052831
:1009A00037D01F480068022833D01D480068072848
:1009B0002FD094B9DDE90D32DDE90F01CDE9022335
:1009C000CDE90410DDE90B10CDE9000115A12048A7
:1009D000DDE9093200F0F0FE11E0012C0FD1210217
:1009E0001B48FFF718FCDDE913121598CDE900123A
:1009F000029018A11648DDE9112300F0DDFE14482D
:100A000000F02AFA12491EA000F0C6FE0020034999
:100A1000086006B010BC5DF814FB0000D800002090
:100A200084000020532D4F4E2D543A25642B25640D
:100A30002D483A25642B25642D493A25642B2564DD
:100A40002D533A25642B25642D450D0A0000000026
:100A500040040020532D4F46462D413A25642D4336
:100A60003A25642D573A25642D4C4544313A256486
:100A70002D4C4544323A25642D450D0A00000000F6
:100A8000D6F7BBFAB7A2CBCDB5C4BFD8D6C6D3EF85
:100A9000BEE4A3BA25730D0A0000000000BFFEE704
:100AA00070B505460C462069002874D021783AA01C
:100AB00000F072FE2078432831D1E06808282AD25D
:100AC000DFE800F004080B10151A1F24281D6168C8
:100AD000086020E0606805601DE005F10C006168B9
:100AE000086018E005F108006168086013E005F18E
:100AF0001400616808600EE005F11000616808608C
:100B000009E005F11C006168086004E005F11800C7
:100B10006168086000BF00BFE068401CE0602078AA
:100B200042282BD012DC15282CD008DC072828D02E
:100B3000082820D0092826D00C2829D118E016280A
:100B400015D0182815D01C2822D115E04A2817D016
:100B500006DC452818D0462818D0472818D116E0BA
:100B600052280CD05A2808D05E2811D102E00FE09C
:100B70000EE00DE00CE00BE00AE009E008E007E021
:100B800006E005E004E003E002E004E000E000BF6E
:100B900000BF0020206170BD256300007FB50446C2
:100BA0000D461E48C0F814444068012806D01CA118
:100BB0001A480C30FFF73AFB00282CD01748807CED
:100BC0001649497C154A127C144BDB7BCDE9003277
:100BD000CDE902101148837B427B017B11A000F01C
:100BE000DBFD0E490C3117A000F0D6FD0B490C318E
:100BF0002846FFF72DFB4FF4806108480C30FFF7C3
:100C00000AFB0020054988600860C1F810044860AC
:100C1000012004B070BD0020FBE700008807002021
:100C2000454E440025327820253278202532782020
:100C300025327820253278202532782025327820F8
:100C40000D0A000025730D0A0000000000BFFEE73A
:100C5000014602480160002070470000CC000020DF
:100C60002DE9F047044616461F46DDE9088914B110
:100C7000B8F1000F03D14FF0FF30BDE8F087184DF9
:100C800006E02868A04202D12068286003E02D68B1
:100C900028680028F5D100BF1248006880478019F5
:100CA0007941C4E90201C4F81080C4F814900C4DD5
:100CB00000BF286818B9002020602C600DE0D4E93E
:100CC00002302A68D2E90212591A904103D22868E8
:100CD00020602C6001E02D68EBE700BF0020CCE72E
:100CE000C8000020CC00002010B50F48046817E0B1
:100CF0000E4800688047D4E90232C01A914105D2FB
:100D00000A4800688047A168081A10BD0649206893
:100D10000860206918B12046D4E90421904724686E
:100D2000002CE5D10020F0E7C8000020CC00002016
:100D30007047000010B5002807DA0A07140E054AAC
:100D400000F00F031B1FD45403E00A07130E024ADE
:100D5000135410BD18ED00E000E400E07047704748
:100D600010B500F089FF10BD08B53048006840F4A8
:100D700070002E4908602E48006840F001002C49A0
:100D8000086000BF2A48006800F002000028F9D07F
:100D900000BF27480830006840F08000244908312F
:100DA00008600020009002E00098401C009000982D
:100DB0005028F9D31E480830006840F090001C49C4
:100DC000083108600020009002E00098401C00906C
:100DD00000985028F9D300BF15480830006820F06B
:100DE00003001349083108601148006811490840A0
:100DF0000F4908600846006820F480200860002041
:100E00000B490831086000BF09480830006800201D
:100E10000028F9D108480649091D08600020044946
:100E20000C31086001F096FC08BD000088ED00E080
:100E300000380240FFFFF6FE1030002410B50121FB
:100E4000880701F0A0FE012805D10121800701F0EB
:100E500097FE01F0B1FC10BD10B50446144C0421FE
:100E6000144800F015FF20220421124800F0B5FFBD
:100E70002346002204210F4801F032F84FF480721B
:100E800004210C4801F0F9F804210A4800F010FF91
:100E9000032000F0E7FE8021074801F081FF00BF3A
:100EA00020220421034800F0B7FF0028F8D010BD2D
:100EB0004004002000600240004C004010B50421B6
:100EC0001F4801F089FF002839D002211D4800F099
:100ED000DFFE1D491A4801F09BFF194801F0DEFEB4
:100EE0000621174801F078FF20220221154800F062
:100EF000D8FF0221134801F0C8F8C0F580701349EB
:100F000008600846124902681248FFF76BF9002092
:100F100010490E4A1268885401200F4908700C4B82
:100F200000220221074800F0DBFF4FF4807202210B
:100F3000044801F0A2F80221024800F0B9FE10BDF9
:100F4000004C00400060024004030400C000002088
:100F50004005002040060020C500002010B50521F6
:100F6000114801F039FFF0B110490F4801F050FF6E
:100F700000200F49C1F810040846806808B9012014
:100F800008600B488068B0F5806F0CDA064801F005
:100F900085FEC1B2064882688068401C044B986098
:100FA00003F10C00815410BD005000400503050002
:100FB0008807002070B5054600243648854200D1D8
:100FC00000BF40F6024001F011FB40F6034001F083
:100FD0000DFB314931F8140001F008FB2F4850F89F
:100FE000242008212E4801F00BF92E4850F8242027
:100FF00008212D4801F004F9284850F82430012236
:101000000221274801F02BF9244850F8243002220D
:101010000021234801F04AF9224850F824300122E7
:101020000221214801F01BF91E4850F82430022209
:1010300000211D4801F03AF9164801F039FE4FF43D
:10104000E131144801F0B6FD0021124801F009FF1A
:101050000021104801F025FF00210E4801F011FF8A
:1010600004210C4801F005FF08210A4801F011FF96
:10107000084801F09FFE00221146352001F0B8F922
:101080000A49044801F0C4FE40F20531014801F06C
:10109000B2FE70BD00500040DC000020E0000020E7
:1010A00000080240E4000020000C02400603060095
:1010B00070B5054600243748854200D100BF40F690
:1010C000044001F093FA344931F8140001F08EFA2B
:1010D000324850F824200821314801F091F8314875
:1010E00050F8242008212E4801F08AF82B4850F8A7
:1010F0002430012202212A4801F0B1F8274850F893
:10110000243002220021264801F0D0F8254850F86A
:10111000243001220221224801F0A1F8214850F890
:101120002430022200211E4801F0C0F8194801F0C5
:10113000BFFD4FF4E131174801F03CFD0021154897
:1011400001F08FFE0021134801F0ABFE0021114891
:1011500001F097FE04210F4801F08BFE08210D4895
:1011600001F097FE00221146522001F041F90E498C
:10117000084801F04DFE40F20531064801F03BFE03
:101180004FF44171034801F036FE024801F012FEAF
:1011900070BD000000780040E8000020EC00002056
:1011A00000100240F00000200603060010B50521E3
:1011B000174801F011FEC8B11649154801F028FE84
:1011C0001548D0F80002B0F5FF7F1FDA104801F093
:1011D00065FDC4B21048D0F80012D0F80002401CDF
:1011E0000D4AC2F80002104644540FE0042108489A
:1011F00001F0F2FD50B10949054801F009FE04482B
:1012000001F04CFD01200449C1F8040210BD0000AA
:101210000078004005030500A00B00200403040033
:1012200070B596B00446402106A8FEF7F4FF0025ED
:10123000002606A90F20FFF7B1FC012874D110E0A9
:101240003046761E444A02EB001106A8FEF7EEFF78
:1012500008B1B51C0FE0B54203D142F2B82016B078
:1012600070BD28466D1C3C4A02EB001106A8FEF733
:10127000DDFF0028E4D000BF6D1E082D63D2DFE83B
:1012800005F0040B12192F4C545B34A000F084FAC3
:10129000002036490860E2E735A000F07DFA012021
:1012A00032490860DBE736A000F076FA02202F49C9
:1012B0000860D4E706A937A000F06EFA04F1300008
:1012C000011F0A1F131FCDE900210290083A36A121
:1012D00006A8FEF7C7FF42F2B82024490860BEE71F
:1012E00006A937A000F058FA04F11800011D04F116
:1012F0001002031FCDE90232CDE904101038011DA0
:101300002346221DCDE9001033A106A8FEF7AAFF4F
:1013100042F2B82015490860A1E739A000F03CFA74
:101320000520124908609AE712E03AA000F034FA6A
:1013300006200E49086092E73BA000F02DFA072036
:101340000A4908608BE742F2B8200849086086E73E
:1013500042F2B82083E70000040000206361736557
:101360003A4155544F4F4E0D0A00000084000020B2
:10137000636173653A4155544F4F46460D0A00006C
:10138000636173653A4155544F4F4648414E444F4F
:101390004E0D0A00636173653A48414E444E554D07
:1013A0003A25730D0A00000048414E444E554D2D1C
:1013B00025642D25642D25642D25642D25640000CC
:1013C000636173653A5448524553484F4C445F53E8
:1013D00045543A25730D0A005448524553484F4C22
:1013E000445F5345542D25642B25642D25642B25FE
:1013F000642D25642B25642D25642B2564000000B5
:10140000636173653A5345545A49474245450D0A4D
:1014100000000000636173653A5A494742454543FD
:101420004F4E4649470D0A00636173653A53455470
:101430000D0A000010B50E490E4801F0F6FCB0B1DF
:101440000B490C4801F0E4FC0A4801F027FC062196
:10145000084801F0C1FC074801F020FCC1B2064871
:1014600002780078401C044B18700448815410BD69
:101470000503050000100140AC00002040030020DF
:1014800010B505210E4801F0A7FC48B10D490C48E4
:1014900001F0BEFC0A4801F001FC0B4908700EE0A7
:1014A0000421074801F098FC48B10849044801F0BC
:1014B000AFFC034801F0F2FB01200349086110BDB5
:1014C0000014014005030500A80D002004030400DA
:1014D00070B5054600243748854200D100BF40F66C
:1014E000024001F083F8344931F8140001F07EF82D
:1014F000324850F824200821314800F081FE31485C
:1015000050F8242008212E4800F07AFE2B4850F88D
:101510002430012202212A4800F0A1FE274850F879
:10152000243002220021264800F0C0FE254850F851
:10153000243001220221224800F091FE214850F877
:101540002430022200211E4800F0B0FE194801F0AC
:10155000AFFB4FF41651174801F02CFB0021154842
:1015600001F07FFC0021134801F09BFC0021114891
:1015700001F087FC04210F4801F07BFC08210D4895
:1015800001F087FC00221146472000F031FF0E4990
:10159000084801F03DFC40F20531064801F02BFC03
:1015A0004FF44171034801F026FC024801F002FCAF
:1015B00070BD000000140140F4000020F80000207D
:1015C00000080240FC0000200603060000BFFEE702
:1015D00030B589B005460120664908700024664888
:1015E000854200D100BF40F6024000F0FFFF634992
:1015F00031F8140000F0FAFF40F6154000F0F6FF55
:101600005F4850F8242008215E4800F0F9FD5E484C
:1016100050F8242008215B4800F0F2FD584850F8AB
:10162000243001220221574800F019FE544850F896
:10163000243002220021534800F038FE524850F86E
:101640002430012202214F4800F009FE4E4850F894
:101650002430022200214B4800F028FE284601F0E9
:1016600027FB4FF4E131284601F0A4FA0021284677
:1016700001F0F7FB0021284601F013FC0021284669
:1016800001F0FFFB0421284601F0F3FB0821284666
:1016900001F0FFFB284601F08DFB684600F0DCFC02
:1016A00004213A4800F047FB402006903848029059
:1016B0000020039004904FF4807007902E48001D86
:1016C0000090012001904FF4403008906A460421B8
:1016D0002E4800F015FC04212C4800F00CFB0422DD
:1016E00011462A4800F0F4FA10220421274800F09D
:1016F000B9FB0421254800F0DBFA0221234800F061
:101700001AFB0020069023480290002003900490CA
:101710004FF4807007901848001D00900120019040
:101720004FF4403008906A460221184800F0E8FB68
:101730000221164800F0EFFA04220221134800F0BB
:10174000C7FA10220221114800F08CFB02210F4839
:1017500000F0AEFA4021084801F018FB00221146C3
:10176000342000F045FE4FF44171034801F043FB83
:1017700009B030BDC4000020004C0040B000002083
:10178000B400002000080240B800002000600240C1
:1017900040040020400500200FB4054B10B503A9FC
:1017A000044A029800F02CF810BC5DF814FB00000D
:1017B0009D200008040100200FB4084B10B504A9B7
:1017C00002AA039800F01CF8044602A9002000F0C9
:1017D00044FA204610BC5DF814FB00005B1C0008B6
:1017E00002E008C8121F08C1002AFAD170477047EA
:1017F000002001E001C1121F002AFBD17047000048
:101800002DE9FF4F8DB00F460546002606E025283E
:101810000BD0DDE90F1290476D1C761C287800284C
:10182000F5D111B03046BDE8F08F0024A246A146A4
:101830000122EA4900E0044315F8013F203B02FA87
:1018400003F00842F7D128782A2810D06FF02F0231
:101850002878A0F13001092914D80AEB8A0102EB9B
:10186000410144F0020400EB010A6D1CF0E701CFD6
:101870005FEA000A03D544F40054CAF1000A44F0B8
:1018800002046D1C28782E2817D115F8010F44F09A
:1018900004042A280ED06FF02F022878A0F130011E
:1018A00009290AD809EB890102EB410100EB010982
:1018B0006D1CF2E757F8049B6D1C28786C280FD03C
:1018C00006DC4C2817D068280DD06A2814D104E013
:1018D000742810D07A280FD10DE044F400140AE0E7
:1018E00044F4801401E044F440146978814202D148
:1018F00004F580146D1C6D1C2A786E2A1FD00CDC38
:10190000632A31D004DC002A8BD0582A11D19FE001
:10191000642A68D0692A0CD165E0732A2ED004DCD1
:101920006F2A73D0702A04D197E0752A6FD0782A75
:101930006ED01046DDE90F129047761C4CE1C4F3DF
:101940000250022806D0032809D0042801CF09D06C
:10195000066041E101CFF117C0E900613CE101CF30
:10196000068039E1067037E117F8040B8DF80000A6
:1019700000208DF80100EB46012003E057F804BB7E
:101980004FF0FF3061074FF0000102D40DE008F185
:101990000101884649450FDA8045F8DB1BF808103D
:1019A0000029F4D108E008F1010188468142FADB00
:1019B0001BF808100029F6D1DDE90F23AAEB080077
:1019C0008146214600F032F9304400EB080604E07D
:1019D000DDE90F121BF8010B9047B8F10108F7D2AF
:1019E00021464846F3E00A21C4F302534FF0000BAE
:1019F0000891022B04D001CFC117032B09D00AE0B4
:101A0000FF1D27F00707F7E8020108E02EE01DE0C0
:101A10001EE000B2C117042B01D140B2C11700294A
:101A200007DA4FF0000CD0EB0C006CEB01012D231A
:101A300002E0230504D52B238DF82430012303E095
:101A4000E30701D02023F7E7984656E00A210EE08D
:101A500010204FF0000B08900CE010214FF0000B0D
:101A600044F004044FF00809089103E008214FF006
:101A7000000B0891C4F30253022B04D001CF0021C4
:101A8000032B06D006E0FF1D27F00707F7E8020149
:101A900003E080B2042B00D1C0B24FF0000823074E
:101AA0002BD5702A07D0DDF820C08CF0100C5CEA32
:101AB0000B0C05D00EE040238DF82430012308E004
:101AC00050EA010306D030238DF824308DF825200C
:101AD00002239846DDF820C08CF0080C5CEA0B0C61
:101AE0000BD150EA010301D1630706D530238DF8ED
:101AF00024304FF00108A9F10109582A04D038A276
:101B00000B9208AA0A920BE03AA2F9E75B46089A00
:101B1000FEF76AFC0B9B9B5C0A9A521E0A9213709A
:101B200050EA0102F2D10A98ADEB000000F1200B5F
:101B3000600702D524F4803401E04FF00109D94553
:101B400002DDA9EB0B0000E0002000EB0B0141449B
:101B50000890AAEB010AE00306D4DDE90F23214631
:101B6000504600F063F806444FF0000908E009A968
:101B700011F80900DDE90F12904709F10109761CFF
:101B8000C145F4DBE0030CD5DDE90F2321465046C7
:101B900000F04CF8064404E0DDE90F1230209047D5
:101BA000761C0899481E08900029F5DC08E00A9880
:101BB0000A990078491C0A91DDE90F129047761CBA
:101BC000BBF10001ABF1010BF1DC21465046DDE930
:101BD0000F2300F019F806446D1C1FE609280100C8
:101BE0003031323334353637383961626364656693
:101BF0000000000030313233343536373839414255
:101C000043444546000000002DE9F041044600250C
:101C10001E461746880404D405E039462020B04704
:101C20006D1C641EF9D52846BDE8F0812DE9F04110
:101C3000044600251E469046C80301D5302700E023
:101C40002027880404D505E041463846B0476D1C7E
:101C5000641EF9D52846BDE8F0810A68531C0B6064
:101C6000107070470349086000BF024909680029E5
:101C7000FBD17047000000200448006820B10348F1
:101C80000068401E01490860704700000000002005
:101C900010B501EB4102D30000F11002D25822F03E
:101CA000010301EB4102D40000F11002135110BDF9
:101CB00010B501EB4102D30000F11002D25842F0FE
:101CC000010301EB4102D40000F11002135110BDD9
:101CD00030B5134601EB4104E50000F110046259F0
:101CE00022F0606242EA436201EB4104E50000F148
:101CF0001004625130BD10B501EB4102D30000F178
:101D00001002D25822F4807301EB4102D40000F19A
:101D10001002135110BD10B501EB4102D30000F1C8
:101D20001002D25842F4807301EB4102D40000F15A
:101D30001002135110BD10B501EB4102D30000F1A8
:101D40001002D25822F0010301EB4102D40000F14D
:101D500010021351002301EB4102D40000F11002E4
:101D6000135101EB4102D40000F11402135101EBB5
:101D70004102D40000F11802135101EB4102D400DA
:101D800000F11C02135101EB4102D40000F12002CA
:101D9000135101EB4102D40000F124021351042934
:101DA0000CDA01EB41025300C1F3400203EB820362
:101DB0003D229A4083681A4382600DE00A1FD1B227
:101DC00001EB41025300C1F3400203EB82033D22C9
:101DD0009A40C3681A43C26010BD10B504290CDADA
:101DE00001EB41035C00C1F3400304EB830302FAFF
:101DF00003F38468234383600DE00B1FD9B201EB2A
:101E000041035C00C1F3400304EB830302FA03F3D4
:101E1000C4682343C36010BD10B5034604290FDA1C
:101E200001EB41004400C1F3400004EB800402FADE
:101E300004F01C68204008B1012010BD0020FCE720
:101E4000081FC1B201EB41004400C1F3400004EBA4
:101E5000800402FA04F05C68204008B10120ECE73D
:101E60000020EAE730B5802A0DD001EB4103DC0009
:101E700000F110031B59134301EB4104E50000F18D
:101E8000100463510CE001EB4103DC0000F124037A
:101E90001B59134301EB4104E50000F12404635195
:101EA00030BD10B504290CDA01EB41035C00C1F32D
:101EB000400304EB830302FA03F384682343836043
:101EC0000DE00B1FD9B201EB41035C00C1F34003ED
:101ED00004EB830302FA03F3C4682343C36010BD19
:101EE00030B532B101EB4104E50000F1200463514B
:101EF00005E001EB4104E50000F11C04635130BD35
:101F000070B501EB4104E50000F12404645924F0AC
:101F1000040501EB4104E60000F12404A55101EBA6
:101F20004104E60000F118041568A55101EB4104D5
:101F3000E60000F11C049568A55101EB4104E600A0
:101F400000F11404D569A55101EB4104E50000F14D
:101F5000100463593F4C2340146944EA8404156A11
:101F60002C4395692C43234301EB4104E50000F128
:101F700010046351546874B901EB4104E50000F1A9
:101F80001004645944F4007501EB4104E60000F1CB
:101F90001004A5511FE05468012C0ED101EB41043F
:101FA000E50000F11004645924F4007501EB4104CC
:101FB000E60000F11004A5510DE001EB4104E5003D
:101FC00000F11004645944F4004501EB4104E600BB
:101FD00000F11004A551D46874B901EB4104E50087
:101FE00000F11004645944F4806501EB4104E600FB
:101FF00000F11004A5510DE001EB4104E50000F1F2
:102000001004645924F4806501EB4104E60000F1FA
:102010001004A551546974B901EB4104E50000F1C5
:102020001004645944F4807501EB4104E60000F1AA
:102030001004A5510DE001EB4104E50000F110048E
:10204000645924F4807501EB4104E60000F11004AA
:10205000A55170BD3F87FCFF002101600121416057
:10206000002181600121C1600021016101214161E4
:1020700000218161C1610162704710B501EB41032C
:10208000DC0000F114031A5110BD024601EB4100BF
:10209000C30002F11400C0587047000070B5044638
:1020A0000D460621074800F08AFEE1B2054800F01F
:1020B000FAFD00BF0721034800F08EFE0028F9D08A
:1020C000204670BD0010014070B50546002432481E
:1020D000854200D100BF40F6014000F087FA2F4949
:1020E00031F8140000F082FA2D4850F8242007211E
:1020F0002C4800F085F82C4850F824200721294866
:1021000000F07EF8264850F82430012202212548AC
:1021100000F0A5F8224850F824300222002121487E
:1021200000F0C4F8204850F82430012202211D4854
:1021300000F095F81C4850F824300222002119487C
:1021400000F0B4F8144800F0B3FD4FF4E131124848
:1021500000F030FD0021104800F083FE00210E4801
:1021600000F09FFE00210C4800F08BFE04210A487D
:1021700000F07FFE0821084800F08BFE064800F0C2
:1021800019FE40F20531044800F035FE40F20731F7
:10219000014800F030FE70BD00100140A00000209A
:1021A000A400002000040240A800002010B504464E
:1021B000104931F8140000F019FA0F4951F8243091
:1021C0000E4951F824000022012100F048F80A4984
:1021D00051F82430094951F824000222002100F06E
:1021E00065F8054850F82400044951F82410C862E5
:1021F00010BD00009C000020940000208C000020F6
:10220000F0B503461C6A5D6A00200DE00126864099
:1022100016403EB187000F26BE40B443860001FA47
:1022200006F63443461CB0B20828EFD3082011E06C
:102230000126864016405EB1A0F10806B7000F26C1
:10224000BE40B543A0F10806B60001FA06F63543D4
:10225000461CB0B21028EBD31C625D62F0BDF0B535
:1022600004460D4616462168E268002019E0012761
:1022700087401F409FB14FEA400C032707FA0CF735
:10228000B943470005FA07F739434FEA400C0327E3
:1022900007FA0CF7BA43470006FA07F73A43471C18
:1022A000B8B21028E3D32160E260F0BDF0B50C466F
:1022B0001546012C03D146681E43466002E046687D
:1022C0009E434660826800210DE001268E401E403C
:1022D0003EB14F000326BE40B2434E0005FA06F65B
:1022E00032434E1CB1B21029EFD38260F0BD000022
:1022F0008CB0002400200B90FEF7C8FA00F02EFAF4
:102300000121880700F0B8FA0020FFF74FFF0120F5
:10231000FFF74CFF2248FFF7D7FEFEF7D1FAC8209F
:10232000FEF7EAFA1F48FFF753F91F48FEF742FE8F
:102330001E48FEF7BDFE1E48FFF7CAF81D48FEF70F
:1023400087FC1DA020490A220023CDE900101F4868
:10235000FEF786FC1EA022494FF4FA620023CDE965
:1023600000102048FEF77CFC18E0FEF7BDFC1E487C
:10237000FEF756FF04460BA92046FEF7D3FA2C229F
:1023800019490C316846FDF72DFF17480EC80B9808
:10239000FEF7F6FA15491448FEF782FBE5E7000060
:1023A00000100140004C0040005000400078004008
:1023B00000140140AD2700085A69674265655F5205
:1023C0006563766963650000D12700084007002037
:1023D0005A69674265655F7072696E7466000000D5
:1023E0003D2800085807002008020020A80D002002
:1023F0002DE9F04103460D46164600240027A0466D
:102400002A48006800F4E060B0F5E06F03D100BF37
:102410004FF0040830E02548006800F4E060B0F5B3
:10242000C06F03D101274FF0030825E01F48006863
:1024300000F4E060B0F5A06F02D10227B8461BE0BF
:102440001A48006800F4E060B0F5806F03D10327FC
:102450004FF0010810E01548006800F4E060B0F5A6
:10246000407F03D104274FF0000805E04FF4A0603F
:1024700000F020F80227B846C7F1040005FA00F47E
:10248000C8F104010F20C84030400443240108482B
:10249000C45403F01F01012088405911890001F143
:1024A000E021C1F80001BDE8F08100000CED00E082
:1024B00000E400E002490143024A11607047000055
:1024C0000000FA050CED00E02DE9F04F8CB0064657
:1024D00000200A903EA090E8004CC068CDE905BEFF
:1024E000CDF810A007900FF2EC0ADAE9000ACDE966
:1024F000020A0FF2E00ADAE9000ACDE9000A3848D8
:102500000068C0F381000B900B9820B1012804D023
:10251000022828D103E0334927E0334925E0304839
:10252000001F006800F03F072D48001F0068C0F33F
:10253000881C2B48001F0068C0F30140401C4FEA74
:1025400040092748001F006800F48008B8F5800F94
:1025500001D1254B00E0234BB3FBF7F000FB0CF05F
:10256000B0FBF9F101E01F4900BF00BF1C48006843
:10257000C0F3031404A8055D21FA05F218480068A9
:10258000C0F3822402A8055D22FA05F009901448E0
:102590000068C0F342341DF8045022FA05F0089098
:1025A00036B1012E06D0022E06D0032E0AD106E047
:1025B0000A9108E00A9206E009980A9003E0089858
:1025C0000A9000E000BF00BF0A980CB0BDE8F08F91
:1025D00000000000000000000102030406070809D3
:1025E000083802400024F400001BB700074A02EB41
:1025F0009011D1F8001800F01F0301229A401143F6
:10260000024B03EB9012C2F80018704700300240F2
:10261000074A02EB9011D1F8001800F01F030122C5
:102620009A409143024B03EB9012C2F80018704796
:1026300000300240074A02EB9011D1F8001800F078
:102640001F0301229A401143024B03EB9012C2F880
:102650000018704700300240002000213A4A1268FA
:1026600042F00102384B1A6000BF401C364A126823
:1026700002F0020111B9B0F5A06FF6D1324A12682A
:1026800002F002020AB900BFFEE72F4A4032126888
:1026900042F080522C4B40331A602C4A126842F4AC
:1026A00040422A4B1A60284A08321268264B0833E7
:1026B0001A601A46126842F400421A601A461268FA
:1026C00042F4A0521A60224A1B1F1A601A1F126895
:1026D00042F080721B1F1A6000BF1B4A126802F092
:1026E0000072002AF9D0194A126842F48032174B5E
:1026F0001A6000BF154A526802F48032002AF9D0ED
:10270000124A126842F40032104B1A6000BF0F4A9E
:10271000526802F40032002AF9D00B4A08321268DB
:1027200022F00302084B08331A601A46126842F07E
:1027300002021A6000BF044A0832126802F008025E
:10274000002AF8D0704700000038024000700040B6
:102750001064000910B5FFF77FFF10BD10B51248D7
:1027600000684FF47A71B0FBF1F4601EB0F1807F25
:1027700001D301200FE0601E4FF0E02148610F21DE
:102780004FF0FF30FEF7D6FA00204FF0E0218861CD
:1027900007200861002008B100BFFEE70021481EA5
:1027A000FEF7C8FA10BD000088000020014903C9E7
:1027B00070470000D00000200448D0E900305A1CC7
:1027C00040F100000149C1E900207047D00000201D
:1027D0007CB504460D4612480068401C104908604C
:1027E00010480068012810D10E48D0F81004401C91
:1027F0000C49C1F810040846D0F81004D1F814149C
:10280000884202DD01200749486007A0AFF23F017E
:102810000A220023CDE900100748FEF721FA7CBD0B
:10282000D8000020880700205A69674265655F521A
:102830006563766963650000400700207CB5044647
:102840000D4601200649087006A0AFF20F014FF4B3
:10285000FA620023CDE900100648FEF701FA7CBDBC
:10286000C40000205A69674265655F7072696E74C2
:1028700066000000580700207FB505460C46324927
:10288000681A8D4227D009DCB5F1804F14D02F484B
:102890002844B0B1B0F5806F2CD117E0B0F5806F4F
:1028A0001ED0B0F5006F20D0B0F5744F22D14FF498
:1028B0008850FFF79BFE1EE04FF48050FFF796FE16
:1028C00019E041F20100FFF791FE14E041F202002D
:1028D000FFF78CFE0FE041F20300FFF787FE0AE0EE
:1028E00041F20400FFF782FE05E041F20500FFF728
:1028F0007DFE00E000BF00BF284600F029F86846D2
:1029000000F04DF944F61F60ADF800000020ADF86E
:102910000200ADF8040004EB8400400002900020A7
:10292000ADF806006946284600F0DAF8012128468D
:1029300000F022F9284600F0CDF8002201211C20E9
:10294000FFF756FD7FBD0000000C004000FCFFBFFC
:1029500010B504465C49601A8C426FD019DC5B49A3
:10296000A4EB01008C424ED009DCB4F1804F2ED094
:1029700057482044A0B3B0F5806F72D13AE0B0F56B
:10298000806F49D0B0F5006F4FD0B0F5406FF4D1F3
:102990007BE0B0F5923F5BD009DCB0F5806F73D07F
:1029A000B0F5644F0AD0B0F5684F5AD147E0B0F5A2
:1029B000943F57D0B0F5963F53D15CE04FF4106090
:1029C000FFF738FE4FF41060FFF722FE79E04FF476
:1029D0000060FFF72FFE4FF40060FFF719FE70E074
:1029E000FFE740F60100FFF725FE40F60100FFF784
:1029F0000FFE66E040F60200FFF71CFE40F6020004
:102A0000FFF706FE5DE040F60300FFF713FE40F619
:102A10000300FFF7FDFD54E040F60400FFF70AFE57
:102A200040F60400FFF7F4FD4BE040F60500FFF729
:102A300001FE40F60500FFF7EBFD42E02EE040F618
:102A40000110FFF7F7FD40F60110FFF7E1FD38E058
:102A50004FF41160FFF7EEFD4FF41160FFF7D8FD62
:102A60002FE02DE040F61110FFF7E4FD40F61110C5
:102A7000FFF7CEFD25E040F61210FFF7DBFD40F634
:102A80001210FFF7C5FD1CE011E040F60600FFF74D
:102A9000D1FD40F60600FFF7BBFD12E040F607004F
:102AA000FFF7C8FD40F60700FFF7B2FD09E040F66A
:102AB0000800FFF7BFFD40F60800FFF7A9FD00E0A2
:102AC00000BF00BF10BD0000001C0040000C004013
:102AD00000FCFFBF016841F0010101607047000088
:102AE0000A8882621D4A90420ED0B0F1804F0BD00E
:102AF0001B4A904208D01B4A904205D01A4A904285
:102B000002D01A4A90420BD1026822F07002026091
:102B100002684B881A43026002688B881A4302607D
:102B20008A68C262124A90420AD0124A904207D082
:102B3000026822F4407202600268CB881A43026085
:102B4000064A904202D0094A904201D10A7B0263B0
:102B5000426942F0010242617047000000000140FA
:102B60000004004000080040000C00400004014048
:102B70000010004000140040C2680A43C260704761
:102B8000CA43026170470246D06800EA0103106937
:102B9000084010B10BB1012070470020FCE7002174
:102BA0000180418081804FF6FF7181600021C180EA
:102BB000017370472DE9F04704460D460027B846DB
:102BC000B94600263349601A8C4235D00CDC3248B5
:102BD0002044E8B1B0F5806F1FD0B0F5006F21D070
:102BE000B0F5406F32D122E0B0F5806F29D0B0F55A
:102BF000184F03D0B0F51C4F28D104E00320FFF795
:102C000063FC074623E00320FFF75EFC07461EE057
:102C10000220FFF759FC074619E00220FFF754FC99
:102C2000074614E00220FFF74FFC07460FE00220A2
:102C3000FFF74AFC07460AE00220FFF745FC07467B
:102C400005E00220FFF740FC074600E000BF00BFA0
:102C5000E06800F4004070B1780000EB5500B0FB74
:102C6000F5F64FF6F07006EA0008C6F3420948EAA6
:102C70000900A0600CE007EB5500B0FBF5F64FF63D
:102C8000F07006EA000806F00F0948EA0900A060A3
:102C9000BDE8F0870078004000BCFFBF01464868EF
:102CA000C0F308007047C1F308024260704700009B
:102CB00010B504463349601A8C424DD00CDC3248C2
:102CC0002044E0B1B0F5806F22D0B0F5006F31D074
:102CD000B0F5406F52D136E0B0F5806F45D0B0F519
:102CE000184F03D0B0F51C4F48D11AE040F604103D
:102CF000FFF7A0FC40F60410FFF78AFC3FE040F627
:102D00001100FFF797FC40F61100FFF781FC36E059
:102D100040F61200FFF78EFC40F61200FFF778FC39
:102D20002DE040F60510FFF785FC40F60510FFF793
:102D30006FFC24E040F61300FFF77CFC40F6130024
:102D4000FFF766FC1BE040F61400FFF773FC40F64B
:102D50001400FFF75DFC12E040F61E00FFF76AFC6E
:102D600040F61E00FFF754FC09E040F61F00FFF795
:102D700061FC40F61F00FFF74BFC00E000BF00BF06
:102D800010BD00000078004000BCFFBF426922F087
:102D900040024261426901F040031A4342617047B8
:102DA000426922F080024261426901F080031A43C5
:102DB00042617047C16841F40051C160704710B56D
:102DC00000EB9112126801F01F040123A3409A4303
:102DD00000EB91131A6010BD10B5024602EB911082
:102DE000006801F01F040123A340184008B101202E
:102DF00010BD0020FCE710B500EB9112126801F045
:102E00001F040123A3401A4300EB91131A6010BD65
:102E100010B500EB91521268C1F304440123A340A2
:102E20009A4300EB91531A6010BD70B5024600231F
:102E30000024C1F38910105801F01F060125B54088
:102E400000EA050302EB91500068C1F30446012536
:102E5000B54000EA050414B10BB1012070BD00209B
:102E6000FCE7C26822F4C062C260C2680A43C26062
:102E700070470A460021C16821F004011143C16076
:102E80007047026922F44052026102690A430261FA
:102E900070470A460021C16821F008011143C16052
:102EA0007047C26822F48052C260C2680A43C2609E
:102EB0007047DDDDDDDDDCBBBBDDDDDDDDDDDDDD8A
:102EC000DDDD98888888888888887777777777881D
:102ED000888885555556666666666666666666685F
:102EE000888883333332222222222222222222285D
:102EF000888D0000142F0008000000200801000049
:102F0000E01700081C30000808010020B81000007D
:102F1000F0170008000000004155544F4F4E0000CC
:102F200000000000000000004155544F4F4646008D
:102F300000000000000000004155544F4F46464835
:102F4000414E444F4E00000048414E444E554D0006
:102F500000000000000000005448524553484F4C08
:102F6000445F5345540000005345545A4947424575
:102F700045000000000000005A4947424545434FC4
:102F80004E46494700000000534554000000000031
:102F900000000000000000000000000000C2EB0B79
:102FA0000014024000140240002000000040000015
:102FB000050C050C0411000040000000800000001A
:102FC00000000000131000000004000000080000D2
:102FD00000000000000000000000000000000000F1
:102FE00000000000000000000000000000000000E1
:102FF0001410000000100000040000001E1000006B
:1030000000010000800000000511000040000000E9
:0C30100080000000000000000000000034
:04000005080001AD41
:00000001FF
