:020000040800F2
:1000000020140020C1010008B9120008AD0F00083B
:10001000D5110008AD090008F51B0008000000001C
:10002000000000000000000000000000E7120008CF
:10003000090A000800000000E51200081513000876
:10004000DB010008DB010008DB010008DB01000820
:10005000DB010008DB010008590E0008750E0008DE
:10006000DB010008DB010008DB010008DB01000800
:10007000DB010008DB010008DB010008DB010008F0
:10008000DB010008DB010008DB010008DB010008E0
:10009000DB010008DB010008DB010008DB010008D0
:1000A000DB010008DB010008DB010008DB010008C0
:1000B000F1130008DB010008DB010008DB01000888
:1000C000DB010008DB010008DB010008DB010008A0
:1000D000DB010008111A0008DB0100085D1A0008A6
:1000E000DB010008DB010008DB010008DB01000880
:1000F000DB010008DB010008DB010008DB01000870
:10010000DB010008DB010008DB010008DB0100085F
:100110007114000811150008DB010008DB0100085C
:10012000DB010008DB010008DB010008DB0100083F
:10013000DB010008DB010008DB010008DB0100082F
:10014000DB010008DB010008DB010008DB0100081F
:10015000DB010008DB010008DB010008A91A000828
:10016000DB010008DB010008DB010008DB010008FF
:10017000DB010008DB010008DB01000800000000D3
:10018000DB010008DB01000861170008DB01000843
:10019000DB010008DB010008DB01000800000000B3
:1001A000DB010008DB010008DB010008DFF80CD0F0
:1001B00000F0A8F900480047A92A000820140020F0
:1001C0000648804706480047FEE7FEE7FEE7FEE7F1
:1001D000FEE7FEE7FEE7FEE7FEE7FEE71D13000889
:1001E000AD01000840EA01039B0703D009E008C9FC
:1001F000121F08C0042AFAD203E011F8013B00F8EC
:10020000013B521EF9D27047D2B201E000F8012B37
:10021000491EFBD270470022F6E710B513460A4686
:1002200004461946FFF7F0FF204610BD421E12F8A3
:10023000013F002BFBD111F8013B02F8013B002BE1
:10024000F9D1704730B505462A460B4612F8010B26
:1002500013F8014B08B1A042F8D01CB1002802D01D
:100260006D1CF1E7284630BD10B5002200E0521C9D
:10027000835C8C5CA34201D1002BF8D1D8B2E1B2EF
:10028000401A10BD034611F8012B00F8012B002A7B
:10029000F9D11846704700000FB400B58DB010A911
:1002A00009900B9000914FF0FF300A9000200C90C5
:1002B00005480690054807906A4609A80F9900F07E
:1002C000F3F80DB05DF814FBC5040008E304000862
:1002D0002DE9FF5F1D464FF0FF3BD5E901469146F2
:1002E0005F464FF00008A9697F1C01988847296A7A
:1002F000824688470028F6D1BAF1FF3F0CD024F49B
:10030000C064002E19DD600614D5BAF12B0F09D098
:10031000BAF12D0F0ED103E0584604B0BDE8F09FAE
:1003200044F48064A9697F1C01988847761E824640
:10033000002E02DDBAF1300F03D0B9F1000F26D044
:1003400032E0A969761E44F400747F1C0198884746
:100350008246002E05DDBAF1780F06D0BAF1580FAB
:1003600003D0B9F1000F10D01EE0B9F1000F02D098
:10037000B9F1100F18D1A969761E24F400747F1CFE
:10038000019888478246102002E0082000E00A20F9
:10039000814609E008FB0908A969761E44F4007447
:1003A0007F1C019888478246002E05DD494650464D
:1003B00000F065F80028EDDAE96901988847A005A2
:1003C00002D46FF00100A8E7E00725D1600613D53D
:1003D000600502D5C8F1000000E0404629680A1D0A
:1003E0002A600968220501D5087015E0220701D5A9
:1003F000088011E008600FE02868011D296000688E
:10040000210502D580F8008006E0210702D5A0F87A
:10041000008001E0C0F8008038467EE72DE9F05FFB
:100420000546002092469B46884606468146402463
:100430001BE0284641464746224600F084F85346D2
:100440005A46C01A914110D311461846224600F070
:100450006BF82D1A67EB01084F4622460120002158
:1004600000F062F817EB00094E41201EA4F10104D0
:10047000DFDC484631462A464346BDE8F09F3A282D
:1004800000D2303820F02002412A01D3A2F13700F7
:10049000884201D34FF0FF307047000002681144DA
:1004A0001378016018467047D160044951610449CE
:1004B000116200211161114600F05AB89D04000834
:1004C00067050008426842B1016811F8013B23B199
:1004D000521EC0E90012184670470121C160881EF3
:1004E000704742685AB1C368016843B983688B4258
:1004F00005D0491E521CC0E90012002070474FF081
:10050000FF307047064C074D06E0E06840F00103FD
:1005100094E8070098471034AC42F6D3FFF74AFE40
:10052000C4380008E4380008202A04DB203A00FA26
:1005300002F1002070479140C2F1200320FA03F33A
:10054000194390407047202A04DB203A21FA02F038
:100550000021704721FA02F3D040C2F120029140FD
:10056000084319467047C0B24FF4F05100F094B9F7
:100570002DE9F34F8BB04FF0000801F10C000C4651
:100580004FF0010B46460DF1080A01906269012106
:100590000198904705002DD0252D2CD0216A884741
:1005A000C0B16269012101989047216A88470028FB
:1005B000F7D1411E62690198904700E0761CA1695D
:1005C0000B988847216A88470028F7D1E1690B9882
:1005D0008847DBE7A1690B9888470746A84201D105
:1005E000761CD3E7E1690B9888477F1C02D1B8F1EC
:1005F000000F6FD043E1002762693D4639460198FC
:1006000090472A2804D16269012101989047012569
:10061000DFF880926269012101989047A0F13001D2
:100620000A290AD24F45E5DC07EB870100EB4107B9
:10063000303FDFD445F01005ECE7E90601D46FF058
:1006400000476C280AD04C2814D0682815D06A2896
:100650000DD074281CD07A281AD01DE062690121BF
:10066000019890476C2802D045F0040514E045F04D
:1006700002050DE045F020050AE0626901210198BC
:100680009047682802D045F0080505E045F400656C
:100690006269012101989047C4E9015765283DD05E
:1006A00019DC582877D00CDC452837D004DC252805
:1006B00026D0412831D131E046282FD047282CD1EF
:1006C0002CE05B287DD0612828D0632879D064286D
:1006D00023D157E0CDE06F2845D008DC66281DD037
:1006E00067281BD0692821D06E2816D127E07028F2
:1006F00042D0732865D0752844D078280DD14AE0BF
:10070000A1690B988847054625283FF469AFE16940
:100710000B9888476D1C3FF46AAFB0E023466A46E9
:100720006FF001000B99AFF300809BE045F04000B3
:100730006060A80723464FF0000233D43BE02068F6
:10074000011D21600068290501D506701EE72907F3
:1007500001D506801AE7A90703D5F117C0E90061A2
:1007600014E7066012E745F040006060A8072346E2
:100770004FF0080216D41EE040F60E0125EA0100F3
:10078000606016E045F040006060A80723464FF027
:100790000A0207D40FE045F040006060A80708D5C2
:1007A000234610226FF001000B99AFF3008059E04F
:1007B00007E0234610226FF001000B99FFF788FD38
:1007C00050E04FF000094F464B46632802D05B28AB
:1007D00006D040E0E80601D40120A06001273AE0FD
:1007E00062690121019890475E2805D14FF0010907
:1007F0006269494601989047216939B900210B4641
:10080000524642F82130491C0829FADBB0B321696D
:1008100069B9C11700EBD1614B110AEB830221F0DA
:100820001F01411A01201368884003431360626965
:100830000121019890475D28E8D1B9F1000F09D056
:100840000020514651F82020D24341F82020401C7E
:100850000828F7DB02AB224600976FF001000B99E6
:10086000AFF3008000280CDA401C08D1BBF1000F68
:1008700005D04FF0FF300DB0BDE8F08FFFE74046E8
:10088000F9E7E90701D108F1010806444FF0000B30
:100890007CE60000CCCCCC0C7F2801D9002208E0FB
:1008A000064A02EB5002C007127800D1120902F08A
:1008B0000F02012090400840704700008438000873
:1008C00070B58C1810F8015B15F0070301D110F812
:1008D000013B2A1106D110F8012B03E010F8016B3F
:1008E00001F8016B5B1EF9D12B0705D40023521EC2
:1008F0000DD401F8013BFAE710F8013BCB1A921C2A
:1009000003E013F8015B01F8015B521EF9D5A14227
:10091000D8D3002070BD00000A200B4948601E207B
:1009200008601420C860412088601420486150206D
:1009300008611420C8614FF47A7088610020086251
:1009400048628862704700006802002010B540F6D7
:10095000024002F079FA4FF4807300220121084826
:1009600002F059F84FF4807302220021044802F08B
:1009700079F84FF4807002492831086010BD0000FA
:100980000008024010B504464FF480700649086024
:10099000204601F07BFC4FF4807003491031086061
:1009A000204601F073FC10BD1808024000BFFEE7AE
:1009B00070B504460D462CB907A001F001FA0020DD
:1009C000286006E0012C04D109A001F0F9F901200A
:1009D0002860002070BD00004368616E67655F6D30
:1009E0006F6465204155544F4F4E0D0A00000000C2
:1009F0004368616E67655F6D6F6465204155544F54
:100A00004F46460D0A0000007047000070B59AB0CE
:100A100004460E4615464FF400712248FFF7FBFBD3
:100A20006422214901A8FFF7DDFB20A101A8FFF7FF
:100A3000FDFB214601A8FFF7F9FB1DA101A8FFF767
:100A4000F5FB314601A8FFF7F1FB1AA101A8FFF75A
:100A5000EDFB294601A8FFF7E9FB17A101A8FFF765
:100A6000E5FB4FF47A7215A101A800F083F917E0B5
:100A700000BF0C48D0F804020028FAD00020094931
:100A8000C1F804020FA10748FFF7DCFB40B10EA03C
:100A900001F096F917A001F093F900201AB070BD8B
:100AA000E6E70000000C00202038000822000000CB
:100AB000222C2200222C00000D0A00004F4B0D0AB0
:100AC000000000004F4B00002D2D2D2D2D2D2D2D24
:100AD0002D2D2D2D2D2D2D2D2D2D5443502D2D2DE6
:100AE0002D2D2D2D2D2D2D2D2D2D2D2D2D2D2D2D36
:100AF0000D0A0000455350333220536572766572FB
:100B000020434F4E4E454354204F4B0D0A000000EA
:100B100030B599B004460D464FF400711D48FFF7FB
:100B20007AFB64221C496846FFF75CFB1BA1684600
:100B3000FFF77CFB21466846FFF778FB18A1684663
:100B4000FFF774FB29466846FFF770FB15A168465E
:100B5000FFF76CFB4FF47A7213A1684600F00AF9B4
:100B600017E000BF0B48D0F804020028FAD000209C
:100B70000849C1F804020CA10648FFF763FB40B125
:100B80000BA001F01DF915A001F01AF9002019B011
:100B900030BDE6E7000C0020BC3700082200000052
:100BA000222C2200220D0A004F4B0D0A00000000EB
:100BB0002D2D2D2D2D2D2D2D2D2D2D2D2D2D2D2D65
:100BC0002D2D574946492D2D2D2D2D2D2D2D2D2DDA
:100BD0002D2D2D2D2D2D2D2D2D0D0A00455350334E
:100BE00032205749464920434F4E4E454354204FEB
:100BF0004B0D0A0070B5054600243548854200D1EA
:100C000000BF40F6014002F01FF9324931F81400EC
:100C100002F01AF9304850F8242007212F4801F03B
:100C2000CBFE2F4850F8242007212C4801F0C4FEA9
:100C3000294850F8243001220221284801F0EBFE17
:100C4000254850F8243002220021244801F00AFFF0
:100C5000234850F8243001220221204801F0DBFE15
:100C60001F4850F82430022200211C4801F0FAFEEF
:100C7000174802F0A1FC4FF4E131154802F01EFCC8
:100C80000021134802F071FD0021114802F08DFD92
:100C900000210F4802F079FD04210D4802F06DFD9E
:100CA00008210B4802F079FD094802F007FD40F2E7
:100CB0000531074802F023FD40F20731044802F0F5
:100CC0001EFD00221146272001F0C0FF70BD00006C
:100CD0000048004054010020580100200004024058
:100CE0005C01002010B500244FF47A720CA10EA014
:100CF00000F040F804464FF47A7209A10EA000F00B
:100D000039F84FF47A7206A10EA000F033F824B936
:100D100010A001F055F8002010BD2046FCE70000AF
:100D20004F4B0D0A0000000041542B43574D4F44D8
:100D3000453D330D0A00000041542B5253540D0A17
:100D40000000000041542B43574D4F44453F0D0ACE
:100D50000000000043616E6E6F7420696E697469F3
:100D6000616C697A6520455350206D6F64756C65C0
:100D70000D0A000070B504460D46164600202249B3
:100D8000C1F80002214621A001F01AF8204600F027
:100D9000ABFA304601F07AFA22A12846FFF764FA4E
:100DA00008B9002070BD1848D0F80002002829D0EA
:100DB0001548D0F80402012824D100201249D1F8A6
:100DC0000012114A505429461046FFF73BFA28B149
:100DD0000D4915A000F0F4FF0120E3E716A10A4831
:100DE000FFF730FA40B116A000F0EAFF40F6B83045
:100DF00001F04CFA0020D5E7034914A000F0E0FF11
:100E00000020CFE700BFCDE7000C00205B4553502A
:100E1000383236365F53656E64436D645D202573EA
:100E20000D0A0000000000000D0A25732B2B2B5922
:100E300045530D0A00000000627573790000000040
:100E4000627573792E2E2E0D0A0000000D0A25738F
:100E50002B2B2B4E4F0D0A0010B5012001F096FCF4
:100E600010B1012002490860012001F089FC10BD89
:100E7000E400002010B5022001F088FC10B1012030
:100E800002490860022001F07BFC10BDE800002050
:100E90000FB410B586B0044624480068B0F5C87F8A
:100EA0003FDD2348006806283BD02148006805281C
:100EB00037D01F480068022833D01D480068072833
:100EC0002FD094B9DDE90D32DDE90F01CDE9022320
:100ED000CDE90410DDE90B10CDE9000115A1204892
:100EE000DDE9093200F07CFF11E0012C0FD1210275
:100EF0001B48FFF790F9DDE913121598CDE90012B0
:100F0000029018A11648DDE9112300F069FF14488A
:100F100000F07CFA12491EA000F052FF00200349A5
:100F2000086006B010BC5DF814FB0000280100202A
:100F300084000020532D4F4E2D543A25642B2564F8
:100F40002D483A25642B25642D493A25642B2564C8
:100F50002D533A25642B25642D450D0A0000000011
:100F6000A0040020532D4F46462D413A25642D43C1
:100F70003A25642D573A25642D4C4544313A256471
:100F80002D4C4544323A25642D450D0A00000000E1
:100F9000D6F7BBFAB7A2CBCDB5C4BFD8D6C6D3EF70
:100FA000BEE4A3BA25730D0A0000000000BFFEE7EF
:100FB00070B505460C462069002874D021783AA007
:100FC00000F0FEFE2078432831D1E06808282AD2BC
:100FD000DFE800F004080B10151A1F24281D6168B3
:100FE000086020E0606805601DE005F10C006168A4
:100FF000086018E005F108006168086013E005F179
:101000001400616808600EE005F110006168086076
:1010100009E005F11C006168086004E005F11800B2
:101020006168086000BF00BFE068401CE060207895
:1010300042282BD012DC15282CD008DC072828D019
:10104000082820D0092826D00C2829D118E01628F5
:1010500015D0182815D01C2822D115E04A2817D001
:1010600006DC452818D0462818D0472818D116E0A5
:1010700052280CD05A2808D05E2811D102E00FE087
:101080000EE00DE00CE00BE00AE009E008E007E00C
:1010900006E005E004E003E002E004E000E000BF59
:1010A00000BF0020206170BD2563000010B5154809
:1010B0000068012809D101F073FC4FF47A7001F047
:1010C000E5F800200F49086002E0012001F05CFC17
:1010D0000D480068012810D1002001F061FC4FF498
:1010E0007A720AA10BA0FFF745FE4FF47A7001F067
:1010F000CDF800200449086002E0002001F044FC23
:1011000010BD0000E4000020E80000204F4B0D0A55
:101110000000000041542B434950434C4F53450DB0
:101120000A0000007FB504460D461E48C0F814446E
:101130004068012806D01CA11A480C30FFF782F83D
:1011400000282CD01748807C1649497C154A127C0F
:10115000144BDB7BCDE90032CDE902101148837BD3
:10116000427B017B11A000F02BFE0E490C3117A031
:1011700000F026FE0B490C312846FFF783F84FF4A8
:10118000806108480C30FFF746F800200549886068
:101190000860C1F810044860012004B070BD002050
:1011A000FBE70000E8070020454E44002532782088
:1011B0002532782025327820253278202532782073
:1011C00025327820253278200D0A000025730D0A7B
:1011D0000000000000BFFEE7014602480160002059
:1011E000704700001C0100202DE9F0470446164618
:1011F0001F46DDE9088914B1B8F1000F03D14FF0A3
:10120000FF30BDE8F087184D06E02868A04202D103
:101210002068286003E02D6828680028F5D100BF09
:1012200012480068804780197941C4E90201C4F876
:101230001080C4F814900C4D00BF286818B9002025
:1012400020602C600DE0D4E902302A68D2E9021255
:10125000591A904103D2286820602C6001E02D6863
:10126000EBE700BF0020CCE7180100201C010020A4
:1012700010B50F48046817E00E4800688047D4E9AD
:101280000232C01A914105D20A4800688047A1681D
:10129000081A10BD064920680860206918B1204668
:1012A000D4E9042190472468002CE5D10020F0E720
:1012B000180100201C0100207047000010B5002814
:1012C00007DA0A07140E054A00F00F031B1FD45457
:1012D00003E00A07130E024A135410BD18ED00E094
:1012E00000E400E07047704710B504460BE014F8C6
:1012F000011B074802F05BF900BF0721044802F018
:10130000EFF90028F9D020780028F0D110BD0000B6
:101310000078004010B500F0C3FF10BD08B530489C
:10132000006840F470002E4908602E48006840F0C4
:1013300001002C49086000BF2A48006800F0020044
:101340000028F9D000BF27480830006840F080002E
:101350002449083108600020009002E00098401CF9
:10136000009000985028F9D31E480830006840F0DB
:1013700090001C49083108600020009002E00098AD
:10138000401C009000985028F9D300BF1548083041
:10139000006820F003001349083108601148006814
:1013A000114908400F4908600846006820F4802071
:1013B000086000200B490831086000BF0948083068
:1013C000006800200028F9D108480649091D086076
:1013D000002004490C31086001F040FE08BD000007
:1013E00088ED00E000380240FFFFF6FE10300024D8
:1013F00010B50121880702F04AF8012805D1012122
:10140000800702F041F801F05BFE10BD10B5044604
:10141000144C0421144800F04FFF202204211248EC
:1014200000F0EFFF2346002204210F4801F06CF882
:101430004FF4807204210C4801F033F904210A486A
:1014400000F04AFF032000F021FF8021074802F04E
:101450002BF900BF20220421034800F0F1FF0028EF
:10146000F8D010BDA004002000600240004C0040F5
:1014700010B504211F4802F033F9002839D00221A9
:101480001D4800F019FF1D491A4802F045F9194896
:1014900002F088F80621174802F022F920220221E2
:1014A000154801F012F80221134801F002F9C0F5C5
:1014B0008070134908600846124902681248FEF716
:1014C00091FE002010490E4A1268885401200F49ED
:1014D00008700C4B00220221074801F015F84FF468
:1014E00080720221044801F0DCF80221024800F079
:1014F000F3FE10BD004C00400060024004030400F5
:101500000C010020A0050020A006002011010020F1
:1015100010B50521114802F0E3F8F0B110490F4869
:1015200002F0FAF800200F49C1F81004084680685C
:1015300008B9012008600B488068B0F5806F0CDAAC
:10154000064802F02FF8C1B2064882688068401C45
:10155000044B986003F10C00815410BD0050004012
:1015600005030500E807002070B50546002436484D
:10157000854200D100BF40F6024001F065FC40F614
:10158000034001F061FC314931F8140001F05CFCCA
:101590002F4850F8242008212E4801F00DFA2E483B
:1015A00050F8242008212D4801F006FA284850F868
:1015B000243001220221274801F02DFA244850F856
:1015C000243002220021234801F04CFA224850F82E
:1015D000243001220221214801F01DFA1E4850F852
:1015E0002430022200211D4801F03CFA164801F087
:1015F000E3FF4FF4E131144801F060FF002112488D
:1016000002F0B3F80021104802F0CFF800210E4894
:1016100002F0BBF804210C4802F0AFF808210A4898
:1016200002F0BBF8084802F049F8002211463520C4
:1016300001F00CFB0A49044802F06EF840F2053153
:10164000014802F05CF870BD005000402C01002001
:10165000300100200008024034010020000C02404C
:101660000603060070B5054600243748854200D1C0
:1016700000BF40F6044001F0E7FB344931F81400A4
:1016800001F0E2FB324850F824200821314801F0F3
:1016900093F9314850F8242008212E4801F08CF9A4
:1016A0002B4850F82430012202212A4801F0B3F9D6
:1016B000274850F8243002220021264801F0D2F9B0
:1016C000254850F8243001220221224801F0A3F9D4
:1016D000214850F82430022200211E4801F0C2F9AE
:1016E000194801F069FF4FF4E131174801F0E6FEB7
:1016F0000021154802F039F80021134802F055F88E
:101700000021114802F041F804210F4802F035F899
:1017100008210D4802F041F800221146522001F044
:1017200095FA0E49084801F0F7FF40F205310648E6
:1017300001F0E5FF4FF44171034801F0E0FF02487A
:1017400001F0BCFF70BD00000078004038010020AF
:101750003C0100200010024040010020060306006A
:1017600010B50521214801F0BBFF38B320491F48BF
:1017700001F0D2FF1D4801F015FFC4B28CB11D4825
:10178000D0F80002B0F5FF7F2EDA1A48D0F8001228
:10179000D0F80002401C174AC2F800021046445418
:1017A00022E020211348D0F80022D0F80002401C8B
:1017B000104BC3F800021846815415E004210B4871
:1017C00001F08EFF80B10C49084801F0A5FF0748E1
:1017D00001F0E8FE00200749D1F80012054A5054F4
:1017E00001201146C1F8040210BD0000007800403D
:1017F00005030500000C00200403040070B596B03A
:101800000446402106A8FEF706FD0025002606A98D
:101810000F20FFF787FC012874D110E03046761EB8
:10182000444A02EB001106A8FEF70CFD08B1B51CF6
:101830000FE0B54203D142F2B82016B070BD284681
:101840006D1C3C4A02EB001106A8FEF7FBFC0028C9
:10185000E4D000BF6D1E082D63D2DFE805F0040B55
:1018600012192F4C545B34A000F0AAFA002036491C
:101870000860E2E735A000F0A3FA012032490860D1
:10188000DBE736A000F09CFA02202F490860D4E77D
:1018900006A937A000F094FA04F13000011F0A1FD6
:1018A000131FCDE900210290083A36A106A8FEF7E1
:1018B000F3FC42F2B82024490860BEE706A937A02D
:1018C00000F07EFA04F11800011D04F11002031F5C
:1018D000CDE90232CDE904101038011D2346221D46
:1018E000CDE9001033A106A8FEF7D6FC42F2B820DD
:1018F00015490860A1E739A000F062FA05201249F5
:1019000008609AE712E03AA000F05AFA06200E4961
:10191000086092E73BA000F053FA07200A490860EC
:101920008BE742F2B8200849086086E742F2B82007
:1019300083E7000004000020636173653A41555459
:101940004F4F4E0D0A000000840000206361736554
:101950003A4155544F4F46460D0A00006361736586
:101960003A4155544F4F4648414E444F4E0D0A00A0
:10197000636173653A48414E444E554D3A25730DA7
:101980000A00000048414E444E554D2D25642D253A
:10199000642D25642D25642D256400006361736525
:1019A0003A5448524553484F4C445F5345543A25A6
:1019B000730D0A005448524553484F4C445F5345F9
:1019C000542D25642B25642D25642B25642D256439
:1019D0002B25642D25642B2564000000636173654D
:1019E0003A5345545A49474245450D0A0000000004
:1019F000636173653A5A4947424545434F4E4649EC
:101A0000470D0A00636173653A5345540D0A00009F
:101A100010B50E490E4801F08CFEB0B10B490C48D0
:101A200001F07AFE0A4801F0BDFD0621084801F0E8
:101A300057FE074801F0B6FDC1B2064802780078AB
:101A4000401C044B18700448815410BD0503050068
:101A500000100140F8000020A003002010B50E493E
:101A60000E4801F066FEB0B10B490C4801F054FE7F
:101A70000A4801F097FD0621084801F031FE0748A9
:101A800001F090FDC1B2064802780078401C044B7A
:101A900018700448815410BD05030500004800403B
:101AA000600100201C0F002010B505210E4801F038
:101AB00017FE48B10D490C4801F02EFE0A4801F00E
:101AC00071FD0B4908700EE00421074801F008FE83
:101AD00048B10849044801F01FFE034801F062FDC7
:101AE00001200349086110BD0014014005030500F1
:101AF000080E00200403040070B505460024374892
:101B0000854200D100BF40F6024001F09DF9344902
:101B100031F8140001F098F9324850F824200821D7
:101B2000314800F049FF314850F8242008212E4860
:101B300000F042FF2B4850F82430012202212A48AD
:101B400000F069FF274850F824300222002126487F
:101B500000F088FF254850F8243001220221224855
:101B600000F059FF214850F82430022200211E487D
:101B700000F078FF194801F01FFD4FF41651174887
:101B800001F09CFC0021154801F0EFFD00211348F5
:101B900001F00BFE0021114801F0F7FD04210F4870
:101BA00001F0EBFD08210D4801F0F7FD0022114680
:101BB000472001F04BF80E49084801F0ADFD40F216
:101BC0000531064801F09BFD4FF44171034801F0D7
:101BD00096FD024801F072FD70BD00000014014046
:101BE0004401002048010020000802404C01002070
:101BF0000603060000BFFEE730B589B005460120A8
:101C00006649087000246648854200D100BF40F64E
:101C1000024001F019F9634931F8140001F014F998
:101C200040F6154001F010F95F4850F824200821D3
:101C30005E4800F0C1FE5E4850F8242008215B4851
:101C400000F0BAFE584850F82430012202215748CB
:101C500000F0E1FE544850F824300222002153489D
:101C600000F000FF524850F82430012202214F4872
:101C700000F0D1FE4E4850F82430022200214B489B
:101C800000F0F0FE284601F097FC4FF4E1312846C1
:101C900001F014FC0021284601F067FD00212846D0
:101CA00001F083FD0021284601F06FFD0421284644
:101CB00001F063FD0821284601F06FFD284601F080
:101CC000FDFC684600F0DCFC04213A4800F047FBCC
:101CD00040200690384802900020039004904FF472
:101CE000807007902E48001D0090012001904FF455
:101CF000403008906A4604212E4800F015FC04216B
:101D00002C4800F00CFB042211462A4800F0F4FA9B
:101D100010220421274800F0B9FB0421254800F0D7
:101D2000DBFA0221234800F01AFB0020069023482A
:101D300002900020039004904FF4807007901848A0
:101D4000001D0090012001904FF4403008906A4639
:101D50000221184800F0E8FB0221164800F0EFFAD3
:101D600004220221134800F0C7FA10220221114870
:101D700000F08CFB02210F4800F0AEFA4021084829
:101D800001F088FC00221146342000F05FFF4FF480
:101D90004171034801F0B3FC09B030BD10010020CF
:101DA000004C0040FC000020000100200008024020
:101DB0000401002000600240A0040020A0050020D3
:101DC0000FB4054B10B503A9044A029800F02CF893
:101DD00010BC5DF814FB0000A5270008640100207A
:101DE0000FB4084B10B504A902AA039800F01CF820
:101DF000044602A9002000F044FA204610BC5DF819
:101E000014FB00008322000802E008C8121F08C16A
:101E1000002AFAD170477047002001E001C1121F6B
:101E2000002AFBD1704700002DE9FF4F8DB00F460F
:101E30000546002606E025280BD0DDE90F12904765
:101E40006D1C761C28780028F5D111B03046BDE80D
:101E5000F08F0024A246A1460122EA4900E0044393
:101E600015F8013F203B02FA03F00842F7D1287829
:101E70002A2810D06FF02F022878A0F1300109290C
:101E800014D80AEB8A0102EB410144F0020400EB92
:101E9000010A6D1CF0E701CF5FEA000A03D544F4A4
:101EA0000054CAF1000A44F002046D1C28782E2860
:101EB00017D115F8010F44F004042A280ED06FF052
:101EC0002F022878A0F1300109290AD809EB8901ED
:101ED00002EB410100EB01096D1CF2E757F8049B8E
:101EE0006D1C28786C280FD006DC4C2817D0682889
:101EF0000DD06A2814D104E0742810D07A280FD1AC
:101F00000DE044F400140AE044F4801401E044F4C9
:101F100040146978814202D104F580146D1C6D1C57
:101F20002A786E2A1FD00CDC632A31D004DC002A08
:101F30008BD0582A11D19FE0642A68D0692A0CD12D
:101F400065E0732A2ED004DC6F2A73D0702A04D186
:101F500097E0752A6FD0782A6ED01046DDE90F120F
:101F60009047761C4CE1C4F30250022806D00328A7
:101F700009D0042801CF09D0066041E101CFF11753
:101F8000C0E900613CE101CF068039E1067037E12C
:101F900017F8040B8DF8000000208DF80100EB46C7
:101FA000012003E057F804BB4FF0FF3061074FF00A
:101FB000000102D40DE008F10101884649450FDA1D
:101FC0008045F8DB1BF808100029F4D108E008F17F
:101FD000010188468142FADB1BF808100029F6D17E
:101FE000DDE90F23AAEB08008146214600F032F913
:101FF000304400EB080604E0DDE90F121BF8010B8A
:102000009047B8F10108F7D221464846F3E00A218B
:10201000C4F302534FF0000B0891022B04D001CF00
:10202000C117032B09D00AE0FF1D27F00707F7E8C7
:10203000020108E02EE01DE01EE000B2C117042BF3
:1020400001D140B2C117002907DA4FF0000CD0EBE4
:102050000C006CEB01012D2302E0230504D52B239A
:102060008DF82430012303E0E30701D02023F7E7B4
:10207000984656E00A210EE010204FF0000B089021
:102080000CE010214FF0000B44F004044FF008095D
:10209000089103E008214FF0000B0891C4F30253AC
:1020A000022B04D001CF0021032B06D006E0FF1D38
:1020B00027F00707F7E8020103E080B2042B00D104
:1020C000C0B24FF0000823072BD5702A07D0DDF8E7
:1020D00020C08CF0100C5CEA0B0C05D00EE0402305
:1020E0008DF82430012308E050EA010306D03023A4
:1020F0008DF824308DF8252002239846DDF820C085
:102100008CF0080C5CEA0B0C0BD150EA010301D1F6
:10211000630706D530238DF824304FF00108A9F16C
:102120000109582A04D038A20B9208AA0A920BE09F
:102130003AA2F9E75B46089AFEF770F90B9B9B5CA5
:102140000A9A521E0A92137050EA0102F2D10A98BA
:10215000ADEB000000F1200B600702D524F48034C1
:1021600001E04FF00109D94502DDA9EB0B0000E0C9
:10217000002000EB0B0141440890AAEB010AE003A8
:1021800006D4DDE90F232146504600F063F80644EB
:102190004FF0000908E009A911F80900DDE90F1264
:1021A000904709F10109761CC145F4DBE0030CD529
:1021B000DDE90F232146504600F04CF8064404E0C8
:1021C000DDE90F1230209047761C0899481E0890D0
:1021D0000029F5DC08E00A980A990078491C0A9160
:1021E000DDE90F129047761CBBF10001ABF1010B4A
:1021F000F1DC21465046DDE90F2300F019F80644D2
:102200006D1C1FE609280100303132333435363772
:102210003839616263646566000000003031323332
:1022200034353637383941424344454600000000D2
:102230002DE9F041044600251E461746880404D4C3
:1022400005E039462020B0476D1C641EF9D52846AC
:10225000BDE8F0812DE9F041044600251E46904678
:10226000C80301D5302700E02027880404D505E005
:1022700041463846B0476D1C641EF9D52846BDE876
:10228000F0810A68531C0B601070704703490860A6
:1022900000BF024909680029FBD1704700000020F7
:1022A0000448006820B103480068401E01490860E6
:1022B000704700000000002010B501EB4102D30080
:1022C00000F11002D25822F0010301EB4102D400C8
:1022D00000F11002135110BD10B501EB4102D30003
:1022E00000F11002D25842F0010301EB4102D40088
:1022F00000F11002135110BD30B5134601EB41043B
:10230000E50000F11004625922F0606242EA436283
:1023100001EB4104E50000F11004625130BD10B53D
:1023200001EB4102D30000F11002D25822F4807375
:1023300001EB4102D40000F11002135110BD10B5A1
:1023400001EB4102D30000F11002D25842F4807335
:1023500001EB4102D40000F11002135110BD10B581
:1023600001EB4102D30000F11002D25822F0010328
:1023700001EB4102D40000F110021351002301EBE4
:102380004102D40000F11002135101EB4102D400CC
:1023900000F11402135101EB4102D40000F11802C4
:1023A000135101EB4102D40000F11C02135101EB67
:1023B0004102D40000F12002135101EB4102D4008C
:1023C00000F12402135104290CDA01EB41025300FD
:1023D000C1F3400203EB82033D229A4083681A4313
:1023E00082600DE00A1FD1B201EB41025300C1F33C
:1023F000400203EB82033D229A40C3681A43C26045
:1024000010BD10B504290CDA01EB41035C00C1F3E7
:10241000400304EB830302FA03F3846823438360DD
:102420000DE00B1FD9B201EB41035C00C1F3400387
:1024300004EB830302FA03F3C4682343C36010BDB3
:1024400010B5034604290FDA01EB41004400C1F343
:10245000400004EB800402FA04F01C68204008B13C
:10246000012010BD0020FCE7081FC1B201EB4100B4
:102470004400C1F3400004EB800402FA04F05C68FD
:10248000204008B10120ECE70020EAE730B5802ABF
:102490000DD001EB4103DC0000F110031B59134385
:1024A00001EB4104E50000F1100463510CE001EB85
:1024B0004103DC0000F124031B59134301EB4104E9
:1024C000E50000F12404635130BD10B504290CDA95
:1024D00001EB41035C00C1F3400304EB830302FA08
:1024E00003F38468234383600DE00B1FD9B201EB33
:1024F00041035C00C1F3400304EB830302FA03F3DE
:10250000C4682343C36010BD30B532B101EB410450
:10251000E50000F12004635105E001EB4104E50012
:1025200000F11C04635130BD70B501EB4104E500BE
:1025300000F12404645924F0040501EB4104E60091
:1025400000F12404A55101EB4104E60000F1180458
:102550001568A55101EB4104E60000F11C049568E3
:10256000A55101EB4104E60000F11404D569A55121
:1025700001EB4104E50000F1100463593F4C234096
:10258000146944EA8404156A2C4395692C43234357
:1025900001EB4104E50000F110046351546874B983
:1025A00001EB4104E50000F11004645944F40075A6
:1025B00001EB4104E60000F11004A5511FE054684E
:1025C000012C0ED101EB4104E50000F11004645927
:1025D00024F4007501EB4104E60000F11004A5515C
:1025E0000DE001EB4104E50000F11004645944F4EE
:1025F000004501EB4104E60000F11004A551D46848
:1026000074B901EB4104E50000F11004645944F48D
:10261000806501EB4104E60000F11004A5510DE0D6
:1026200001EB4104E50000F11004645924F48065D5
:1026300001EB4104E60000F11004A551546974B99E
:1026400001EB4104E50000F11004645944F4807585
:1026500001EB4104E60000F11004A5510DE001EB8F
:102660004104E50000F11004645924F4807501EB85
:102670004104E60000F11004A55170BD3F87FCFF46
:102680000021016001214160002181600121C160C0
:10269000002101610121416100218161C16101626B
:1026A000704710B501EB4103DC0000F114031A512F
:1026B00010BD024601EB4100C30002F11400C058F6
:1026C0007047000010B52D4B1B6883432B4C2360D3
:1026D000231D1B688343241D2360231D1B68834324
:1026E000241D2360231D1B688343241D236011B117
:1026F00001290ED105E0214B1B6803431F4C2360C9
:1027000008E01E4B1B1D1B6803431C4C241D23604B
:1027100000E000BF00BF32B1012A11D0022A1CD054
:10272000032A27D127E0154B08331B680343134CBA
:1027300008342360231D1B688343241D23601BE092
:102740000E4B08331B6883430C4C08342360231D55
:102750001B680343241D23600EE0084B08331B68ED
:102760000343064C08342360231D1B680343241DC8
:10277000236001E000BF00BF00BF10BD003C01406E
:102780000149086070470000143C014001460448BC
:102790000068084008B1012070470020FCE70000F5
:1027A000143C014070B504460D460621074800F070
:1027B0008AFFE1B2054800F0FAFE00BF0721034896
:1027C00000F08EFF0028F9D0204670BD00100140B7
:1027D00070B5054600243248854200D100BF4FF451
:1027E000406000F031FB2F4931F8140000F02CFB61
:1027F0002D4850F8242007212C4800F0DDF82C4803
:1028000050F824200721294800F0D6F8264850F82F
:10281000243001220221254800F0FDF8224850F81A
:10282000243002220021214800F01CF9204850F8F1
:102830002430012202211D4800F0EDF81C4850F818
:10284000243002220021194800F00CF9144800F04D
:10285000B3FE4FF4E131124800F030FE0021104881
:1028600000F083FF00210E4800F09FFF00210C487C
:1028700000F08BFF04210A4800F07FFF0821084880
:1028800000F08BFF064800F019FF40F205310448C4
:1028900000F035FF40F20731014800F030FF70BD15
:1028A00000100140EC000020F00000200000024079
:1028B000F400002070B504460D46174931F81400A5
:1028C00000F0C2FA41F20E1000F0BEFA134951F8BE
:1028D0002430134951F824000122002100F09BF814
:1028E000012D17D10F49085D0022022100F0AEF939
:1028F0000D4A115D0D4A105D00F0DCFA0C4951F8EB
:10290000240001220021FFF7DDFE094951F82400CF
:10291000FFF736FF70BD0000C0000020B0000020AF
:10292000A0000020E0000020DC000020D8000020F3
:10293000C800002010B50446104931F8140000F01A
:1029400083FA0F4951F824300E4951F8240000222F
:10295000012100F060F80A4951F82430094951F882
:1029600024000222002100F07DF8054850F82400E0
:10297000044951F82410C86210BD00009C000020DA
:10298000940000208C000020034951F82010034AD5
:1029900052F8202091617047940000208C000020A4
:1029A000034951F82010034A52F8202091627047E1
:1029B000940000208C000020F0B503461C6A5D6A7C
:1029C00000200DE00126864016403EB187000F260C
:1029D000BE40B443860001FA06F63443461CB0B24A
:1029E0000828EFD3082011E00126864016405EB18A
:1029F000A0F10806B7000F26BE40B543A0F10806B7
:102A0000B60001FA06F63543461CB0B21028EBD3E7
:102A10001C625D62F0BDF0B504460D4616462168A5
:102A2000E268002019E0012787401F409FB14FEA6C
:102A3000400C032707FA0CF7B943470005FA07F7DC
:102A400039434FEA400C032707FA0CF7BA43470013
:102A500006FA07F73A43471CB8B21028E3D32160BF
:102A6000E260F0BDF0B50C461546012C03D1466876
:102A70001E43466002E046689E434660826800212D
:102A80000DE001268E401E403EB14F000326BE40A1
:102A9000B2434E0005FA06F632434E1CB1B210297D
:102AA000EFD38260F0BD00008CB0002400200B90BA
:102AB000FDF732FF00F0D6FA0121880700F060FB35
:102AC0000020FFF737FF0120FFF734FF3448FFF7FE
:102AD0007FFE01210220FFF7EDFE01210320FFF719
:102AE000E9FEFDF733FFC820FDF74CFF2D48FFF747
:102AF00083F82D48FEF738FD2C48FEF7B3FD2C482F
:102B0000FEF7FAFF2B48FEF775F8FEF7EBF82AA15F
:102B10002CA0FDF7FDFF2DA22EA132A0FDF776FF20
:102B20004FF47A7230A132A0FEF724F94FF47A7292
:102B300023A133A0FEF71EF93548FEF74DFB35A063
:102B400038490A220023CDE900103748FEF74CFB34
:102B500036A03A494FF4FA620023CDE90010384814
:102B6000FEF742FB1AE0FEF783FB3648FEF746FE0F
:102B700004460BA92046FDF71BFF2C2231490C31DE
:102B80006846FDF72FFB2F480EC80B98FEF780F91B
:102B90002D492C48FEF70CFAFEF788FAE3E700000F
:102BA00000100140004C0040005000400078004000
:102BB0000014014000480040313939393131323890
:102BC000000000006950686F6E65000038383838C2
:102BD000000000003132342E3232322E33332E32A6
:102BE00034360000544350004F4B0D0A00000000E3
:102BF00041542B4349504D4F44453D300D0A000090
:102C000041542B43495053454E440D0A00000000E7
:102C1000B53000085A69674265655F526563766939
:102C200063650000D9300008A00700205A69674298
:102C300065655F7072696E7466000000453100085A
:102C4000B807002068020020080E00202DE9F0419E
:102C500003460D46164600240027A0462A48006871
:102C600000F4E060B0F5E06F03D100BF4FF004085E
:102C700030E02548006800F4E060B0F5C06F03D193
:102C800001274FF0030825E01F48006800F4E060CA
:102C9000B0F5A06F02D10227B8461BE01A480068C1
:102CA00000F4E060B0F5806F03D103274FF0010816
:102CB00010E01548006800F4E060B0F5407F03D1F3
:102CC00004274FF0000805E04FF4A06000F020F862
:102CD0000227B846C7F1040005FA00F4C8F1040160
:102CE0000F20C8403040044324010848C45403F076
:102CF0001F01012088405911890001F1E021C1F82C
:102D00000001BDE8F08100000CED00E000E400E00F
:102D100002490143024A1160704700000000FA05B1
:102D20000CED00E02DE9F04F8CB0064600200A9033
:102D30003EA090E8004CC068CDE905BECDF810A0DB
:102D400007900FF2EC0ADAE9000ACDE9020A0FF265
:102D5000E00ADAE9000ACDE9000A38480068C0F361
:102D600081000B900B9820B1012804D0022828D1B3
:102D700003E0334927E0334925E03048001F00686D
:102D800000F03F072D48001F0068C0F3881C2B4847
:102D9000001F0068C0F30140401C4FEA400927486B
:102DA000001F006800F48008B8F5800F01D1254BA2
:102DB00000E0234BB3FBF7F000FB0CF0B0FBF9F1A4
:102DC00001E01F4900BF00BF1C480068C0F30314A6
:102DD00004A8055D21FA05F218480068C0F38224B2
:102DE00002A8055D22FA05F0099014480068C0F3B6
:102DF00042341DF8045022FA05F0089036B1012E35
:102E000006D0022E06D0032E0AD106E00A9108E071
:102E10000A9206E009980A9003E008980A9000E0F8
:102E200000BF00BF0A980CB0BDE8F08F00000000A2
:102E300000000000010203040607080908380240E8
:102E40000024F400001BB700074A02EB9011D1F8F0
:102E5000001800F01F0301229A401143024B03EBBC
:102E60009012C2F80018704700300240074A02EB87
:102E70009011D1F8001800F01F0301229A409143ED
:102E8000024B03EB9012C2F800187047003002406A
:102E9000074A02EB9011D1F8001800F01F0301223D
:102EA0009A401143024B03EB9012C2F8001870478E
:102EB0000030024070B504460B46CD1701EB957506
:102EC000AD10A1EB8505AE000F25B540E843CD1749
:102ED00001EB9575AD10A1EB8505AD0004FA05F287
:102EE000CD1701EB9575AD1035B1012D0ED0022D2A
:102EF00018D0032D2ED121E0184B1B680340174D2D
:102F00002B602B461B6813432B6024E0134B1B1DC7
:102F10001B680340114D2D1D2B602B461B6813436E
:102F20002B6018E00D4B08331B6803400B4D083530
:102F30002B602B461B6813432B600CE0074B0C33B4
:102F40001B680340054D0C352B602B461B68134353
:102F50002B6000E000BF00BF70BD000008380140DA
:102F6000002000213A4A126842F00102384B1A60F0
:102F700000BF401C364A126802F0020111B9B0F5D8
:102F8000A06FF6D1324A126802F002020AB900BFFD
:102F9000FEE72F4A4032126842F080522C4B4033F9
:102FA0001A602C4A126842F440422A4B1A60284A9E
:102FB00008321268264B08331A601A46126842F427
:102FC00000421A601A46126842F4A0521A60224A5D
:102FD0001B1F1A601A1F126842F080721B1F1A60B2
:102FE00000BF1B4A126802F00072002AF9D0194A89
:102FF000126842F48032174B1A6000BF154A5268BB
:1030000002F48032002AF9D0124A126842F40032E7
:10301000104B1A6000BF0F4A526802F40032002AB7
:10302000F9D00B4A0832126822F00302084B083329
:103030001A601A46126842F002021A6000BF044A7F
:103040000832126802F00802002AF8D07047000027
:1030500000380240007000401064000910B5FFF70E
:103060007FFF10BD10B5124800684FF47A71B0FBB5
:10307000F1F4601EB0F1807F01D301200FE0601EEB
:103080004FF0E02148610F214FF0FF30FEF716F9B5
:1030900000204FF0E021886107200861002008B17E
:1030A00000BFFEE70021481EFEF708F910BD000032
:1030B00088000020014903C970470000200100205A
:1030C0000448D0E900305A1C40F100000149C1E930
:1030D00000207047200100207CB504460D461248B0
:1030E0000068401C1049086010480068012810D191
:1030F0000E48D0F81004401C0C49C1F810040846D2
:10310000D0F81004D1F81414884202DD01200749D8
:10311000486007A0AFF23F010A220023CDE900106A
:103120000748FEF761F87CBD28010020E807002071
:103130005A69674265655F52656376696365000039
:10314000A00700207CB504460D4601200649087002
:1031500006A0AFF20F014FF4FA620023CDE9001090
:103160000648FEF741F87CBD100100205A6967420D
:1031700065655F7072696E7466000000B8070020B4
:103180007FB505460C463249681A8D4227D009DCC6
:10319000B5F1804F14D02F482844B0B1B0F5806FFE
:1031A0002CD117E0B0F5806F1ED0B0F5006F20D0A5
:1031B000B0F5744F22D14FF48850FFF745FE1EE062
:1031C0004FF48050FFF740FE19E041F20100FFF795
:1031D0003BFE14E041F20200FFF736FE0FE041F241
:1031E0000300FFF731FE0AE041F20400FFF72CFE76
:1031F00005E041F20500FFF727FE00E000BF00BF39
:10320000284600F029F8684600F04DF944F61F60A2
:10321000ADF800000020ADF80200ADF8040004EBAA
:103220008400400002900020ADF806006946284660
:1032300000F0DAF80121284600F022F9284600F0D3
:10324000CDF8002201211C20FFF700FD7FBD00000A
:10325000000C004000FCFFBF10B504465C49601A3A
:103260008C426FD019DC5B49A4EB01008C424ED03C
:1032700009DCB4F1804F2ED057482044A0B3B0F5FC
:10328000806F72D13AE0B0F5806F49D0B0F5006F31
:103290004FD0B0F5406FF4D17BE0B0F5923F5BD0FA
:1032A00009DCB0F5806F73D0B0F5644F0AD0B0F58B
:1032B000684F5AD147E0B0F5943F57D0B0F5963FEC
:1032C00053D15CE04FF41060FFF7E2FD4FF4106063
:1032D000FFF7CCFD79E04FF40060FFF7D9FD4FF424
:1032E0000060FFF7C3FD70E0FFE740F60100FFF765
:1032F000CFFD40F60100FFF7B9FD66E040F60200A1
:10330000FFF7C6FD40F60200FFF7B0FD5DE040F6B6
:103310000300FFF7BDFD40F60300FFF7A7FD54E0F3
:1033200040F60400FFF7B4FD40F60400FFF79EFDF1
:103330004BE040F60500FFF7ABFD40F60500FFF758
:1033400095FD42E02EE040F60110FFF7A1FD40F6AA
:103350000110FFF78BFD38E04FF41160FFF798FD87
:103360004FF41160FFF782FD2FE02DE040F61110C1
:10337000FFF78EFD40F61110FFF778FD25E040F6CF
:103380001210FFF785FD40F61210FFF76FFD1CE0ED
:1033900011E040F60600FFF77BFD40F60600FFF760
:1033A00065FD12E040F60700FFF772FD40F60700EA
:1033B000FFF75CFD09E040F60800FFF769FD40F605
:1033C0000800FFF753FD00E000BF00BF10BD000084
:1033D000001C0040000C004000FCFFBF016841F0F1
:1033E00001010160704700000A8882621D4A904214
:1033F0000ED0B0F1804F0BD01B4A904208D01B4A30
:10340000904205D01A4A904202D01A4A90420BD1FB
:10341000026822F07002026002684B881A43026060
:1034200002688B881A4302608A68C262124A90421C
:103430000AD0124A904207D0026822F44072026019
:103440000268CB881A430260064A904202D0094AB9
:10345000904201D10A7B0263426942F0010242615B
:1034600070470000000001400004004000080040D8
:10347000000C004000040140001000400014004017
:10348000C2680A43C2607047CA430261704702467D
:10349000D06800EA01031069084010B10BB10120A7
:1034A00070470020FCE700210180418081804FF6B9
:1034B000FF7181600021C180017370472DE9F047E1
:1034C00004460D460027B846B94600263349601A1F
:1034D0008C4235D00CDC32482044E8B1B0F5806F26
:1034E0001FD0B0F5006F21D0B0F5406F32D122E08F
:1034F000B0F5806F29D0B0F5184F03D0B0F51C4F50
:1035000028D104E00320FFF70DFC074623E0032049
:10351000FFF708FC07461EE00220FFF703FC074602
:1035200019E00220FFF7FEFB074614E00220FFF738
:10353000F9FB07460FE00220FFF7F4FB07460AE01D
:103540000220FFF7EFFB074605E00220FFF7EAFB4A
:10355000074600E000BF00BFE06800F4004070B123
:10356000780000EB5500B0FBF5F64FF6F07006EA78
:103570000008C6F3420948EA0900A0600CE007EB26
:103580005500B0FBF5F64FF6F07006EA000806F0BD
:103590000F0948EA0900A060BDE8F0870078004004
:1035A00000BCFFBF01464868C0F308007047C1F384
:1035B000080242607047000010B504463349601AA3
:1035C0008C424DD00CDC32482044E0B1B0F5806F25
:1035D00022D0B0F5006F31D0B0F5406F52D136E057
:1035E000B0F5806F45D0B0F5184F03D0B0F51C4F43
:1035F00048D11AE040F60410FFF74AFC40F60410E8
:10360000FFF734FC3FE040F61100FFF741FC40F6C5
:103610001100FFF72BFC36E040F61200FFF738FCF4
:1036200040F61200FFF722FC2DE040F60510FFF7F0
:103630002FFC40F60510FFF719FC24E040F61300BC
:10364000FFF726FC40F61300FFF710FC1BE040F6E6
:103650001400FFF71DFC40F61400FFF707FC12E012
:1036600040F61E00FFF714FC40F61E00FFF7FEFBBD
:1036700009E040F61F00FFF70BFC40F61F00FFF7C4
:10368000F5FB00E000BF00BF10BD00000078004067
:1036900000BCFFBF426922F040024261426901F072
:1036A00040031A4342617047426922F0800242613E
:1036B000426901F080031A4342617047C16841F4D6
:1036C0000051C160704710B500EB9112126801F013
:1036D0001F040123A3409A4300EB91131A6010BD0D
:1036E00010B5024602EB9110006801F01F0401239F
:1036F000A340184008B1012010BD0020FCE710B520
:1037000000EB9112126801F01F040123A3401A4339
:1037100000EB91131A6010BD10B500EB91521268C6
:10372000C1F304440123A3409A4300EB91531A6070
:1037300010BD70B5024600230024C1F38910105853
:1037400001F01F060125B54000EA050302EB915088
:103750000068C1F304460125B54000EA050414B130
:103760000BB1012070BD0020FCE7C26822F4C062EA
:10377000C260C2680A43C26070470A460021C1683D
:1037800021F004011143C1607047026922F44052E4
:10379000026102690A43026170470A460021C1685A
:1037A00021F008011143C1607047C26822F48052C1
:1037B000C260C2680A43C2607047000041542B4394
:1037C000574A41503D00000000000000000000008A
:1037D00000000000000000000000000000000000E9
:1037E00000000000000000000000000000000000D9
:1037F00000000000000000000000000000000000C9
:1038000000000000000000000000000000000000B8
:1038100000000000000000000000000000000000A8
:1038200041542B43495053544152543D0000000031
:103830000000000000000000000000000000000088
:103840000000000000000000000000000000000078
:103850000000000000000000000000000000000068
:103860000000000000000000000000000000000058
:103870000000000000000000000000000000000048
:1038800000000000DDDDDDDDDCBBBBDDDDDDDDDD21
:10389000DDDDDDDD98888888888888887777777788
:1038A0007788888885555556666666666666666654
:1038B00066688888833333322222222222222222FF
:1038C0002228888DE43800080000002068010000EC
:1038D000C00800088039000868010020B812000004
:1038E000181E000841A74155544F4F4E3910EB4662
:1038F00046103D48414E44272909944E554D300EFF
:103900005448524553484F4C445F53455419067729
:103910005A4947424545490D47434F4E4649474955
:1039200026F114C2EB0B3C14024004322022402545
:10393000050C050C19101A08044A0C044201192040
:10394000290842021D0C020C0302F9181402030399
:10395000120D8601062806075B04111D62045B1325
:10396000100C0226082A1430190429332A1E0C19B7
:103970006D32801A055819AF390C410A11125800DE
:04000005080001AD41
:00000001FF
